:020000040800F2
:100000000000022035130008091100081111000832
:100010004D1100085311000859110008000000009C
:100020000000000000000000000000008134010812
:100030005F11000800000000D13601086D110008B2
:10004000851300088513000885130008693500082A
:100050008513000885130008DD2D0008412E0008D7
:100060008513000885130008F52D00088513000886
:100070008513000885130008851300088513000800
:1000800085130008851300088513000885130008F0
:10009000851300088513000885130008292E000821
:1000A00085130008851300088513000885130008D0
:1000B00085130008FD390008851300088513000822
:1000C00085130008851300088513000885130008B0
:1000D00085130008DDB700088513000885130008A4
:1000E0000D2E000839350008851300088513000817
:1000F0008513000885130008DD3E000885130008FD
:10010000851300088513000885130008851300086F
:10011000851300082D3200084539000885130008B2
:10012000851300088513000885130008851300084F
:100130001929000885130008851300088513000895
:10014000851300088513000885130008593C010831
:10015000851300088513000885130008851300081F
:10016000851300088513000885130008851300080F
:10017000851300088513000885130008000000009F
:08018000851300088513000837
:1001900010B5054C237833B9044B13B10448AFF3C1
:1001A00000800123237010BD280200200000000001
:1001B00010BE010808B5034B1BB103490348AFF358
:1001C000008008BD000000002C02002010BE0108C5
:1001D000034613F8012B002AFBD1181A0138704787
:1001E00001F0FF01102A2BDB10F0070F08D010F8E8
:1001F000013B013A8B422DD010F0070F42B3F6D1EC
:10020000F0B441EA012141EA014122F007047FF004
:1002100000070023F0E80256083C85EA010586EA5B
:10022000010685FA47F5A3FA87F586FA47F6A5FA97
:1002300087F68EB9EED1F0BC01F0FF0102F00702A3
:1002400032B110F8013B013A83EA010313B1F8D14E
:100250000020704701387047002D06BF354603382F
:10026000073815F0010F07D1013015F4807F02BF68
:10027000013015F4C03F0130F0BC0138704700BFB9
:1002800081F0004102E000BF83F0004330B54FEA47
:1002900041044FEA430594EA050F08BF90EA020FB4
:1002A0001FBF54EA000C55EA020C7FEA645C7FEA47
:1002B000655C00F0E2804FEA5454D4EB5555B8BF6A
:1002C0006D420CDD2C4480EA020281EA030382EADB
:1002D000000083EA010180EA020281EA0303362D6D
:1002E00088BF30BD11F0004F4FEA01314FF4801C40
:1002F0004CEA113102D0404261EB410113F0004F52
:100300004FEA03334CEA133302D0524263EB430308
:1003100094EA050F00F0A780A4F10104D5F1200EA6
:100320000DDB02FA0EFC22FA05F2801841F1000101
:1003300003FA0EF2801843FA05F359410EE0A5F1D5
:1003400020050EF1200E012A03FA0EFC28BF4CF006
:10035000020C43FA05F3C01851EBE37101F00045BC
:1003600007D54FF0000EDCF1000C7EEB00006EEBC9
:100370000101B1F5801F1BD3B1F5001F0CD3490853
:100380005FEA30004FEA3C0C04F101044FEA4452AA
:1003900012F5800F80F09A80BCF1004F08BF5FEA31
:1003A000500C50F1000041EB045141EA050130BD11
:1003B0005FEA4C0C404141EB0101013C28BFB1F523
:1003C000801FE9D291F0000F04BF01460020B1FA6E
:1003D00081F308BF2033A3F10B03B3F120020CDA41
:1003E0000C3208DD02F1140CC2F10C0201FA0CF01F
:1003F00021FA02F10CE002F11402D8BFC2F1200C84
:1004000001FA02F120FA0CFCDCBF41EA0C01904039
:10041000E41AA2BF01EB0451294330BD6FEA040482
:100420001F3C1CDA0C340EDC04F11404C4F120026D
:1004300020FA04F001FA02F340EA030021FA04F37F
:1004400045EA030130BDC4F10C04C4F1200220FAD6
:1004500002F001FA04F340EA0300294630BD21FA14
:1004600004F0294630BD94F0000F83F4801306BFDA
:1004700081F480110134013D4EE77FEA645C18BFCE
:100480007FEA655C29D094EA050F08BF90EA020F65
:1004900005D054EA000C04BF1946104630BD91EA5D
:1004A000030F1EBF0021002030BD5FEA545C05D160
:1004B0004000494128BF41F0004130BD14F580049F
:1004C0003CBF01F5801130BD01F0004545F0FE4113
:1004D00041F470014FF0000030BD7FEA645C1ABF48
:1004E000194610467FEA655C1CBF0B46024650EA7F
:1004F000013406BF52EA033591EA030F41F40021AB
:1005000030BD00BF90F0000F04BF0021704730B530
:100510004FF4806404F132044FF000054FF0000105
:1005200050E700BF90F0000F04BF0021704730B5C6
:100530004FF4806404F1320410F0004548BF40429B
:100540004FF000013EE700BF42004FEAE2014FEAF0
:1005500031014FEA02701FBF12F07F4393F07F4FCB
:1005600081F06051704732F07F4208BF704793F0CE
:100570007F4F04BF41F40021704730B54FF46074E1
:1005800001F0004521F000411CE700BF50EA0102E4
:1005900008BF704730B54FF000050AE050EA01028D
:1005A00008BF704730B511F0004502D5404261EBFD
:1005B00041014FF4806404F132045FEA915C3FF43E
:1005C000D8AE4FF003025FEADC0C18BF03325FEADB
:1005D000DC0C18BF033202EBDC02C2F1200300FA8C
:1005E00003FC20FA02F001FA03FE40EA0E0021FAB1
:1005F00002F11444BDE600BF70B54FF0FF0C4CF49F
:10060000E06C1CEA11541DBF1CEA135594EA0C0F50
:1006100095EA0C0F00F0DEF82C4481EA030621EA8B
:100620004C5123EA4C5350EA013518BF52EA0335C6
:1006300041F4801143F4801338D0A0FB02CE4FF078
:100640000005E1FB02E506F00042E0FB03E54FF0A8
:100650000006E1FB03569CF0000F18BF4EF0010EA0
:10066000A4F1FF04B6F5007F64F5407404D25FEA9C
:100670004E0E6D4146EB060642EAC62141EA55514F
:100680004FEAC52040EA5E504FEACE2EB4F1FD0C91
:1006900088BFBCF5E06F1ED8BEF1004F08BF5FEA0F
:1006A000500E50F1000041EB045170BD06F00046C1
:1006B00046EA010140EA020081EA0301B4EB5C046E
:1006C000C2BFD4EB0C0541EA045170BD41F4801166
:1006D0004FF0000E013C00F3AB8014F1360FDEBF8B
:1006E000002001F0004170BDC4F10004203C35DA67
:1006F0000C341BDC04F11404C4F1200500FA05F3EA
:1007000020FA04F001FA05F240EA020001F000428A
:1007100021F0004110EBD37021FA04F642EB060100
:100720005EEA430E08BF20EAD37070BDC4F10C042A
:10073000C4F1200500FA04F320FA05F001FA04F2EE
:1007400040EA020001F0004110EBD37041F10001DA
:100750005EEA430E08BF20EAD37070BDC4F12005E5
:1007600000FA05F24EEA020E20FA04F301FA05F24D
:1007700043EA020321FA04F001F0004121FA04F2F5
:1007800020EA020000EBD3705EEA430E08BF20EAC5
:10079000D37070BD94F0000F0FD101F000464000FF
:1007A00041EB010111F4801F08BF013CF7D041EA81
:1007B000060195F0000F18BF704703F00046520085
:1007C00043EB030313F4801F08BF013DF7D043EA56
:1007D0000603704794EA0C0F0CEA135518BF95EA0C
:1007E0000C0F0CD050EA410618BF52EA4306D1D193
:1007F00081EA030101F000414FF0000070BD50EAB2
:10080000410606BF1046194652EA430619D094EA3B
:100810000C0F02D150EA013613D195EA0C0F05D125
:1008200052EA03361CBF104619460AD181EA030179
:1008300001F0004141F0FE4141F470014FF0000031
:1008400070BD41F0FE4141F4780170BD70B54FF0CC
:10085000FF0C4CF4E06C1CEA11541DBF1CEA13554C
:1008600094EA0C0F95EA0C0F00F0A7F8A4EB05042E
:1008700081EA030E52EA03354FEA013100F0888025
:100880004FEA03334FF0805545EA131343EA1263EE
:100890004FEA022245EA111545EA10654FEA0026A3
:1008A0000EF000419D4208BF964244F1FD0404F55C
:1008B000407402D25B084FEA3202B61A65EB0305B8
:1008C0005B084FEA32024FF480104FF4002CB6EB75
:1008D000020E75EB030E22BFB61A754640EA0C00F5
:1008E0005B084FEA3202B6EB020E75EB030E22BF35
:1008F000B61A754640EA5C005B084FEA3202B6EB76
:10090000020E75EB030E22BFB61A754640EA9C0034
:100910005B084FEA3202B6EB020E75EB030E22BF04
:10092000B61A754640EADC0055EA060E18D04FEAC2
:10093000051545EA16754FEA06164FEAC30343EA62
:1009400052734FEAC2025FEA1C1CC0D111F4801F2F
:100950000BD141EA00014FF000004FF0004CB6E728
:1009600011F4801F04BF01430020B4F1FD0C88BFC7
:10097000BCF5E06F3FF6AFAEB5EB030C04BFB6EBD2
:10098000020C5FEA500C50F1000041EB045170BDC5
:100990000EF0004E4EEA113114EB5C04C2BFD4EBF2
:1009A0000C0541EA045170BD41F480114FF0000E76
:1009B000013C90E645EA060E8DE60CEA135594EAF2
:1009C0000C0F08BF95EA0C0F3FF43BAF94EA0C0FF5
:1009D0000AD150EA01347FF434AF95EA0C0F7FF46A
:1009E00025AF104619462CE795EA0C0F06D152EABE
:1009F00003353FF4FDAE1046194622E750EA4106A2
:100A000018BF52EA43067FF4C5AE50EA41047FF4B2
:100A10000DAF52EA43057FF4EBAE12E74FF0FF3C17
:100A200006E000BF4FF0010C02E000BF4FF0010CE8
:100A30004DF804CD4FEA410C7FEA6C5C4FEA430C61
:100A400018BF7FEA6C5C1BD001B050EA410C0CBFB0
:100A500052EA430C91EA030F02BF90EA020F002012
:100A6000704710F1000F91EA030F58BF994208BF79
:100A700090422CBFD8176FEAE37040F00100704736
:100A80004FEA410C7FEA6C5C02D150EA013C07D18D
:100A90004FEA430C7FEA6C5CD6D152EA033CD3D0D8
:100AA0005DF8040B704700BF8446104662468C46D2
:100AB0001946634600E000BF01B5FFF7B7FF002805
:100AC00048BF10F1000F01BD4DF808EDFFF7F4FF2E
:100AD0000CBF012000205DF808FB00BF4DF808EDB9
:100AE000FFF7EAFF34BF012000205DF808FB00BFDC
:100AF0004DF808EDFFF7E0FF94BF012000205DF8FE
:100B000008FB00BF4DF808EDFFF7CEFF94BF0120B2
:100B100000205DF808FB00BF4DF808EDFFF7C4FFAB
:100B200034BF012000205DF808FB00BF4FEA410CF4
:100B30007FEA6C5C02D150EA013C0AD14FEA430CD7
:100B40007FEA6C5C02D152EA033C02D14FF0000014
:100B500070474FF0010070474FEA410212F5001252
:100B600015D211D56FF47873B3EB625212D94FEAF4
:100B7000C12343F0004343EA505311F0004F23FADE
:100B800002F018BF404270474FF00000704750EA33
:100B9000013005D111F0004008BF6FF000407047F0
:100BA0004FF00000704700BF4A0011D212F500124A
:100BB00011D20DD56FF47873B3EB62520ED44FEAB5
:100BC000C12343F0004343EA505323FA02F0704735
:100BD0004FF00000704750EA013002D14FF0FF3073
:100BE00070474FF0000070474FEA4102B2F1E04316
:100BF00024BFB3F5001CDCF1FE5C0DD901F0004C04
:100C00004FEAC0024CEA5070B2F1004F40EB830053
:100C100008BF20F00100704711F0804F21D113F17F
:100C20003872BCBF01F00040704741F480114FEAB8
:100C30005252C2F11802C2F1200C10FA0CF320FA41
:100C400002F018BF40F001004FEAC1234FEAD3235E
:100C500003FA0CFC40EA0C0023FA02F34FEA4303C8
:100C6000CCE77FEA625307D150EA01331EBF4FF051
:100C7000FE4040F44000704701F0004040F0FE406C
:100C800040F40000704700BF53B94AB9002908BFBB
:100C900000281CBF4FF0FF314FF0FF3000F0AAB921
:100CA000ADF1080C6DE904CE00F03CF8DDF804E08D
:100CB000DDE9022304B0704738B500220023044662
:100CC0000D46FFF70BFF28B920462946BDE83840FE
:100CD00000F00AB8204605F1004100F005F8404256
:100CE00061EB410138BD00BFD0B50C4B0022064678
:100CF0000F46FFF781FCFFF757FF0446FFF702FCA2
:100D0000074B0022FFF778FC02460B463046394677
:100D1000FFF7BAFAFFF748FF2146D0BD0000F03DCB
:100D20000000F0412DE9F047089D04468E46002B57
:100D30004DD18A42944669D9B2FA82F252B101FA8F
:100D400002F3C2F1200120FA01F10CFA02FC41EA9F
:100D5000030E94404FEA1C48210CBEFBF8F61FFA24
:100D60008CF708FB16E341EA034306FB07F19942BF
:100D70000AD91CEB030306F1FF3080F01F81994272
:100D800040F21C81023E63445B1AA4B2B3FBF8F04C
:100D900008FB103344EA034400FB07F7A7420AD9D3
:100DA0001CEB040400F1FF3380F00A81A74240F2FB
:100DB00007816444023840EA0640E41B00261DB166
:100DC000D4400023C5E900433146BDE8F0878B429B
:100DD00009D9002D00F0EF800026C5E9000130465A
:100DE0003146BDE8F087B3FA83F6002E4AD18B4234
:100DF00002D3824200F2F980841A61EB03030120DE
:100E00009E46002DE0D0C5E9004EDDE702B9FFDEC9
:100E1000B2FA82F2002A40F09280A1EB0C014FEA74
:100E20001C471FFA8CFE0126200CB1FBF7F307FBD1
:100E3000131140EA01410EFB03F0884208D91CEB74
:100E4000010103F1FF3802D2884200F2CB80434611
:100E5000091AA4B2B1FBF7F007FB101144EA0144F0
:100E60000EFB00FEA64508D91CEB040400F1FF317F
:100E700002D2A64500F2BB800846A4EB0E0440EA6D
:100E800003409CE7C6F12007B34022FA07FC4CEA76
:100E9000030C20FA07F401FA06F31C43F9404FEA69
:100EA0001C4900FA06F3B1FBF9F8200C1FFA8CFE7E
:100EB00009FB181140EA014108FB0EF0884202FAD2
:100EC00006F20BD91CEB010108F1FF3A80F0888093
:100ED000884240F28580A8F102086144091AA4B250
:100EE000B1FBF9F009FB101144EA014100FB0EFED1
:100EF0008E4508D91CEB010100F1FF346CD28E4500
:100F00006AD90238614440EA0840A0FB0294A1EB90
:100F10000E01A142C846A64656D353D05DB1B3EBED
:100F2000080261EB0E0101FA07F722FA06F3F1401D
:100F30001F43C5E9007100263146BDE8F087C2F1C4
:100F40002003D8400CFA02FC21FA03F3914001433C
:100F50004FEA1C471FFA8CFEB3FBF7F007FB103675
:100F60000B0C43EA064300FB0EF69E4204FA02F421
:100F700008D91CEB030300F1FF382FD29E422DD974
:100F8000023863449B1B89B2B3FBF7F607FB1633A9
:100F900041EA034106FB0EF38B4208D91CEB010129
:100FA00006F1FF3816D28B4214D9023E6144C91AA9
:100FB00046EA004638E72E46284605E70646E3E6B9
:100FC0001846F8E64B45A9D2B9EB020864EB0C0EC3
:100FD0000138A3E74646EAE7204694E74046D1E7D2
:100FE000D0467BE7023B614432E7304609E7644480
:100FF000023842E7704700BF80B584B002AF02F00C
:10100000A1FF0723022208214FF4A8700AF0A4FAD6
:10101000A8200AF00FFA01F053FD01F0F1FC4FF4A3
:10102000E1300AF025FB0AF04FFF53214FF6FE7026
:1010300002F0B2FA00214FF6FF7002F0E9FC5321F2
:1010400040F2E73002F088FC0AF020FC02F032F8AF
:1010500002F02AF801F078FF02F0B0F93B1D7A1D8A
:10106000B91DF81D02F06AF9FB791946BB791A46D9
:101070007B790B4817F02AFA0FF028FE12F0D6FD04
:10108000084B01930123009300238022064907485F
:1010900010F0C7FD10F0B0FF0A200AF01BFAFBE7C2
:1010A00028BE01084402002040BE0108891800083B
:1010B00080B582B000AF00237B60124B5B6C114A9D
:1010C00043F4804353640F4B5B6C03F480437B60B9
:1010D0007B6800233B600B4B1B6C0A4A43F0805338
:1010E0001364084B1B6C03F080533B603B68002289
:1010F0000F216FF0010003F09AFC00BF0837BD46D6
:1011000080BD00BF0038024080B400AFFEE70000A1
:1011100080B586B000AF18237B61EFF308837B6056
:101120007A687B6913441B683B61EFF30983BB60FA
:10113000BA687B6913441B68FB60FA683969024826
:1011400017F0C4F9FEE700BF48BE010880B400AF45
:10115000FEE780B400AFFEE780B400AFFEE780B4E6
:1011600000AF00BFBD465DF8047B704780B500AF9F
:1011700002F03AFF11F098FB0346012B01D012F068
:10118000DBFA00BF80BD80B400AF01231846BD4626
:101190005DF8047B704780B582B000AF786039603D
:1011A00016F06EF8034616221A604FF0FF33184609
:1011B0000837BD4680BD80B582B000AF78604FF083
:1011C000FF317868FFF7E7FFFEE780B586B000AF34
:1011D000F860B9607A6000237B610AE0AFF30080B9
:1011E0000146BB685A1CBA60CAB21A707B690133E7
:1011F0007B617A697B689A42F0DB7B681846183716
:10120000BD4680BD80B586B000AFF860B9607A6039
:1012100000237B6109E0BB685A1CBA601B78184642
:101220000AF014FA7B6901337B617A697B689A4220
:10123000F1DB7B6818461837BD4680BD80B483B0AB
:1012400000AF78604FF0FF3318460C37BD465DF8AD
:10125000047B704780B483B000AF786039603B682E
:101260004FF400525A60002318460C37BD465DF813
:10127000047B704780B483B000AF786001231846C8
:101280000C37BD465DF8047B704780B485B000AF75
:10129000F860B9607A60002318461437BD465DF8DF
:1012A000047B704780B586B000AF7860144A154B58
:1012B000D31A7B617B693B61134B1B68002B02D106
:1012C000114B124A1A60104B1A687B6813443A6932
:1012D0009A4207D215F0D4FF03460C221A604FF051
:1012E000FF3309E0084B1B68FB60074B1A687B68FB
:1012F0001344054A1360FB6818461837BD4680BD85
:10130000000002200004000048020020685B00206A
:1013100080B400AF064BD3F88830054A43F470031D
:10132000C2F8883000BFBD465DF8047B704700BF3F
:1013300000ED00E0DFF834D00D480E490E4A0023DE
:1013400002E0D458C4500433C4188C42F9D30B4A79
:101350000B4C002301E013600432A242FBD3FFF7E1
:10136000D7FF15F0A5FFFFF747FE704700000220EA
:1013700000000020280200202C8004082802002001
:10138000685B0020FEE7000080B584B000AF7860A5
:101390000023FB73FA7B531CFB730A4BA3FB021362
:1013A000D9080B469B000B445B00D31ADBB2002B21
:1013B00003D10121044803F0BAFF1E2010F0E8FD1C
:1013C000E8E700BFCDCCCCCC001002402DE9B04FF7
:1013D0008EB008AF7860794B1B6807F10B0164226F
:1013E000184610F073F978617B69012B40F0E180B9
:1013F00007F10B03724918460AF024FC0346002B40
:1014000000F0D9806F4B1C6810F008FF02460023E3
:10141000009300230121204611F0CAFC684B1B7881
:10142000FB74FB7CA03B042BD5D801A252F823F01F
:10143000E1140008D914000845140008B11400088C
:10144000471500080123BB725D4BD3F801301846E5
:10145000FFF77AF882468B46594BD3F80530184689
:10146000FFF772F804460D46554BD3F8093018467D
:10147000FFF76AF880468946514BD3F80D3018467D
:10148000FFF762F802460B46CDE90423CDE9028955
:10149000CDE9004552465B464B4817F017F84B4BD9
:1014A000186807F10A01002301220FF075FF83E09D
:1014B0000223BB72454B186807F10A010023012281
:1014C0000FF06AFF0523FB60414B186800230322DD
:1014D000F96811F0BDFA6FE03E4817F093F86BE041
:1014E0003D4817F08FF8364BD3F801301846FFF718
:1014F0002BF882468B46324BD3F805301846FFF75F
:1015000023F804460D462E4BD3F809301846FFF752
:101510001BF8804689462A4BD3F80D301846FFF752
:1015200013F802460B462D490691CDE90423CDE977
:101530000289CDE9004552465B46294816F0C6FFB0
:1015400000F0D6FB38E00323BB721D4BD3F801300B
:101550001846FEF7F9FF82468B46194BD3F8053043
:101560001846FEF7F1FF04460D46154BD3F8093037
:101570001846FEF7E9FF80468946114BD3F80D3037
:101580001846FEF7E1FF02460B46CDE90423CDE9FC
:101590000289CDE9004552465B460B4816F096FF9E
:1015A0000A4B186807F10A01002301220FF0F4FE2C
:1015B00002E000BF0FE700BF0DE700BF900300206F
:1015C0004C0200208C03002084BE010894030020FC
:1015D000A4020020A4BE0108B8BE01087B020020BE
:1015E000CCBE01080000000080B58EB000AF78606E
:1015F000914817F007F8914B184601F019F8904BF5
:101600001B6807F12F010A22184610F05FF8034605
:10161000BB62BB6A012B40F007810123BB6297F8D4
:101620002F30032B00F0ED80032B00F3F880012B0B
:1016300002D0022B0DD0F2E0824B40F20B12824915
:10164000042001F045FB07F12803184600F0BCFC1C
:10165000E5E07E4B4FF488727B49042001F038FBB3
:101660007B4B00221A70642001F01AF900BF784BFE
:101670001B78012BFBD107F118031022002118461B
:1016800015F068FE00237B6321E0BB696B497A6B30
:1016900031F812201344BB61FB697A6B0132674950
:1016A00031F812201344FB613B6A7A6B02326349C2
:1016B00031F8122013443B627B6A7A6B03325F4934
:1016C00031F8122013447B627B6B04337B637B6BAA
:1016D000632BDAD9BB695F4AA2FB0323DB08BB603B
:1016E000FB695C4AA2FB0323DB08FB603B6A594AA7
:1016F000A2FB0323DB083B617B6A564AA2FB032360
:10170000DB087B61BB6807EE903AF8EE677A17EE6C
:10171000900AFEF719FF46A3D3E90023FEF76CFFFA
:1017200002460B4610461946FFF75EFA03463B6336
:10173000386BFEF709FF02460B46474816F0C6FE17
:10174000FB6807EE903AF8EE677A17EE900AFEF71C
:10175000FBFE37A3D3E90023FEF74EFF02460B46FC
:1017600010461946FFF740FA03463B63386BFEF715
:10177000EBFE02460B46394816F0A8FE3B6907EE21
:10178000903AF8EE677A17EE900AFEF7DDFE28A38E
:10179000D3E90023FEF730FF02460B4610461946F8
:1017A000FFF722FA03463B63386BFEF7CDFE024695
:1017B0000B462B4816F08AFE7B6907EE903AF8EE4E
:1017C000677A17EE900AFEF7BFFE19A3D3E900234C
:1017D000FEF712FF02460B4610461946FFF704FAC1
:1017E00003463B63386BFEF7AFFE02460B461D48CF
:1017F00016F06CFE164B00221A70642001F050F8AF
:101800000DE0194BD3F8013007EE903AFCEEE77A81
:101810000123194617EE900A00F0ECFD00BF4FF4CB
:101820007A7010F0B5FBEAE600BFE8E6AFF300809F
:101830006666666666664A3FF4BE0108A802002036
:10184000940300200CBF010828BF010844BF010811
:101850004C0400201F85EB5160BF010878BF0108D0
:1018600090BF0108A8BF01084C02002080B582B0DB
:1018700000AF7860034814F0B1FA0A2010F088FB3A
:10188000F8E700BF8056002080B586B002AF7860D0
:1018900011F0C0FE0023FB6000F0A8F89FED2F1AA6
:1018A000DFED2E0A9FED2D0A00F07AF92C4B019303
:1018B0000523009300234FF400722A492A4810F0B0
:1018C000B0F9F860FB68012B03D02649274816F0D1
:1018D000FDFD274B01930423009300234FF48072F6
:1018E0002449254810F09DF9F860FB68012B03D0CE
:1018F00020491E4816F0EAFD204B01930623009371
:1019000000234FF400721E491E4810F08AF9F86057
:10191000FB68012B03D01A49144816F0D7FD174B6A
:1019200001930523009300234FF4007216491748D2
:1019300010F077F9F860FB68012B03D012490B48CF
:1019400016F0C4FD124816F05DFE002010F0AEFA4D
:1019500011F090FE00BF1037BD4680BDCDCC4C3E8F
:10196000A4020020C0BF0108E9150008CCBF01088F
:101970009C020020E4BF010889130008A002002097
:10198000F0BF0108CD130008F8BF01086D1800086A
:1019900004C0010880B584B002AF7860104B1B68AA
:1019A00001330F4A13600E4B1B680A2B10D10C4BEE
:1019B00000221A600B4B18680023009300230022BA
:1019C000032111F0F5F900220221074803F096FCEB
:1019D0000221054803F0ABFC00BF0837BD4680BDBF
:1019E0009C0300208C0300200010024080B582B0D0
:1019F00002AF1D4B00930123012264211B4811F00B
:101A00007BF903461A4A13600022012132200FF0AD
:101A100065FC0346174A1360164B1B68002B02D166
:101A2000154816F0EFFD0022012105200FF056FCAD
:101A30000346124A1360114B1B68002B02D1104859
:101A400016F0E0FD0022012101200FF047FC0346C3
:101A50000C4A13600B4B1B68002B02D10A4816F08E
:101A6000D1FD00BFBD4680BD951900081CC001080E
:101A70008C030020900300202CC001089403002058
:101A800048C001089803002068C0010880B58AB0EA
:101A900000AF03460A4687ED020AC7ED010AFB7351
:101AA0001346BB73D7ED017AB2EE047A67EE877AFC
:101AB000FDEEE77A17EE903AFB61D7ED027AB2EECF
:101AC000047A67EE877AFDEEE77A17EE903ABB610B
:101AD000BB7B002B01D0FB6902E0FB69C3F109036A
:101AE0007B6100233B624CE03A6A7B699A420ADAE6
:101AF000BB7B002B03D0274816F084FD3EE0264830
:101B000016F080FD3AE03A6A7B699A420ADDBB7BB7
:101B1000002B03D0204816F075FD2FE01D4816F06D
:101B200071FD2BE03A6A7B699A4227D100237B62E0
:101B30001EE0FB7B002B0BD07A6ABB699A4203DA6A
:101B40002A2016F0DBFC10E02D2016F0D7FC0CE06C
:101B5000BB69C3F109037A6A9A4203DA2D2016F0B1
:101B6000CDFC02E02A2016F0C9FC7B6A01337B62BF
:101B70007B6A092BDDDD094816F044FD3B6A013321
:101B80003B623B6A092BAFDD00BF00BF2837BD4673
:101B900080BD00BFD0C00108DCC00108E8C001085A
:101BA00090B585B000AF87ED030AC7ED020A87ED57
:101BB000011AD7ED037AF5EEC07AF1EE10FACCBF38
:101BC00001230023DBB283F00103DBB2002B14D12D
:101BD000F868FEF7B9FC01231C463DA3D3E90023B6
:101BE000FEF77CFF0346002B01D100231C46E3B225
:101BF00083F00103DBB2002B05D0374B374AD821E5
:101C0000374815F01FFBD7ED027AF5EEC07AF1EEFA
:101C100010FACCBF01230023DBB283F00103DBB257
:101C2000002B14D1B868FEF78FFC01231C4628A3B3
:101C3000D3E90023FEF752FF0346002B01D1002316
:101C40001C46E3B283F00103DBB2002B05D0254B29
:101C5000224AD921224815F0F5FAD7ED017AF5EE9E
:101C6000C07AF1EE10FACCBF01230023DBB283F07F
:101C70000103DBB2002B14D17868FEF765FC012369
:101C80001C4613A3D3E90023FEF728FF0346002BCD
:101C900001D100231C46E3B283F00103DBB2002B29
:101CA00005D0114B0D4ADA210D4815F0CBFA0F4B38
:101CB0000133FA681A600D4B0533BA681A600B4B92
:101CC00009337A681A6000BF1437BD4690BD00BF63
:101CD00085EB51B81E052440ECC001087CCF0108FB
:101CE00000C1010820C1010834C101084C020020D4
:101CF00080B586B004AFA84B002283F823200022D1
:101D000083F82420002283F82520002283F826204F
:101D1000A14B002283F82720002283F828200022EC
:101D200083F82920002283F82A209B4B002283F885
:101D30002B20002283F82C20002283F82D20002263
:101D400083F82E20944B012283F82F20924B0122FE
:101D500083F83020904BD3F801309FED907A07EE56
:101D6000903AC7EE277AFCEEE77A17EE903A9AB2ED
:101D7000894BA3F81720884BD3F80530B2EE047ACC
:101D800007EE903AC7EE277AFCEEE77A17EE903A24
:101D90009AB2814BA3F819207F4BD3F809309FEDFD
:101DA000807A07EE903AC7EE277AFCEEE77A17EED4
:101DB000903A9AB2784BA3F81B20774BD3F80130B6
:101DC000DFED787A07EE103A67EE277AFCEEE77AD5
:101DD00017EE903A9AB2704BA3F81D206E4BD3F8D1
:101DE0000530DFED707A07EE103A67EE277AFCEEE9
:101DF000E77A17EE903A9AB2674BA3F81F20664B2A
:101E0000D3F80930DFED677A07EE103A67EE277AEC
:101E1000FCEEE77A17EE903A9AB25F4BA3F82120D6
:101E20005D4BB3F817309BB21A465B4BB3F81D30CD
:101E30009BB2019300924FF000025B4B5B4816F09F
:101E400045FB554BB3F819309BB21A46524BB3F8C9
:101E50001F309BB2019300924FF00002524B544846
:101E600016F034FB4C4BB3F81B309BB21A464A4B6E
:101E7000B3F821309BB2019300924FF000024A4B1D
:101E80004C4816F023FB444BB3F817309BB21A466C
:101E9000414BB3F819309BB202FB03F33E4AB2F850
:101EA0001B2092B202FB03F3434A82FB031252113E
:101EB000DB17D31A1946414816F008FB5023FB7173
:101EC000FB79184615F018FA03463B603B68002B77
:101ED00056D0F979304BB3F817309BB21A462E4BD7
:101EE000B3F81D309BB2039302924FF000022E4BC9
:101EF000CDE900232D4A386816F0A2FB3B684FF469
:101F00008A722F49042000F0E3FEF979224BB3F8DE
:101F100019309BB21A46204BB3F81F309BB2039383
:101F200002924FF00002204BCDE90023204A38688E
:101F300016F086FB3B684FF48C722149042000F0B8
:101F4000C7FEF979144BB3F81B309BB21A46124BFB
:101F5000B3F81F309BB2039302924FF00002124B72
:101F6000CDE90023134A386816F06AFB3B684FF44A
:101F70008E721349042000F0ABFE386815F0C4F9E6
:101F8000104B4FF492720E49042000F0A1FE00BFE6
:101F90000837BD4680BD00BF4C0200200000C8428B
:101FA00000008C42000020420000444048C101086B
:101FB00080C10108B8C101081F85EB51F0C10108BB
:101FC00000C101081CC2010880B588B000AF78606C
:101FD000FFF78EFE0023BB6110F056FC00230322A6
:101FE000B96910F035FD00F093FA0346FB75FB7DEF
:101FF000002B07D1434B40F257124349042000F015
:1020000067FE6CE0414B40F25B123F49012000F05B
:102010005FFE64E00021012010F0D2FCB861BB69D2
:10202000052B07D13A4B4FF4B2723749032000F029
:102030004FFE63E0374BD3F8233007EE903AF8EECB
:10204000E76A344BB3F817309BB207EE903AB8EE1C
:10205000E77AC6EE877AC7ED047A2E4BD3F827309D
:1020600007EE903AF8EEE76A2A4BB3F819309BB2C4
:1020700007EE903AB8EEE77AC6EE877AC7ED037AB4
:10208000244BD3F82330234AB2F8172092B293425C
:1020900025DA204BD3F827301E4AB2F8192092B225
:1020A00093421CDA1B4B93F82F301A4A92F83020D7
:1020B000D7ED030A97ED040A11461846FFF7E6FC30
:1020C00005200FF065FF0023FB6105E0124816F0C4
:1020D000FDF9FB690133FB61FB69092BF6DD00F0BB
:1020E000D1F8034683F00103DBB2002B92D10B4BF6
:1020F00040F27D120449042000F0EAFD2037BD467D
:1021000080BD00BF38C2010800C1010858C20108E3
:1021100078C201084C02002098C20108A0C2010840
:1021200080B58CB000AF78607B68FB627B68013360
:10213000BB62BB6A1B78022B7BD8BB6A1B78404A08
:1021400006339B001344D3F80B20BB6A1B783C4931
:1021500008335B000B44B3F807309BB29A4227DC8C
:10216000BB6A1B781A463649931D9B000B44D3F873
:102170000B30591C3248931D9B000344C3F80B10CD
:10218000BB6A1B78002B03D1FB6A01221A7052E054
:10219000BB6A1B78012B03D1BB6A00221A704AE08C
:1021A000BB6A1B78022B46D1BB6A00221A7042E040
:1021B000BB6A1B781A46224B134493F82F30002B2E
:1021C00014BF01230023DBB283F00103DBB21A4604
:1021D000BB6A1B781946134603F00103DAB2184BA9
:1021E0000B4483F82F20BB6A1B7807F10800154ABF
:1021F0001E2116F025FA07F108034FF4E272124986
:10220000042000F065FDBB6A1B780D4A06339B0075
:1022100013440022DA7200221A7300225A73002239
:102220009A73BB6A1B781A46084B9A5CBB6A1A7091
:1022300001E000BF00E000BF00BF3037BD4680BDF9
:102240004C020020BCC2010800C1010808000020A7
:1022500080B483B000AF78607B6802221A7000BF40
:102260000C37BD465DF8047B704780B483B000AF87
:1022700078607B6800221A7000BF0C37BD465DF89D
:10228000047B704780B500AF164B1B78022B06D934
:10229000154B164A40F23521154814F0D3FF114B67
:1022A0001B78144A9B001344D3F80230002B01D151
:1022B00000F008F90B4B1B780E4A9B001344D3F82F
:1022C000023008489847074B5B78032B07D1054B32
:1022D00000225A70034B00221A70012300E00023F1
:1022E000184680BDA0030020D8C201088CCF010889
:1022F00000C101087003002080B586B000AF78608F
:102300000B46FB700023FB75FB78013B042B55D873
:1023100001A252F823F000BFBD2300083F230008AC
:10232000BD230008BD2300082D23000801222649F3
:1023300000200DF013FB254816F064F93FE0244817
:1023400016F060F9234B1B6801221F4918460DF057
:1023500005FB0346FB75FB7D19461F4816F0B6F8D2
:1023600007F10C0207F11003194617480EF0E2FCC2
:102370000346FB75FB7D002B1CD1184816F042F973
:102380003B699B0A1946164816F0A0F8FB689B0AA1
:102390001946144816F09AF800F0BAF84FF4FA709B
:1023A0000FF0F6FD104B40F279221049042000F0A6
:1023B0008FFC04E00E4816F025F900E000BF00BFD6
:1023C0001837BD4680BD00BF14C3010818C30108FB
:1023D00030C30108A80800204CC3010864C30108E9
:1023E00070C301088CC30108A8C3010800C101081B
:1023F000C4C3010880B582B000AF78600B46FB70A3
:102400007B6807EE903AF8EE677A9FED277A67EEE1
:10241000877AFCEEE77A17EE903A9AB2234B1A804D
:10242000FB781A467968224816F050F81F4B1B8833
:102430009BB219461F4816F049F8FB78002B13D0C1
:102440001D4B1B6893ED007A7B6807EE903AF8EE1F
:10245000677ADFED156A67EEA67A174B1B6877EE91
:10246000277AC3ED007A12E0134B1B6893ED007AD4
:102470007B6807EE903AF8EE677ADFED0B6A67EE5D
:10248000A67A0D4B1B6877EE677AC3ED007A0B4B8B
:1024900001221A75FB781946094816F017F800BF93
:1024A0000837BD4680BD00BF000020422400002048
:1024B000D4C30108FCC3010804000020DC0600208E
:1024C00018C4010880B400AF0D4B00221A700C4BE9
:1024D00000225A700A4B0B4AC3F80220084B0A4AE2
:1024E000C3F80620064B094AC3F80A20044B002211
:1024F000DA8100221A8200BFBD465DF8047B704776
:102500007003002021210008512200086B220008DE
:102510002DE9B043C4B004AF3C480EF0D7FC0346ED
:1025200087F8FF3097F8FF301946394815F0CEFF8D
:1025300007F1CC03322118460EF0D4FC07F1CC028F
:1025400007F1CC00334B344916F0AEF807F1CC0359
:10255000072118460EF05CFC034687F8FF302F4930
:102560003B1D2F4A184616F06BF83B1D1846FDF729
:102570002FFE02463B1D114618460EF06BFC07F17C
:10258000CC03381D274AC82116F05AF83B1D1846BF
:10259000FDF71EFE02463B1D114618460EF05AFC82
:1025A000214BD3F801301846FDF7CEFF804689460F
:1025B0001D4BD3F805301846FDF7C6FF04460D46FF
:1025C000194BD3F809301846FDF7BEFF02460B46FB
:1025D000381DCDE90223CDE9004542464B4613495B
:1025E00016F062F83B1D1846FDF7F2FD02463B1D52
:1025F000114618460EF02EFC0EF020FC97F8FF3026
:10260000184607F58077BD46BDE8B0832CC40108A5
:1026100040C4010854C401085CC4010864C4010832
:1026200068C40108E4C401084C020020F8C4010891
:1026300080B592B000AF786007F1240300221A60E1
:102640005A609A60DA6000233B628C4B5B6C8B4A69
:1026500043F480735364894B5B6C03F480733B6277
:102660003B6A0023FB61854B1B6B844A43F00103EB
:102670001363824B1B6B03F00103FB61FB690023B7
:10268000BB617E4B1B6B7D4A43F0010313637B4BA5
:102690001B6B03F00103BB61BB6900237B61774BBC
:1026A0001B6B764A43F001031363744B1B6B03F0FF
:1026B00001037B617B6900233B61704B1B6B6F4A9D
:1026C00043F0020313636D4B1B6B03F002033B618A
:1026D0003B690023FB60694B1B6B684A43F4800332
:1026E0001363664B1B6B03F48003FB60FB680123E1
:1026F0007B630323BB630123FB6307F134031946A8
:102700005F4802F05FFC08237B630323BB63012364
:10271000FB6307F134031946594802F053FC402388
:102720007B630323BB630123FB6307F13403194677
:10273000534802F047FC01237B630323BB6301235F
:10274000FB6307F1340319464E4802F03BFC4E4B45
:102750004E4A1A604C4B00225A604B4B00229A6042
:10276000494B0022DA60484B4FF480621A61464BB5
:102770004FF400625A61444B4FF400529A61424B4D
:102780000022DA61404B4FF480321A623E4802F078
:10279000A1F93F4B3F4A1A603D4B4FF480325A60DB
:1027A0003B4B00229A603A4B0022DA60384B012200
:1027B0001A61374B01221A76354B0422DA61344B09
:1027C000002283F82020324B00225A62304B324ADA
:1027D0009A622F4B012283F830202D4801F030FC03
:1027E0002B4B294A9A63284B294A9A6300237B6220
:1027F0000123BB620723FB6207F124031946244827
:1028000001F09AFD03237B620223BB620723FB6274
:1028100007F1240319461E4801F08EFD06237B6252
:102820000323BB620723FB6207F124031946184800
:1028300001F082FD08237B620423BB620723FB6255
:1028400007F124031946124801F076FD0322032103
:102850003C2002F0ECF83C2002F005F97A680023F5
:102860000E49094802F0E4F93B1D002219460848C8
:1028700001F034FC00BF4837BD4680BD003802403F
:102880000000024000040240A403002070640240E3
:1028900004040020002001400100000F4C200140F2
:1028A00080B483B000AF0346FB80184B1B689A6866
:1028B000164B1B6822F001029A60154B1B681A68C0
:1028C000134B1B6822F001021A60114B1B68FA8837
:1028D0005A600F4B1B681A680D4B1B6842F00102CF
:1028E0001A600A4B1B689A68084B1B6842F0010289
:1028F0009A60084B9B68074A43F08043936000BF8F
:102900000C37BD465DF8047B704700BF040400200F
:10291000A40300200020014080B400AF314B1B68AD
:102920001A46314B9A4209D9304B5B6803F02003B9
:10293000002B14BF01230023DBB228E0294B1B68C6
:102940001A462B4B9A4209D9284B1B6803F02003E7
:10295000002B14BF01230023DBB218E0214B1B68BE
:102960001A46244B9A4209D9234B5B6803F0200393
:10297000002B14BF01230023DBB208E01E4B1B68B1
:1029800003F02003002B14BF01230023DBB2002B34
:1029900023D01A4B01221A70124B1B681A46124B95
:1029A0009A4203D9114B2022DA6016E00D4B1B68C6
:1029B0001A460F4B9A4203D90C4A202393600CE02D
:1029C000084B1B681A460B4B9A4203D90A4A20232C
:1029D000D36002E0084A2023936000BFBD465DF843
:1029E000047B7047A4030020586402400064024046
:1029F000B860024058600240006002404C04002071
:102A000080B588B000AF0023BB602B4B1B6B2A4AFC
:102A100043F010031363284B1B6B03F01003BB60E0
:102A2000BB6800237B60244B1B6B234A43F01003DD
:102A30001363214B1B6B03F010037B607B68002347
:102A40003B601D4B1B6B1C4A43F0100313631A4B76
:102A50001B6B03F010033B603B680423FB60002307
:102A60003B6101237B610223BB6107F10C03194623
:102A7000124802F0A7FA0823FB6000233B61012300
:102A80007B610223BB6107F10C0319460B4802F07E
:102A900099FA1023FB6000233B6101237B61022331
:102AA000BB6107F10C031946044802F08BFA00BF22
:102AB0002037BD4680BD00BF0038024000100240F4
:102AC00080B588B000AF0023BB601F4B1B6B1E4A54
:102AD00043F0100313631C4B1B6B03F01003BB602C
:102AE000BB6800237B60184B1B6B174A43F0100335
:102AF0001363154B1B6B03F010037B607B68012392
:102B0000FB6001233B6101237B610223BB6107F171
:102B10000C0319460D4802F055FA0223FB6007F139
:102B20000C031946094802F04DFA01220121074819
:102B300002F0E4FB01220221044802F0DFFB00BFA7
:102B40002037BD4680BD00BF003802400010024063
:102B500080B500AF4FF4167014F0CEFB03461A4652
:102B60000E4B1A600D4B1B68002B03D10C4815F05F
:102B700049FD12E00B4B1B78002B0BD0074B1B6859
:102B8000184614F0C1FB074B1B781946064815F090
:102B90009DFC02E0054B01221A7080BD500400200C
:102BA00050C501085404002060C5010855040020E8
:102BB00080B500AF174918480DF076FC03461A4659
:102BC000164B1A70154B1B78042B0ED1144B1B6837
:102BD0000722114918460CF001FF03461A460F4B15
:102BE0001A70104815F00EFD11E00C4B1B78002BED
:102BF0000DD10B4B1B683322074918460CF0EEFE33
:102C000003461A46054B1A70074815F0FBFC00BF37
:102C100080BD00BF58040020B4C501085404002042
:102C200050040020D0C50108F4C5010880B500AFEC
:102C3000034B1B6818460DF015FC00BF80BD00BF9C
:102C400050040020B0B588B004AF786000233B7218
:102C500007F1080307F1090207F10A0107F10B0068
:102C600000F06CFB07F10C0307F10D0207F10E01F8
:102C700007F10F0000F082FBFB7B03F5FA61BB7BE1
:102C80001C467B7B1D46FB7ABA7A787A02900192C9
:102C900000932B4622460C4815F018FCFB7B03F5ED
:102CA000FA62BB7B1D467B7BF97AB87A7C7A039407
:102CB0000290019100932B460449786815F0F4FCCA
:102CC00000BF1037BD46B0BD18C6010848C6010890
:102CD00090B5C3B002AFB9607B600346FB73134687
:102CE000BB81344B1B7883F00103DBB2002B08D08F
:102CF000FFF72EFF2F4B1B7883F00103DBB2002B75
:102D000053D107F118031846FFF79CFF07F118038A
:102D10001846FFF797FFFB7B274A52F8232007F15D
:102D2000180307F13800254915F0BEFCBB8907F1EF
:102D3000380207F138000093BB68214915F0B4FC54
:102D400007F1380207F138007B681E4915F0ACFC2A
:102D5000FFF72EFF00237B611B4B1B78002B12D14A
:102D60001A4B1C6807F138031846FDF731FA024682
:102D700007F1140307F1380120460DF08DF80346E2
:102D80001A46114B1A707B691946114815F09EFBC3
:102D90000D4B1B7819460F4815F098FBFFF746FFBF
:102DA00079680D4815F092FB00E000BF07F58277C7
:102DB000BD4690BD550400200C00002068C60108E7
:102DC00074C6010880C60108540400205004002085
:102DD0008CC60108A4C60108C0C6010880B500AFB2
:102DE000012002F0BFFA024B01225A6100BF80BDF0
:102DF000003C014080B500AF102002F0B3FA024B56
:102E000010225A6100BF80BD003C014080B500AF78
:102E10004FF4005002F0A6FA024B4FF400525A61F0
:102E200000BF80BD003C014080B500AF202002F013
:102E300099FA024B20225A6100BF80BD003C01403C
:102E400080B500AF022002F08DFA024B02225A61D7
:102E500000BF80BD003C014080B582B000AF03469A
:102E6000FB80FB88202B47DC002B5DDD013B1F2B0B
:102E70005AD801A252F823F0012F0008212F000890
:102E8000292F0008292F0008292F0008292F0008C2
:102E9000292F0008292F0008292F0008292F0008B2
:102EA000292F0008292F0008292F0008292F0008A2
:102EB000292F0008092F0008292F0008292F0008B2
:102EC000292F0008292F0008292F0008292F000882
:102ED000292F0008292F0008292F0008292F000872
:102EE000292F0008292F0008292F0008292F000862
:102EF000292F0008192F0008B3F5005F08D013E050
:102F00000C4815F07FFB10E00B4815F07BFB0CE044
:102F10000A4815F077FB08E0094815F073FB04E058
:102F2000084815F06FFB00E000BF00BF0837BD4642
:102F300080BD00BFC8C60108E0C60108F8C6010888
:102F400010C7010830C7010880B58AB000AF002360
:102F50003B61504B1B6B4F4A43F0040313634D4BD3
:102F60001B6B03F004033B613B690023FB60494B8F
:102F70001B6B484A43F020031363464B1B6B03F063
:102F80002003FB60FB680023BB60424B1B6B414A84
:102F900043F0800313633F4B1B6B03F08003BB6064
:102FA000BB6800237B603B4B1B6B3A4A43F0020338
:102FB0001363384B1B6B03F002037B607B680023B9
:102FC0003B60344B1B6B334A43F020031363314B9C
:102FD0001B6B03F020033B603B6801237B614FF4D4
:102FE0000413BB6100233B620123FB6107F114035F
:102FF0001946294801F0E6FF10237B6107F114030D
:103000001946264801F0DEFF4FF400537B6107F1BB
:1030100014031946224801F0D5FF20237B6107F1F4
:10302000140319461D4801F0CDFF02237B6107F10F
:10303000140319461B4801F0C5FF00220021062099
:1030400001F0F5FC062001F00EFD002200210A200F
:1030500001F0EDFC0A2001F006FD002200212820ED
:1030600001F0E5FC282001F0FEFC002200210720F1
:1030700001F0DDFC072001F0F6FC00220021172002
:1030800001F0D5FC172001F0EEFC00BF2837BD464B
:1030900080BD00BF0038024000080240001402401A
:1030A000001C02400004024080B500AFFFF74CFF57
:1030B00000BF80BD80B400AF194B4FF000021A6012
:1030C000174B4FF000025A60154B4FF000029A6008
:1030D000134B4FF000029A61114B4FF00002DA617E
:1030E0000F4B4FF000021A620D4B4FF07C52DA602A
:1030F0000B4B0C4A1A610A4B4FF000025A61084B05
:10310000094A9A62064B094A5A62054B084A1A63F1
:10311000034B084ADA6200BFBD465DF8047B704786
:1031200078050020CDCC4C3D0000A0410000A0C19E
:1031300000004842000048C280B483B000AF78600D
:1031400087ED000A7B6893ED007AD7ED007A77EE81
:10315000677A7B68C3ED067A7B6893ED037A7B68B8
:10316000D3ED066A7B68D3ED077A76EEE77A27EE31
:10317000277A7B68D3ED046A7B68D3ED067A66EE26
:10318000A77A37EE277A7B68D3ED056A7B6893EDE3
:10319000066A7B68D3ED077A77EEA77A36EE676A20
:1031A0007B68D3ED087A76EE277A66EEA77A37EE5B
:1031B000277A7B68D3ED017A77EE277A7B68C3EDB7
:1031C000017A7B68DA697B681A627B689A697B6836
:1031D000DA617B6893ED017A7B68D3ED0C7AB4EE0B
:1031E000E77AF1EE10FA04DD7B681A6B7B685A60AF
:1031F0000EE07B6893ED017A7B68D3ED0B7AB4EE39
:10320000E77AF1EE10FA03D57B68DA6A7B685A60D8
:103210007B68D3ED017AFDEEE77A17EE903A184617
:103220000C37BD465DF8047B7047000080B483B066
:1032300000AF00237B60044B1B681B6800BF0C378A
:10324000BD465DF8047B7047AC05002080B582B0B8
:1032500000AF7860396003F001FE3A68796803488E
:1032600004F026FF00BF0837BD4680BDF0050020F2
:1032700080B485B000AF78600023FB607B6803F109
:10328000805303F614239B00FB60FB681B68184601
:103290001437BD465DF8047B7047000090B589B0D7
:1032A00000AF0446084611461A462346FB71034602
:1032B000BB710B467B7113463B71FB793B73BB794A
:1032C0007B737B79BB733B79FB730023BB6100236A
:1032D000FB6107F10C0300221946044804F0DDFBF2
:1032E000034618462437BD4690BD00BFF0050020B8
:1032F00090B585B000AF0446084611461A462346ED
:10330000FB710346BB710B467B7113463B717B79A6
:10331000BB73BB797B733B793B73FB79FB7307F121
:103320000C0300221946044804F0D2FC0346184658
:103330001437BD4690BD00BFF005002080B58AB0AF
:1033400000AFF860B9607A603B6007F114030022B7
:103350001946094804F05EFC3A7DFB681A707A7DD4
:10336000BB681A70BA7D7B681A70FA7D3B681A7068
:1033700000BF2837BD4680BDF005002080B586B06F
:1033800000AFF860B9607A603B6007F11403002277
:103390001946094804F043FDFA7DFB681A707A7DEE
:1033A000BB681A70BA7D7B681A703A7D3B681A70E8
:1033B00000BF1837BD4680BDF005002080B582B043
:1033C00000AF0023FB801E4B1E4A1A601C4B0022DC
:1033D0005A601B4B7F229A60194BFF22DA60184B10
:1033E00000221A61164B00225A61154B00229A6185
:1033F0000020FFF73DFF0346FB80114804F0BCFAB4
:103400000346002B01D0012316E0FB8845F2500251
:10341000934210D0FB8845F2510293420BD0002317
:1034200038223B211720FFF739FF07230D22012106
:103430001420FFF75DFF002318460837BD4680BD06
:10344000F00500200028004080B594B000AF7860FF
:10345000C823A7F84E30364B01221A6003F0FEFC59
:103460000023BB60334B1B6C324A43F08053136420
:10347000304B1B6C03F08053BB60BB682D4B1B6F44
:103480002C4A43F00103136707E0B7F84E30013BC5
:10349000A7F84E30052008F01DF8B7F84E30002B85
:1034A00005D0244B1B6F03F00203002BEDD0B7F8BF
:1034B0004E30002B1AD10823FB6100237B630123CC
:1034C0003B6307F11C03184603F0DCFC0223FB609E
:1034D0004FF40073BB6107F10C03184604F06AF95E
:1034E00045F251010020FFF7B1FE19E00423FB6112
:1034F00000237B6301237B6207F11C03184603F062
:10350000C1FC0223FB604FF48073BB6107F10C0325
:10351000184604F04FF945F250010020FFF796FEDF
:10352000034B01221A6000BF5037BD4680BD00BF6B
:103530003C0E47420038024080B500AF024804F01C
:10354000BDFC00BF80BD00BFF005002080B582B08B
:1035500000AF7860034815F055F800BF0837BD4646
:1035600080BD00BF4CC7010880B500AF024804F021
:103570007BFD00BF80BD00BFF005002080B582B09C
:1035800000AF78600221034801F0D1FE00BF083788
:10359000BD4680BD0010024080B590B000AF03462C
:1035A0000A46FB801346BB800023BB62614B1B6B4A
:1035B000604A43F0200313635E4B1B6B03F0200350
:1035C000BB62BB6A00237B625A4B1B6B594A43F0B8
:1035D00020031363574B1B6B03F020037B627B6A52
:1035E00000233B62534B1B6B524A43F002031363AD
:1035F000504B1B6B03F002033B623B6A0023FB61F1
:103600004C4B1B6B4B4A43F080031363494B1B6BC2
:1036100003F08003FB61FB690023BB61454B1B6B1F
:10362000444A43F020031363424B1B6B03F0200317
:10363000BB61BB6900237B613E4B1B6B3D4A43F082
:10364000200313633B4B1B6B03F020037B617B69FF
:1036500000233B61374B1B6B364A43F02003136357
:10366000344B1B6B03F020033B613B690023FB6081
:10367000304B1B6B2F4A43F0800313632D4B1B6BA6
:1036800003F08003FB60FB684FF48043FB6201237F
:103690003B6302237B630023BB6307F12C031946C2
:1036A000254801F08FFC4FF48053FB6207F12C0397
:1036B0001946214801F086FC0423FB6207F12C0324
:1036C00019461E4801F07EFC0423FB6207F12C031F
:1036D00019461B4801F076FC4FF40043FB6207F1EA
:1036E0002C031946144801F06DFC4FF40053FB62A3
:1036F00007F12C031946104801F064FC4FF40063F5
:10370000FB6207F12C0319460B4801F05BFC082310
:10371000FB6207F12C031946094801F053FCBA88F3
:10372000FB881146184600F0E7FA00BF4037BD4657
:1037300080BD00BF00380240001402400004024077
:10374000001C024080B582B000AF0346FB71FB79DC
:10375000013B032B5ED801A252F823F06D3700081D
:1037600097370008C1370008EB370008304B1B685B
:10377000602B03D02E4B1B68702B03D100212D48EA
:1037800005F006F82A4B1B68302B45D1002129484B
:1037900004F040FF40E0264B1B68602B03D0244B15
:1037A0001B68702B03D10421224804F0F1FF204B49
:1037B0001B68302B32D104211E4804F02BFF2DE072
:1037C0001B4B1B68602B03D0194B1B68702B03D15C
:1037D0000821184804F0DCFF154B1B68302B1FD163
:1037E0000821144804F016FF1AE0114B1B68602BE7
:1037F00003D00F4B1B68702B03D10C210D4804F034
:10380000C7FF0B4B1B68302B0CD10C21094804F06F
:1038100001FF07E000BF06E000BF04E000BF02E0D8
:1038200000BF00E000BF00BF0837BD4680BD00BF3D
:1038300040070020F806002080B586B000AF0346A0
:103840000A46FB711346BB804FF000037B610023E7
:10385000FB60BB88002B2CD10021314804F0DAFE3C
:10386000304B00221A80304B1B68002B54D12F4B59
:103870001B7CDBB2002B4FD02B4B01221A60112393
:103880003B612A4B00221A74294B186807F10C027D
:1038900007F1100100230DF07DFEFB68002B3BD0EB
:1038A000244B4FF080521A60BFF34F8FBFF36F8FDE
:1038B00032E01D4B00221A60FB79012B06D1012258
:1038C0004FF480411C4801F019FD05E000224FF43F
:1038D0008041194801F012FDBB8807EE903AF8EEDE
:1038E000E77A9FED167A27EE877AF3EE046AC6EE42
:1038F000877AC7ED057AD7ED057A9FED117A67EEE5
:10390000877AFCEEE77A17EE903A9AB2054B1A8066
:103910000021034804F068FD00BF1837BD4680BD94
:10392000F8060020240000202406002010060020B5
:103930009803002004ED00E000140240CDCC4C3F81
:103940000000FA4380B500AF024805F0C5F800BF9B
:1039500080BD00BF2806002080B582B000AF0346BE
:103960000A46FB801346BB800E4B0F4A1A60BB8889
:103970000C4A53600B4B00229A60FB88094AD360C3
:10398000084B00221A61074804F0B6FB054804F012
:103990006BFC044B1B686FF001021A6100BF083713
:1039A000BD4680BD280600200010004080B584B0D0
:1039B00000AF78607B681B680E4A934215D10023E4
:1039C000FB600D4B1B6C0C4A43F0100313640A4B55
:1039D0001B6C03F01003FB60FB68002205213620FE
:1039E00001F025F8362001F03EF800BF1037BD4643
:1039F00080BD00BF001000400038024080B500AF1D
:103A0000024805F069F800BF80BD00BF70060020C5
:103A100080B582B000AF03460A46FB801346BB80E8
:103A2000234B244A1A60BB88214A5360204B002252
:103A30009A60FB881E4AD3601D4B00221A611E4B00
:103A400003221A601C4B00225A601B4B01229A6011
:103A5000194B0022DA60184B0A221A61164B002219
:103A60005A61154B01229A61134B0022DA61124B05
:103A70000A221A6210490E4804F0FAFE00210C488E
:103A800004F09CFF04210A4804F098FF084B1B68CF
:103A90006FF001021A61064B1B68DA68044B1B6861
:103AA00042F00102DA6000BF0837BD4680BD00BFAA
:103AB0007006002000040040B806002080B58CB0DD
:103AC00000AF78607B681B68334A93425FD1002364
:103AD000BB61324B1B6B314A43F0040313632F4B22
:103AE0001B6B03F00403BB61BB6900237B612B4BA1
:103AF0001B6B2A4A43F004031363284B1B6B03F030
:103B000004037B617B6900233B61244B1B6C234ACC
:103B100043F002031364214B1B6C03F002033B616F
:103B20003B690023FB601D4B1B6C1C4A43F00203E6
:103B300013641A4B1B6C03F00203FB60FB68402309
:103B4000FB6102233B6200237B620023BB620223F2
:103B5000FB6207F11C031946114801F033FA802378
:103B6000FB6102233B6200237B620023BB620223D2
:103B7000FB6207F11C031946094801F023FA0022F1
:103B80000F211D2000F053FF1D2000F06CFF00BF2F
:103B90003037BD4680BD00BF000400400038024001
:103BA0000008024080B400AF054B1B685B6A054A01
:103BB0001269120413441846BD465DF8047B704731
:103BC00070060020DC06002080B582B000AF78606F
:103BD0007B681B68404A934210D1404B1B681B68AE
:103BE00003F01003102B02D14FF0FF3200E001224E
:103BF0003B4B1B6913443A4A136169E07B681B68BD
:103C0000384A934264D1FFF7CDFF0346344A5360EC
:103C1000354B1B88142B55D1314B5A68304B1B68E0
:103C2000D31A2F4A93602E4B5B682D4A13602C4B9E
:103C30001B7D002B43D0FFF7B5FF03462B4AD36013
:103C40002A4BDB6807EE903AF8EEE77AB0EE670AA7
:103C50002748FFF771FA0346214AD360204BDB68FF
:103C6000002B03D0234B00221A700CE0214B1B7851
:103C700083F00103DBB2002B05D01E4B01221A702A
:103C80000120FFF75FFD164BDB68002B03DD174BB0
:103C900001225A7002E0154B00225A70104BDB686B
:103CA000002BB8BF5B420E4AD360104B5B78DBB28F
:103CB0000B4AD26892B211461846FFF7BDFD0A4B77
:103CC00000221A80084B1B8801339AB2064B1A80D7
:103CD00000BF0837BD4680BD0004004070060020CC
:103CE000DC06002000100040F40600201006002032
:103CF00078050020F606002080B584B000AF0346AA
:103D00000A46FB801346BB800023FB60294B5B6C9B
:103D1000284A43F002035364264B5B6C03F0020312
:103D2000FB60FB68244B254A1A60BB88224A53601B
:103D3000214B00229A60FB881F4AD3601E4B002251
:103D40001A611D4B00229A611B4B00225A611A48CE
:103D500004F0FAFA1A4B30221A60194B00225A600A
:103D6000174B00229A60164B0822DA60144B00228F
:103D70001A61134B00225A61114B00229A610422EE
:103D80000F490D4804F0B0FF00220D490A4804F025
:103D9000ABFF08220A49084804F0A6FF0C22084994
:103DA000054804F0A1FF044804F0F6F900BF1037FD
:103DB000BD4680BD00380240F806002000040140E6
:103DC0004007002080B58CB000AF78607B681B682E
:103DD0003E4A934276D10023BB613D4B5B6C3C4A2B
:103DE00043F0020353643A4B5B6C03F00203BB6184
:103DF000BB6900237B61364B1B6B354A43F48073F0
:103E00001363334B1B6B03F480737B617B6900236B
:103E10003B612F4B1B6B2E4A43F4807313632C4B77
:103E20001B6B03F480733B613B690023FB60284BF1
:103E30001B6B274A43F480731363254B1B6B03F4FE
:103E40008073FB60FB680023BB60214B1B6B204A27
:103E500043F0040313631E4B1B6B03F00403BB60AE
:103E6000BB682023FB6102233B6201237B620223A8
:103E7000BB620323FB6207F11C031946154801F0DE
:103E8000A1F84023FB6107F11C031946114801F01A
:103E900099F88023FB6107F11C0319460D4801F0D6
:103EA00091F84FF40073FB6107F11C0319460A48AF
:103EB00001F088F8002207212E2000F0B8FD2E2006
:103EC00000F0D1FD00BF3037BD4680BD0004014089
:103ED00000380240002002400008024080B500AFD8
:103EE000024804F0F9FD00BF80BD00BFF8060020C5
:103EF00080B485B000AF78600023FB600023BB6016
:103F00007B681B680C4A93420FD10C4B1B685B6AA1
:103F1000FB600B4B1B889BB21A46FB6813449BB299
:103F2000BB60064B1B68BA685A6300BF1437BD46B6
:103F30005DF8047B704700BF00040140F8060020D4
:103F40002400002080B500AF0E4B1B680D4A43F4DF
:103F5000007313600B4B1B680A4A43F480631360C1
:103F6000084B1B68074A43F480731360032000F07A
:103F700053FD0F2000F008F8FDF79AF800231846CB
:103F800080BD00BF003C024080B582B000AF7860C9
:103F9000124B1A68124B1B7819464FF47A73B3FB15
:103FA000F1F3B2FBF3F3184600F06BFD0346002B70
:103FB00001D001230EE07B680F2B0AD8002279681C
:103FC0004FF0FF3000F033FD064A7B68136000239A
:103FD00000E0012318460837BD4680BD00000020E0
:103FE0002C0000202800002080B400AF064B1B7876
:103FF0001A46064B1B681344044A136000BFBD46B3
:104000005DF8047B704700BF2C0000205C07002097
:1040100080B400AF034B1B681846BD465DF8047BB7
:10402000704700BF5C07002080B400AF034B1B68E3
:104030001B0C1846BD465DF8047B7047002004E069
:1040400080B584B000AF78600023FB737B68002BE1
:1040500001D1012333E07B681B6C002B09D1786808
:1040600000F031F87B6800225A647B68002283F8F4
:104070003C207B681B6C03F01003002B18D17B687D
:104080001B6C23F4885323F0020343F002027B6885
:104090001A64786800F072FA7B6800225A647B68C0
:1040A0001B6C23F0030343F001027B681A6401E0F8
:1040B0000123FB737B68002283F83C20FB7B1846BE
:1040C0001037BD4680BD80B483B000AF786000BFBC
:1040D0000C37BD465DF8047B7047000080B586B0A4
:1040E00000AFF860B9607A6000233B61FB6893F829
:1040F0003C30012B01D10223E9E0FB68012283F867
:104100003C20FB681B689B6803F00103012B18D05F
:10411000FB681B689A68FB681B6842F001029A60A2
:104120006D4B1B686D4AA2FB03239A0C13465B0080
:1041300013443B6102E03B69013B3B613B69002B5F
:10414000F9D1FB681B689B6803F48073B3F5807F2B
:1041500007D1FB681B689A68FB681B6822F48072B1
:104160009A60FB681B689B6803F00103012B40F019
:10417000A180FB681B6C23F4E06323F0010343F48C
:104180008072FB681A64FB681B685B6803F48063D9
:10419000002B07D0FB681B6C23F4405343F4805280
:1041A000FB681A64FB681B6C03F48053B3F5805FF3
:1041B00006D1FB685B6C23F00602FB685A6402E0E0
:1041C000FB6800225A64FB68002283F83C20444BC1
:1041D0007B61FB689B6B434ADA63FB689B6B424ADB
:1041E0001A64FB689B6B414ADA64FB681B686FF0DA
:1041F00022021A60FB681B685A68FB681B6842F061
:1042000080625A60FB681B689A68FB681B6842F40E
:1042100080729A60FB68986BFB681B684C33194688
:10422000BA687B6800F004FD7B695B6803F01F03DC
:10423000002B2AD1FB681B682D4A934215D0FB68DE
:104240001B682C4A934205D1254B5B6803F01F0382
:10425000002B0AD0FB681B68274A934236D1204BBB
:104260005B6803F01003002B30D1FB681B689B6870
:1042700003F04053002B29D1FB681B689A68FB6848
:104280001B6842F080429A6020E0FB681B68184A75
:1042900093421BD1FB681B689B6803F04053002BC3
:1042A00014D1FB681B689A68FB681B6842F0804267
:1042B0009A600BE0FB681B6C43F01002FB681A6409
:1042C000FB685B6C43F00102FB685A6400231846EC
:1042D0001837BD4680BD00BF0000002083DE1B43B1
:1042E00000230140754700082F4800084B4800088C
:1042F00000200140002101400022014080B483B031
:1043000000AF786000BF0C37BD465DF8047B704796
:1043100080B483B000AF786000BF0C37BD465DF855
:10432000047B704780B483B000AF786000BF0C3767
:10433000BD465DF8047B704780B485B000AF7860FF
:1043400039600023BB607B6893F83C30012B01D1BE
:10435000022305E17B68012283F83C203B681B684F
:10436000092B25D97B681B68D9683B681B689BB201
:104370001A4613465B0013441E3B072202FA03F35E
:10438000DA437B681B680A40DA607B681B68D9687F
:104390003B689A683B681B689BB2184603465B0003
:1043A00003441E3B9A407B681B680A43DA6022E0A4
:1043B0007B681B6819693B681B689BB21A461346E9
:1043C0005B001344072202FA03F3DA437B681B689D
:1043D0000A401A617B681B6819693B689A683B68E8
:1043E0001B689BB2184603465B0003449A407B68F7
:1043F0001B680A431A613B685B68062B24D87B68FC
:104400001B68596B3B685A6813469B001344053B75
:104410001F2202FA03F3DA437B681B680A405A63DF
:104420007B681B68596B3B681B689BB218463B68EE
:104430005A6813469B001344053B00FA03F27B685D
:104440001B680A435A634CE03B685B680C2B24D81A
:104450007B681B68196B3B685A6813469B001344C2
:10446000233B1F2202FA03F3DA437B681B680A40EE
:104470001A637B681B68196B3B681B689BB2184604
:104480003B685A6813469B001344233B00FA03F22F
:104490007B681B680A431A6323E07B681B68D96A40
:1044A0003B685A6813469B001344413B1F2202FAA3
:1044B00003F3DA437B681B680A40DA627B681B6897
:1044C000D96A3B681B689BB218463B685A6813461A
:1044D0009B001344413B00FA03F27B681B680A43CC
:1044E000DA62224BFB607B681B68214A934209D148
:1044F0003B681B68122B05D1FB685B6843F48002A4
:10450000FB685A607B681B68194A934223D13B6859
:104510001B68102B03D03B681B68112B1BD1FB6859
:104520005B6843F40002FB685A603B681B68102B11
:1045300011D1104B1B68104AA2FB03239A0C13469F
:104540009B0013445B00BB6002E0BB68013BBB60A7
:10455000BB68002BF9D17B68002283F83C20002344
:1045600018461437BD465DF8047B704700230140B0
:10457000002001400000002083DE1B4380B485B092
:1045800000AF7860794BFB60FB685B6823F44032D6
:10459000FB685A60FB685A687B685B681A43FB6873
:1045A0005A607B681B685A687B681B6822F48072BB
:1045B0005A607B681B6859687B681B691A027B68B4
:1045C0001B680A435A607B681B685A687B681B68D3
:1045D00022F040725A607B681B6859687B689A6851
:1045E0007B681B680A435A607B681B689A687B6813
:1045F0001B6822F400629A607B681B6899687B687C
:10460000DA687B681B680A439A607B689B6A584A31
:10461000934222D07B681B689A687B681B6822F0F3
:1046200070629A607B681B6899687B689A6A7B688D
:104630001B680A439A607B681B689A687B681B68E2
:1046400022F040529A607B681B6899687B68DA6A3E
:104650007B681B680A439A600FE07B681B689A6856
:104660007B681B6822F070629A607B681B689A689E
:104670007B681B6822F040529A607B681B689A68CE
:104680007B681B6822F002029A607B681B6899684D
:104690007B681B7E5A007B681B680A439A607B68B4
:1046A00093F82030002B1BD07B681B685A687B680E
:1046B0001B6842F400625A607B681B685A687B681A
:1046C0001B6822F460425A607B681B6859687B68EB
:1046D0005B6A013B5A037B681B680A435A6007E028
:1046E0007B681B685A687B681B6822F400625A600A
:1046F0007B681B68DA6A7B681B6822F47002DA62E6
:104700007B681B68D96A7B68DB69013B1A057B689B
:104710001B680A43DA627B681B689A687B681B68BF
:1047200022F400729A607B681B6899687B6893F832
:1047300030305A027B681B680A439A607B681B68AA
:104740009A687B681B6822F480629A607B681B68A9
:1047500099687B685B699A027B681B680A439A6068
:1047600000BF1437BD465DF8047B7047002301404D
:104770000100000F80B584B000AF78607B689B6B50
:10478000FB60FB681B6C03F05003002B3CD1FB6803
:104790001B6C43F40072FB681A64FB681B689B681F
:1047A00003F04053002B2BD1FB681B7E002B27D13D
:1047B000FB681B68DB6A03F47003002B06D0FB6800
:1047C0001B689B6803F48063002B19D1FB681B688E
:1047D0005A68FB681B6822F020025A60FB681B6C59
:1047E00023F48072FB681A64FB681B6C03F480532B
:1047F000002B05D1FB681B6C43F00102FB681A64B7
:10480000F868FFF77BFD0EE0FB681B6C03F01003FC
:10481000002B03D0F868FFF785FD04E0FB689B6B75
:10482000DB6C7868984700BF1037BD4680BD80B507
:1048300084B000AF78607B689B6BFB60F868FFF723
:1048400067FD00BF1037BD4680BD80B584B000AFA6
:1048500078607B689B6BFB60FB6840221A64FB6896
:104860005B6C43F00402FB685A64F868FFF75AFD7A
:1048700000BF1037BD4680BD80B485B000AF786002
:104880007B6803F00703FB600C4BDB68BB60BA6816
:104890004FF6FF031340BB60FB681A02BB6813436B
:1048A00043F0BF6343F40033BB60044ABB68D3608A
:1048B00000BF1437BD465DF8047B704700ED00E093
:1048C00080B400AF044BDB681B0A03F007031846F3
:1048D000BD465DF8047B704700ED00E080B483B016
:1048E00000AF0346FB7197F90730002B0BDBFB7918
:1048F00003F01F02074997F907305B09012000FA0E
:1049000002F241F8232000BF0C37BD465DF8047B5E
:10491000704700BF00E100E080B483B000AF034601
:104920003960FB7197F90730002B0ADB3B68DAB27C
:104930000C4997F907301201D2B20B4483F80023D7
:104940000AE03B68DAB20849FB7903F00F03043B45
:104950001201D2B20B441A7600BF0C37BD465DF887
:10496000047B704700E100E000ED00E080B489B016
:1049700000AFF860B9607A60FB6803F00703FB6181
:10498000FB69C3F10703042B28BF0423BB61FB6948
:104990000433062B02D9FB69033B00E000237B6153
:1049A0004FF0FF32BB6902FA03F3DA43BB681A40E7
:1049B0007B699A404FF0FF317B6901FA03F3D943D9
:1049C0007B680B40134318462437BD465DF8047BD3
:1049D0007047000080B582B000AF78607B68013B13
:1049E000B3F1807F01D301230FE00A4A7B68013BCA
:1049F00053600F214FF0FF30FFF78EFF054B002271
:104A00009A60044B07221A60002318460837BD46F7
:104A100080BD00BF10E000E080B582B000AF7860DC
:104A20007868FFF729FF00BF0837BD4680BD80B515
:104A300086B000AF0346B9607A60FB7300237B61E8
:104A4000FFF73EFF78617A68B9687869FFF78EFFF3
:104A5000024697F90F3011461846FFF75DFF00BF79
:104A60001837BD4680BD80B582B000AF0346FB71EC
:104A700097F907301846FFF731FF00BF0837BD46EA
:104A800080BD80B582B000AF78607868FFF7A2FF84
:104A9000034618460837BD4680BD000080B483B089
:104AA00000AF78607B68042B06D1094B1B68084A6D
:104AB00043F00403136005E0054B1B68044A23F030
:104AC0000403136000BF0C37BD465DF8047B7047DC
:104AD00010E000E080B586B000AF786000237B6115
:104AE000FFF796FA38617B68002B01D1012399E02A
:104AF0007B68022283F835207B68002283F834200B
:104B00007B681B681A687B681B6822F001021A60C8
:104B10000FE0FFF77DFA02463B69D31A052B08D94F
:104B20007B6820225A657B68032283F835200323A3
:104B300078E07B681B681B6803F00103002BE8D159
:104B40007B681B681B687B617A69384B13407B610B
:104B50007B685A687B689B681A437B68DB681A43EA
:104B60007B681B691A437B685B691A437B689B6996
:104B70001A437B68DB691A437B681B6A13437A69B3
:104B800013437B617B685B6A042B07D17B68DA6A1D
:104B90007B681B6B13437A6913437B617B681B68DB
:104BA0007A691A607B681B685B697B617B6923F0AB
:104BB00007037B617B685B6A7A6913437B617B686F
:104BC0005B6A042B17D17B689B6A7A6913437B610C
:104BD0007B68DB6A002B0ED0786800F077F903461B
:104BE000002B08D07B6840225A657B68012283F83D
:104BF0003520012316E07B681B687A695A61786862
:104C000000F02EF90346FB607B68DB6D3F229A4083
:104C1000FB689A607B6800225A657B68012283F8F2
:104C20003520002318461837BD4680BD3F8010F060
:104C300080B586B000AFF860B9607A603B60002351
:104C4000FB75FB689B6D3B61FB6893F83430012B6F
:104C500001D1022340E0FB68012283F83420FB6885
:104C600093F83530DBB2012B2FD1FB68022283F899
:104C70003520FB6800225A653B687A68B968F86895
:104C800000F0C0F8FB68DB6D3F229A403B699A60F8
:104C9000FB681B681A68FB681B6842F016021A6002
:104CA000FB681B6C002B07D0FB681B681A68FB684D
:104CB0001B6842F008021A60FB681B681A68FB68F0
:104CC0001B6842F001021A6005E0FB68002283F8CD
:104CD00034200223FB75FB7D18461837BD4680BD86
:104CE00080B584B000AF78607B689B6DFB60FFF798
:104CF0008FF9B8607B6893F83530DBB2022B08D0AF
:104D00007B6880225A657B68002283F83420012367
:104D100052E07B681B681A687B681B6822F01602E9
:104D20001A607B681B685A697B681B6822F08002E6
:104D30005A617B681B6C002B03D17B689B6C002B3A
:104D400007D07B681B681A687B681B6822F0080222
:104D50001A607B681B681A687B681B6822F0010276
:104D60001A6013E0FFF754F90246BB68D31A052B0B
:104D70000CD97B6820225A657B68032283F8352092
:104D80007B68002283F83420032315E07B681B68CE
:104D90001B6803F00103002BE4D17B68DB6D3F222D
:104DA0009A40FB689A607B68012283F835207B6813
:104DB000002283F83420002318461037BD4680BDFA
:104DC00080B483B000AF78607B6893F83530DBB295
:104DD000022B04D07B6880225A6501230CE07B689B
:104DE000052283F835207B681B681A687B681B687E
:104DF00022F001021A60002318460C37BD465DF808
:104E0000047B704780B485B000AFF860B9607A6009
:104E10003B60FB681B681A68FB681B6822F48022F1
:104E20001A60FB681B683A685A60FB689B68402BF5
:104E300008D1FB681B687A689A60FB681B68BA68CF
:104E4000DA6007E0FB681B68BA689A60FB681B6859
:104E50007A68DA6000BF1437BD465DF8047B70479E
:104E600080B485B000AF78607B681B68DBB2103B14
:104E7000144AA2FB03231B09FB60134AFB6813447B
:104E80001B781A467B68DA65FB68032B09D97B68B7
:104E90001B6823F47F7323F003031A1D7B689A6554
:104EA00007E07B681B6823F47F7323F003037A68B1
:104EB00093657B689B6D18461437BD465DF8047B8F
:104EC000704700BFABAAAAAAA4CF010880B485B0DE
:104ED00000AF78600023FB737B689B6ABB607B68D4
:104EE0009B69002B1FD1BB68032B56D801A252F837
:104EF00023F000BF054F0008174F0008054F0008BA
:104F00009B4F00087B68DB6A03F08073002B46D060
:104F10000123FB7343E07B68DB6AB3F1C07F40D1C0
:104F20000123FB733DE07B689B69B3F5005F21D1F2
:104F3000BB68032B37D801A252F823F04D4F00086D
:104F4000534F00084D4F0008654F00080123FB73C5
:104F500030E07B68DB6A03F08073002B25D00123EF
:104F6000FB7322E07B68DB6AB3F1C07F1FD10123B2
:104F7000FB731CE0BB68022B03D9BB68032B03D077
:104F800018E00123FB7315E07B68DB6A03F0807394
:104F9000002B0ED00123FB730BE000BF0AE000BF23
:104FA00008E000BF06E000BF04E000BF02E000BF71
:104FB00000E000BFFB7B18461437BD465DF8047B5C
:104FC000704700BF80B489B000AF786039600023BB
:104FD0007B6100233B610023BB610023FB616BE12C
:104FE0000122FB6902FA03F37B613B681B687A6963
:104FF00013403B613A697B699A4240F05A813B68B1
:105000005B6803F00303012B05D03B685B6803F08A
:105010000303022B30D17B689B68BB61FB695B009B
:10502000032202FA03F3DB43BA691340BB613B6816
:10503000DA68FB695B0002FA03F3BA691343BB61E8
:105040007B68BA699A607B685B68BB610122FB6917
:1050500002FA03F3DB43BA691340BB613B685B6848
:105060001B0903F00102FB6902FA03F3BA69134357
:10507000BB617B68BA695A603B685B6803F00303F5
:10508000032B17D07B68DB68BB61FB695B000322E5
:1050900002FA03F3DB43BA691340BB613B689A68C9
:1050A000FB695B0002FA03F3BA691343BB617B68D7
:1050B000BA69DA603B685B6803F00303022B23D113
:1050C000FB69DA087B68083253F82230BB61FB6960
:1050D00003F007039B000F2202FA03F3DB43BA69D4
:1050E0001340BB613B681A69FB6903F007039B002F
:1050F00002FA03F3BA691343BB61FB69DA087B6800
:105100000832B96943F822107B681B68BB61FB69F0
:105110005B00032202FA03F3DB43BA691340BB616D
:105120003B685B6803F00302FB695B0002FA03F370
:10513000BA691343BB617B68BA691A603B685B68F4
:1051400003F44033002B00F0B4800023FB60604B7D
:105150005B6C5F4A43F4804353645D4B5B6C03F4C8
:105160008043FB60FB685B4AFB699B08023352F893
:105170002330BB61FB6903F003039B000F2202FA9B
:1051800003F3DB43BA691340BB617B68524A934225
:105190002BD07B68514A934225D07B68504A93427A
:1051A0001FD07B684F4A934219D07B684E4A934286
:1051B00013D07B684D4A93420DD07B684C4A934292
:1051C00007D07B684B4A934201D107230EE00823A6
:1051D0000CE006230AE0052308E0042306E003238D
:1051E00004E0022302E0012300E00023FA6902F058
:1051F000030292009340BA691343BB613549FB69CE
:105200009B080233BA6941F823203B4B9B68BB6182
:105210003B69DB43BA691340BB613B685B6803F4DD
:105220008013002B03D0BA693B691343BB61324A38
:10523000BB699360304BDB68BB613B69DB43BA6998
:105240001340BB613B685B6803F40013002B03D081
:10525000BA693B691343BB61274ABB69D360264BDC
:105260005B68BB613B69DB43BA691340BB613B6868
:105270005B6803F40033002B03D0BA693B69134326
:10528000BB611D4ABB6953601B4B1B68BB613B691B
:10529000DB43BA691340BB613B685B6803F480334E
:1052A000002B03D0BA693B691343BB61124ABB6947
:1052B0001360FB690133FB61FB690F2B7FF690AE36
:1052C00000BF00BF2437BD465DF8047B704700BFB8
:1052D0000038024000380140000002400004024053
:1052E00000080240000C024000100240001402407E
:1052F00000180240001C0240003C014080B483B012
:1053000000AF78600B467B8013467B707B78002B68
:1053100003D07A887B689A6103E07B881A047B68F3
:105320009A6100BF0C37BD465DF8047B704780B4BE
:1053300085B000AF78600B467B807B685B69FB6063
:105340007A88FB6813401A04FB68D9437B880B40BA
:105350001A437B689A6100BF1437BD465DF8047B31
:105360007047000080B582B000AF0346FB80084B59
:105370005A69FB881340002B06D0054AFB8853610D
:10538000FB881846FDF768FD00BF0837BD4680BDA5
:10539000003C0140F0B58FB00AAF78607B68002B0D
:1053A00001D1012354E07B681B68FB607B6893F8A4
:1053B000F932DBB2002B06D17B68002283F8F82299
:1053C00078680EF053FC7B68032283F8F922FB68AF
:1053D000DB6B03F48073002B02D17B6800221A611F
:1053E0007B681B68184605F02BF97B681B683B60DF
:1053F0007E686D4606F110040FCC0FC50FCC0FC5AB
:1054000094E8030085E80300331D0ECB386805F0EF
:10541000A5F87B681B680121184605F022F97B6816
:105420001B683B607E686D4606F110040FCC0FC50B
:105430000FCC0FC594E8030085E80300331D0ECBA5
:10544000386805F035FA7B68012283F8F9220023D9
:1054500018461437BD46F0BD90B589B004AF7860EA
:10546000084611461A460346FB700B46BB701346AE
:105470007B707B6893F8F832012B01D1022376E030
:105480007B68012283F8F822FB787A682C2101FBE3
:1054900003F313443D3300221A70FB787A682C2101
:1054A00001FB03F3134438337A781A70FB787A6877
:1054B0002C2101FB03F3134440333A8D1A80FB780F
:1054C0007A682C2101FB03F313443933FA781A70FC
:1054D000FB787A682C2101FB03F313443F3397F8E0
:1054E00024201A70FB78BA7802F07F02D0B27A6872
:1054F0002C2101FB03F313443A3302461A7097F947
:105500000230002B09DAFB787A682C2101FB03F3C7
:1055100013443B3301221A7008E0FB787A682C218F
:1055200001FB03F313443B3300221A70FB787A68C3
:105530002C2101FB03F313443C3397F820201A700D
:105540007B6818687C78BA78F9783B8D029397F875
:105550002430019397F820300093234605F02AFB6E
:105560000346FB737B68002283F8F822FB7B184616
:105570001437BD4690BD80B584B000AF78600B464F
:10558000FB700023FB737B6893F8F832012B01D189
:1055900002230FE07B68012283F8F8227B681B68F6
:1055A000FA781146184605F066FD7B68002283F8FC
:1055B000F822FB7B18461037BD4680BD80B582B00F
:1055C00000AF7860084611461A460346FB700B464A
:1055D000BB7013467B70FB787A682C2101FB03F3C8
:1055E00013443B33BA781A70FB787A682C2101FB9C
:1055F00003F313443F337A781A703B7C002B12D1AB
:10560000FB787A682C2101FB03F313444233032215
:105610001A70FB787A682C2101FB03F313443D33A5
:105620003A7F1A7008E0FB787A682C2101FB03F3BB
:105630001344423302221A707B78032B00F2C68097
:1056400001A252F823F000BF59560008B9570008CC
:10565000BD5600083B5700083B7C012B40F0B8804A
:10566000BB78002B40F0B4803B8B002B08D1FB783B
:105670007A682C2101FB03F31344553301221A707D
:10568000FB787A682C2101FB03F3134455331B7814
:10569000002B09D1FB787A682C2101FB03F313441A
:1056A000423300221A7093E0FB787A682C2101FBC8
:1056B00003F31344423302221A7089E0BB78002BB3
:1056C0001DD1FB787A682C2101FB03F31344553379
:1056D0001B78002B09D1FB787A682C2101FB03F39E
:1056E0001344423300221A7073E0FB787A682C214D
:1056F00001FB03F31344423302221A7069E0FB7882
:105700007A682C2101FB03F3134454331B78002BDC
:1057100009D1FB787A682C2101FB03F3134442334F
:1057200000221A7055E0FB787A682C2101FB03F304
:105730001344423302221A704BE0BB78002B1DD178
:10574000FB787A682C2101FB03F3134455331B7853
:10575000002B09D1FB787A682C2101FB03F3134459
:10576000423300221A7034E0FB787A682C2101FB66
:1057700003F31344423302221A702AE0FB787A685A
:105780002C2101FB03F3134454331B78002B09D164
:10579000FB787A682C2101FB03F313444233002287
:1057A0001A7016E0FB787A682C2101FB03F313448E
:1057B000423302221A700CE0FB787A682C2101FB3C
:1057C00003F31344423300221A7002E000BF00E0EA
:1057D00000BFFB787A682C2101FB03F313444433A8
:1057E0007A691A60FB783A8B79682C2000FB03F306
:1057F0000B444C331A60FB787A682C2101FB03F3CD
:105800001344603300221A70FB787A682C2101FB64
:1058100003F31344503300221A60FB787A682C217A
:1058200001FB03F313443933FA781A70FB787A6872
:105830002C2101FB03F31344613300221A707B68AF
:105840001868FB782C2202FB03F338337A68D118EE
:105850007B681B69DBB21A4605F0BAFA03461846A4
:105860000837BD4680BD00BF80B586B000AF786008
:105870007B681B683B613B69FB607B681B68184663
:1058800004F0D3FF0346012B40F0EF807B681B68D8
:10589000184604F0B7FF0346002B00F0E5807B6854
:1058A0001B68184604F0AEFF034603F40013B3F57B
:1058B000001F04D17B681B684FF400125A617B689B
:1058C0001B68184604F09EFF034603F48013B3F5EB
:1058D000801F04D17B681B684FF480125A617B687B
:1058E0001B68184604F08EFF034603F08063B3F193
:1058F000806F04D17B681B684FF080625A617B68BF
:105900001B68184604F07EFF034603F00203022BD7
:1059100003D17B681B6802225A617B681B681846AA
:1059200004F070FF034603F00053B3F1005F15D19C
:105930007B681B684FF000525A61FB6803F588636F
:105940001B6803F00103002B08D178680EF008FAF9
:105950007B681B680121184605F066F87B681B68A8
:10596000184604F04FFF034603F08073B3F1807FC5
:1059700002D1786801F0FFF97B681B68184604F0D3
:1059800041FF034603F00803082B06D178680EF0A8
:10599000C5F97B681B6808225A617B681B6818463A
:1059A00004F030FF034603F01003102B01D1012354
:1059B00000E00023002B12D07B681B689A697B688B
:1059C0001B6822F010029A61786801F002F97B6886
:1059D0001B689A697B681B6842F010029A617B68B9
:1059E0001B68184604F00EFF034603F00073B3F182
:1059F000007F3AD17B681B68184605F02BFBB86026
:105A000000237B6125E07B6903F00F03BA6822FA6B
:105A100003F303F00103002B18D07B695A01FB68E4
:105A2000134403F5A0631B6803F40043B3F5004F70
:105A300006D17B69DBB21946786800F0ABF805E067
:105A40007B69DBB21946786800F0C6FC7B690133DC
:105A50007B617B689B687A699A42D4D37B681B68B8
:105A60004FF000725A6100E000BF1837BD4680BD9C
:105A700080B582B000AF78607B6893F8F832012B74
:105A800001D1022313E07B68012283F8F8227B68AE
:105A90001B68184604F0C3FD7B681B68012118468B
:105AA00005F026F87B68002283F8F82200231846C8
:105AB0000837BD4680BD80B582B000AF78607B6896
:105AC00093F8F832012B01D102230DE07B6801220B
:105AD00083F8F8227B681B68184605F025FC7B6874
