:020000040800F2
:100000000000022001130008D5100008DD100008D0
:10001000191100081F110008251100080000000038
:1000200000000000000000000000000051A10008D6
:100030002B11000800000000A1A3000839110008DE
:100040005113000851130008511300085113000800
:1000500051130008511300085113000851130008F0
:1000600051130008511300085113000851130008E0
:1000700051130008511300085113000851130008D0
:1000800051130008511300085113000851130008C0
:1000900051130008511300085113000851130008B0
:1000A00051130008511300085113000851130008A0
:1000B00051130008512A0008511300085113000879
:1000C0005113000851130008511300085113000880
:1000D00051130008E574000851130008511300087B
:1000E0005113000851130008511300085113000860
:1000F00051130008511300083D2F00085113000848
:10010000511300085113000851130008511300083F
:1001100051130008B525000899290008511300085B
:10012000511300085113000851130008511300081F
:10013000052200085113000851130008511300084C
:1001400051130008511300085113000851130008FF
:1001500051130008511300085113000851130008EF
:1001600051130008511300085113000851130008DF
:10017000511300085113000851130008000000003B
:0801800051130008511300089F
:1001900010B5054C237833B9044B13B10448AFF3C1
:1001A00000800123237010BDF0010020000000003A
:1001B00058F3000808B5034B1BB103490348AFF3DC
:1001C000008008BD00000000F401002058F3000882
:1001D000034613F8012B002AFBD1181A0138704787
:1001E00001F0FF01102A2BDB10F0070F08D010F8E8
:1001F000013B013A8B422DD010F0070F42B3F6D1EC
:10020000F0B441EA012141EA014122F007047FF004
:1002100000070023F0E80256083C85EA010586EA5B
:10022000010685FA47F5A3FA87F586FA47F6A5FA97
:1002300087F68EB9EED1F0BC01F0FF0102F00702A3
:1002400032B110F8013B013A83EA010313B1F8D14E
:100250000020704701387047002D06BF354603382F
:10026000073815F0010F07D1013015F4807F02BF68
:10027000013015F4C03F0130F0BC0138704700BFB9
:1002800081F0004102E000BF83F0004330B54FEA47
:1002900041044FEA430594EA050F08BF90EA020FB4
:1002A0001FBF54EA000C55EA020C7FEA645C7FEA47
:1002B000655C00F0E2804FEA5454D4EB5555B8BF6A
:1002C0006D420CDD2C4480EA020281EA030382EADB
:1002D000000083EA010180EA020281EA0303362D6D
:1002E00088BF30BD11F0004F4FEA01314FF4801C40
:1002F0004CEA113102D0404261EB410113F0004F52
:100300004FEA03334CEA133302D0524263EB430308
:1003100094EA050F00F0A780A4F10104D5F1200EA6
:100320000DDB02FA0EFC22FA05F2801841F1000101
:1003300003FA0EF2801843FA05F359410EE0A5F1D5
:1003400020050EF1200E012A03FA0EFC28BF4CF006
:10035000020C43FA05F3C01851EBE37101F00045BC
:1003600007D54FF0000EDCF1000C7EEB00006EEBC9
:100370000101B1F5801F1BD3B1F5001F0CD3490853
:100380005FEA30004FEA3C0C04F101044FEA4452AA
:1003900012F5800F80F09A80BCF1004F08BF5FEA31
:1003A000500C50F1000041EB045141EA050130BD11
:1003B0005FEA4C0C404141EB0101013C28BFB1F523
:1003C000801FE9D291F0000F04BF01460020B1FA6E
:1003D00081F308BF2033A3F10B03B3F120020CDA41
:1003E0000C3208DD02F1140CC2F10C0201FA0CF01F
:1003F00021FA02F10CE002F11402D8BFC2F1200C84
:1004000001FA02F120FA0CFCDCBF41EA0C01904039
:10041000E41AA2BF01EB0451294330BD6FEA040482
:100420001F3C1CDA0C340EDC04F11404C4F120026D
:1004300020FA04F001FA02F340EA030021FA04F37F
:1004400045EA030130BDC4F10C04C4F1200220FAD6
:1004500002F001FA04F340EA0300294630BD21FA14
:1004600004F0294630BD94F0000F83F4801306BFDA
:1004700081F480110134013D4EE77FEA645C18BFCE
:100480007FEA655C29D094EA050F08BF90EA020F65
:1004900005D054EA000C04BF1946104630BD91EA5D
:1004A000030F1EBF0021002030BD5FEA545C05D160
:1004B0004000494128BF41F0004130BD14F580049F
:1004C0003CBF01F5801130BD01F0004545F0FE4113
:1004D00041F470014FF0000030BD7FEA645C1ABF48
:1004E000194610467FEA655C1CBF0B46024650EA7F
:1004F000013406BF52EA033591EA030F41F40021AB
:1005000030BD00BF90F0000F04BF0021704730B530
:100510004FF4806404F132044FF000054FF0000105
:1005200050E700BF90F0000F04BF0021704730B5C6
:100530004FF4806404F1320410F0004548BF40429B
:100540004FF000013EE700BF42004FEAE2014FEAF0
:1005500031014FEA02701FBF12F07F4393F07F4FCB
:1005600081F06051704732F07F4208BF704793F0CE
:100570007F4F04BF41F40021704730B54FF46074E1
:1005800001F0004521F000411CE700BF50EA0102E4
:1005900008BF704730B54FF000050AE050EA01028D
:1005A00008BF704730B511F0004502D5404261EBFD
:1005B00041014FF4806404F132045FEA915C3FF43E
:1005C000D8AE4FF003025FEADC0C18BF03325FEADB
:1005D000DC0C18BF033202EBDC02C2F1200300FA8C
:1005E00003FC20FA02F001FA03FE40EA0E0021FAB1
:1005F00002F11444BDE600BF70B54FF0FF0C4CF49F
:10060000E06C1CEA11541DBF1CEA135594EA0C0F50
:1006100095EA0C0F00F0DEF82C4481EA030621EA8B
:100620004C5123EA4C5350EA013518BF52EA0335C6
:1006300041F4801143F4801338D0A0FB02CE4FF078
:100640000005E1FB02E506F00042E0FB03E54FF0A8
:100650000006E1FB03569CF0000F18BF4EF0010EA0
:10066000A4F1FF04B6F5007F64F5407404D25FEA9C
:100670004E0E6D4146EB060642EAC62141EA55514F
:100680004FEAC52040EA5E504FEACE2EB4F1FD0C91
:1006900088BFBCF5E06F1ED8BEF1004F08BF5FEA0F
:1006A000500E50F1000041EB045170BD06F00046C1
:1006B00046EA010140EA020081EA0301B4EB5C046E
:1006C000C2BFD4EB0C0541EA045170BD41F4801166
:1006D0004FF0000E013C00F3AB8014F1360FDEBF8B
:1006E000002001F0004170BDC4F10004203C35DA67
:1006F0000C341BDC04F11404C4F1200500FA05F3EA
:1007000020FA04F001FA05F240EA020001F000428A
:1007100021F0004110EBD37021FA04F642EB060100
:100720005EEA430E08BF20EAD37070BDC4F10C042A
:10073000C4F1200500FA04F320FA05F001FA04F2EE
:1007400040EA020001F0004110EBD37041F10001DA
:100750005EEA430E08BF20EAD37070BDC4F12005E5
:1007600000FA05F24EEA020E20FA04F301FA05F24D
:1007700043EA020321FA04F001F0004121FA04F2F5
:1007800020EA020000EBD3705EEA430E08BF20EAC5
:10079000D37070BD94F0000F0FD101F000464000FF
:1007A00041EB010111F4801F08BF013CF7D041EA81
:1007B000060195F0000F18BF704703F00046520085
:1007C00043EB030313F4801F08BF013DF7D043EA56
:1007D0000603704794EA0C0F0CEA135518BF95EA0C
:1007E0000C0F0CD050EA410618BF52EA4306D1D193
:1007F00081EA030101F000414FF0000070BD50EAB2
:10080000410606BF1046194652EA430619D094EA3B
:100810000C0F02D150EA013613D195EA0C0F05D125
:1008200052EA03361CBF104619460AD181EA030179
:1008300001F0004141F0FE4141F470014FF0000031
:1008400070BD41F0FE4141F4780170BD70B54FF0CC
:10085000FF0C4CF4E06C1CEA11541DBF1CEA13554C
:1008600094EA0C0F95EA0C0F00F0A7F8A4EB05042E
:1008700081EA030E52EA03354FEA013100F0888025
:100880004FEA03334FF0805545EA131343EA1263EE
:100890004FEA022245EA111545EA10654FEA0026A3
:1008A0000EF000419D4208BF964244F1FD0404F55C
:1008B000407402D25B084FEA3202B61A65EB0305B8
:1008C0005B084FEA32024FF480104FF4002CB6EB75
:1008D000020E75EB030E22BFB61A754640EA0C00F5
:1008E0005B084FEA3202B6EB020E75EB030E22BF35
:1008F000B61A754640EA5C005B084FEA3202B6EB76
:10090000020E75EB030E22BFB61A754640EA9C0034
:100910005B084FEA3202B6EB020E75EB030E22BF04
:10092000B61A754640EADC0055EA060E18D04FEAC2
:10093000051545EA16754FEA06164FEAC30343EA62
:1009400052734FEAC2025FEA1C1CC0D111F4801F2F
:100950000BD141EA00014FF000004FF0004CB6E728
:1009600011F4801F04BF01430020B4F1FD0C88BFC7
:10097000BCF5E06F3FF6AFAEB5EB030C04BFB6EBD2
:10098000020C5FEA500C50F1000041EB045170BDC5
:100990000EF0004E4EEA113114EB5C04C2BFD4EBF2
:1009A0000C0541EA045170BD41F480114FF0000E76
:1009B000013C90E645EA060E8DE60CEA135594EAF2
:1009C0000C0F08BF95EA0C0F3FF43BAF94EA0C0FF5
:1009D0000AD150EA01347FF434AF95EA0C0F7FF46A
:1009E00025AF104619462CE795EA0C0F06D152EABE
:1009F00003353FF4FDAE1046194622E750EA4106A2
:100A000018BF52EA43067FF4C5AE50EA41047FF4B2
:100A10000DAF52EA43057FF4EBAE12E74FF0FF3C17
:100A200006E000BF4FF0010C02E000BF4FF0010CE8
:100A30004DF804CD4FEA410C7FEA6C5C4FEA430C61
:100A400018BF7FEA6C5C1BD001B050EA410C0CBFB0
:100A500052EA430C91EA030F02BF90EA020F002012
:100A6000704710F1000F91EA030F58BF994208BF79
:100A700090422CBFD8176FEAE37040F00100704736
:100A80004FEA410C7FEA6C5C02D150EA013C07D18D
:100A90004FEA430C7FEA6C5CD6D152EA033CD3D0D8
:100AA0005DF8040B704700BF8446104662468C46D2
:100AB0001946634600E000BF01B5FFF7B7FF002805
:100AC00048BF10F1000F01BD4DF808EDFFF7F4FF2E
:100AD0000CBF012000205DF808FB00BF4DF808EDB9
:100AE000FFF7EAFF34BF012000205DF808FB00BFDC
:100AF0004DF808EDFFF7E0FF94BF012000205DF8FE
:100B000008FB00BF4DF808EDFFF7CEFF94BF0120B2
:100B100000205DF808FB00BF4DF808EDFFF7C4FFAB
:100B200034BF012000205DF808FB00BF4FEA410CF4
:100B30007FEA6C5C02D150EA013C0AD14FEA430CD7
:100B40007FEA6C5C02D152EA033C02D14FF0000014
:100B500070474FF0010070474FEA410212F5001252
:100B600015D211D56FF47873B3EB625212D94FEAF4
:100B7000C12343F0004343EA505311F0004F23FADE
:100B800002F018BF404270474FF00000704750EA33
:100B9000013005D111F0004008BF6FF000407047F0
:100BA0004FF00000704700BF4A0011D212F500124A
:100BB00011D20DD56FF47873B3EB62520ED44FEAB5
:100BC000C12343F0004343EA505323FA02F0704735
:100BD0004FF00000704750EA013002D14FF0FF3073
:100BE00070474FF0000070474FEA4102B2F1E04316
:100BF00024BFB3F5001CDCF1FE5C0DD901F0004C04
:100C00004FEAC0024CEA5070B2F1004F40EB830053
:100C100008BF20F00100704711F0804F21D113F17F
:100C20003872BCBF01F00040704741F480114FEAB8
:100C30005252C2F11802C2F1200C10FA0CF320FA41
:100C400002F018BF40F001004FEAC1234FEAD3235E
:100C500003FA0CFC40EA0C0023FA02F34FEA4303C8
:100C6000CCE77FEA625307D150EA01331EBF4FF051
:100C7000FE4040F44000704701F0004040F0FE406C
:100C800040F40000704700BF53B94AB9002908BFBB
:100C900000281CBF4FF0FF314FF0FF3000F0AAB921
:100CA000ADF1080C6DE904CE00F03CF8DDF804E08D
:100CB000DDE9022304B0704738B500220023044662
:100CC0000D46FFF70BFF28B920462946BDE83840FE
:100CD00000F00AB8204605F1004100F005F8404256
:100CE00061EB410138BD00BFD0B50C4B0022064678
:100CF0000F46FFF781FCFFF757FF0446FFF702FCA2
:100D0000074B0022FFF778FC02460B463046394677
:100D1000FFF7BAFAFFF748FF2146D0BD0000F03DCB
:100D20000000F0412DE9F047089D04468E46002B57
:100D30004DD18A42944669D9B2FA82F252B101FA8F
:100D400002F3C2F1200120FA01F10CFA02FC41EA9F
:100D5000030E94404FEA1C48210CBEFBF8F61FFA24
:100D60008CF708FB16E341EA034306FB07F19942BF
:100D70000AD91CEB030306F1FF3080F01F81994272
:100D800040F21C81023E63445B1AA4B2B3FBF8F04C
:100D900008FB103344EA034400FB07F7A7420AD9D3
:100DA0001CEB040400F1FF3380F00A81A74240F2FB
:100DB00007816444023840EA0640E41B00261DB166
:100DC000D4400023C5E900433146BDE8F0878B429B
:100DD00009D9002D00F0EF800026C5E9000130465A
:100DE0003146BDE8F087B3FA83F6002E4AD18B4234
:100DF00002D3824200F2F980841A61EB03030120DE
:100E00009E46002DE0D0C5E9004EDDE702B9FFDEC9
:100E1000B2FA82F2002A40F09280A1EB0C014FEA74
:100E20001C471FFA8CFE0126200CB1FBF7F307FBD1
:100E3000131140EA01410EFB03F0884208D91CEB74
:100E4000010103F1FF3802D2884200F2CB80434611
:100E5000091AA4B2B1FBF7F007FB101144EA0144F0
:100E60000EFB00FEA64508D91CEB040400F1FF317F
:100E700002D2A64500F2BB800846A4EB0E0440EA6D
:100E800003409CE7C6F12007B34022FA07FC4CEA76
:100E9000030C20FA07F401FA06F31C43F9404FEA69
:100EA0001C4900FA06F3B1FBF9F8200C1FFA8CFE7E
:100EB00009FB181140EA014108FB0EF0884202FAD2
:100EC00006F20BD91CEB010108F1FF3A80F0888093
:100ED000884240F28580A8F102086144091AA4B250
:100EE000B1FBF9F009FB101144EA014100FB0EFED1
:100EF0008E4508D91CEB010100F1FF346CD28E4500
:100F00006AD90238614440EA0840A0FB0294A1EB90
:100F10000E01A142C846A64656D353D05DB1B3EBED
:100F2000080261EB0E0101FA07F722FA06F3F1401D
:100F30001F43C5E9007100263146BDE8F087C2F1C4
:100F40002003D8400CFA02FC21FA03F3914001433C
:100F50004FEA1C471FFA8CFEB3FBF7F007FB103675
:100F60000B0C43EA064300FB0EF69E4204FA02F421
:100F700008D91CEB030300F1FF382FD29E422DD974
:100F8000023863449B1B89B2B3FBF7F607FB1633A9
:100F900041EA034106FB0EF38B4208D91CEB010129
:100FA00006F1FF3816D28B4214D9023E6144C91AA9
:100FB00046EA004638E72E46284605E70646E3E6B9
:100FC0001846F8E64B45A9D2B9EB020864EB0C0EC3
:100FD0000138A3E74646EAE7204694E74046D1E7D2
:100FE000D0467BE7023B614432E7304609E7644480
:100FF000023842E7704700BF80B582B002AF01F00F
:10100000D1FF0723022208214FF4A87006F028F927
:10101000A82006F0A1F801F0C9F901F067F94FF432
:10102000E13006F0A9F906F0F1FD53214FF6FE700C
:1010300001F0F6FA00214FF6FF7001F013FD532185
:1010400040F2E73001F0B2FC06F0A4FA01F0F6F944
:10105000074B019301230093002380220549064892
:1010600007F049FC07F032FE0A2006F0C5F8FBE75E
:101070000C02002070F300085516000880B582B0FD
:1010800000AF00237B60124B5B6C114A43F480433A
:1010900053640F4B5B6C03F480437B607B680023DD
:1010A0003B600B4B1B6C0A4A43F080531364084BA4
:1010B0001B6C03F080533B603B6800220F216FF0F4
:1010C000010002F0E4FC00BF0837BD4680BD00BF50
:1010D0000038024080B400AFFEE7000080B586B063
:1010E00000AF18237B61EFF308837B607A687B692C
:1010F00013441B683B61EFF30983BB60BA687B69EB
:1011000013441B68FB60FA68396902480AF03AFC2C
:10111000FEE700BF78F3000880B400AFFEE780B4BC
:1011200000AFFEE780B400AFFEE780B400AF00BFC1
:10113000BD465DF8047B704780B500AF01F084FFC9
:1011400008F01CFA0346012B01D009F05DF900BF3D
:1011500080BD80B400AF01231846BD465DF8047B16
:10116000704780B582B000AF7860396009F0E4FB69
:10117000034616221A604FF0FF3318460837BD4663
:1011800080BD80B582B000AF78604FF0FF317868E5
:10119000FFF7E7FFFEE780B586B000AFF860B96003
:1011A0007A6000237B610AE0AFF300800146BB68F0
:1011B0005A1CBA60CAB21A707B6901337B617A69C2
:1011C0007B689A42F0DB7B6818461837BD4680BDC5
:1011D00080B586B000AFF860B9607A6000237B61AB
:1011E00009E0BB685A1CBA601B78184606F0B2F8D2
:1011F0007B6901337B617A697B689A42F1DB7B68AA
:1012000018461837BD4680BD80B483B000AF786003
:101210004FF0FF3318460C37BD465DF8047B70472E
:1012200080B483B000AF786039603B684FF40052FF
:101230005A60002318460C37BD465DF8047B7047A2
:1012400080B483B000AF7860012318460C37BD46E8
:101250005DF8047B704780B485B000AFF860B9607A
:101260007A60002318461437BD465DF8047B70474A
:1012700080B586B000AF7860144A154BD31A7B61F5
:101280007B693B61134B1B68002B02D1114B124A47
:101290001A60104B1A687B6813443A699A4207D265
:1012A00009F04AFB03460C221A604FF0FF3309E0B5
:1012B000084B1B68FB60074B1A687B681344054AA0
:1012C0001360FB6818461837BD4680BD0000022039
:1012D00000040000100200203850002080B400AF4D
:1012E000064BD3F88830054A43F47003C2F88830BF
:1012F00000BFBD465DF8047B704700BF00ED00E015
:10130000DFF834D00D480E490E4A002302E0D458CD
:10131000C4500433C4188C42F9D30B4A0B4C00233D
:1013200001E013600432A242FBD3FFF7D7FF09F0BC
:101330001BFBFFF761FE7047000002200000002049
:10134000EC010020ACFD0008F0010020345000202A
:10135000FEE7000080B584B000AF78600023FB7327
:10136000164B184600F04EFE642000F00FFF00F010
:10137000B9FDFA7B531CFB73114BA3FB0213D90875
:101380000B469B000B445B00D31ADBB2002B11D140
:1013900001210C4802F0FBFF08F0A4FF01F02CFC37
:1013A000B860B96808480AF0EDFA08480AF0EAFAA5
:1013B00008F0C8FF1E2007F055FCDAE74C020020B9
:1013C000CDCCCCCC00100240B4F30008C8F3000828
:1013D0002DE9B04F8EB008AF7860744B1B6807F1F1
:1013E0000B016422184606F0DBFF78617B69012B54
:1013F00040F0D98007F10B036D49184606F03AF921
:101400000346002B00F0CF806A4B1C6807F070FD8C
:1014100002460023009300230121204608F032FBFE
:10142000634B1B78FB74FB7CA03B042BD5D801A23B
:1014300052F823F0D1140008C91400084914000818
:10144000B51400083B1500080123BB72584BD3F8B4
:1014500001301846FFF778F882468B46544BD3F894
:1014600005301846FFF770F804460D46504BD3F888
:1014700009301846FFF768F8804689464C4BD3F888
:101480000D301846FFF760F802460B46CDE90423FD
:10149000CDE90289CDE9004552465B4646480AF04F
:1014A00071FA464B186807F10A010023012206F081
:1014B000DDFD79E00523FB60414B18680023032222
:1014C000F96808F02FF96FE03E480AF0E1FA6BE0A6
:1014D0003D480AF0DDFA364BD3F801301846FFF7E5
:1014E00033F882468B46324BD3F805301846FFF767
:1014F0002BF804460D462E4BD3F809301846FFF75B
:1015000023F8804689462A4BD3F80D301846FFF75A
:101510001BF802460B46264991F829100691CDE9A1
:101520000423CDE90289CDE9004552465B462748B0
:101530000AF028FA00F07AFA36E00323BB721C4B5B
:10154000D3F801301846FEF7FFFF82468B46184B52
:10155000D3F805301846FEF7F7FF04460D46144B46
:10156000D3F809301846FEF7EFFF80468946104B46
:10157000D3F80D301846FEF7E7FF02460B46CDE9DB
:101580000423CDE90289CDE9004552465B460A486D
:101590000AF0F8F9094B186807F10A010023012243
:1015A00006F064FD00E000BF17E700BF180300204D
:1015B0001402002014030020D0F300081C030020B4
:1015C00048020020F0F3000804F4000818F40008B2
:1015D00080B584B000AF78601B480AF059FA1B4B05
:1015E0001B6807F10F010A22184606F0D9FE0346D0
:1015F000BB60BB68012B25D10123BB60FB7B032BA8
:101600000BD0032B19DC012B01D0022B15E007F1C5
:101610000803184600F0FCFA0FE00D4BD3F8013038
:1016200007EE903AFCEEE77A094B93F82930194619
:1016300017EE900A00F07EFC00BF4FF47A7007F0BE
:1016400011FBCCE700BFCAE750F400081C030020E0
:101650001402002080B586B002AF786008F042FE28
:101660000023FB6000F092F89FED261ADFED250ABB
:101670009FED240A00F018F9234B019305230093F2
:1016800000234FF400722149214807F034F9F86033
:10169000FB68012B03D01D491E480AF073F91E4B4D
:1016A00001930423009300234FF480721B491C48CC
:1016B00007F021F9F860FB68012B03D017491548A2
:1016C0000AF060F9174B01930623009300234FF4AF
:1016D00000721549154807F00EF9F860FB68012BF8
:1016E00003D011490B480AF04DF911480AF0D0F91E
:1016F000002007F045FA08F025FE00BF1037BD4670
:1017000080BD00BFCDCC4C3E4802002068F40008EC
:10171000D115000874F40008400200208CF4000881
:10172000551300084402002098F40008D113000863
:10173000A0F4000880B584B002AF7860104B1B683D
:1017400001330F4A13600E4B1B680A2B10D10C4B50
:1017500000221A600B4B186800230093002300221C
:10176000032108F08FF900220221074802F0F6FD5C
:101770000221054802F00BFE00BF0837BD4680BDC0
:1017800024030020140300200010024080B582B022
:1017900002AF1D4B00930123012264211B4808F076
:1017A00015F903461A4A136000220121322006F07F
:1017B000FFFB0346174A1360164B1B68002B02D130
:1017C00015480AF065F900220121052006F0F0FB1A
:1017D0000346124A1360114B1B68002B02D11048BC
:1017E0000AF056F900220121012006F0E1FB034630
:1017F0000C4A13600B4B1B68002B02D10A480AF0FD
:1018000047F900BFBD4680BD35170008B8F4000891
:101810001403002018030020C8F400081C03002053
:10182000E4F400082003002004F5000880B584B02B
:1018300000AF0346FB71184B1B6807F108014FF01E
:10184000FF32184606F0ACFD0346002B14BF0123FF
:101850000023FB73FB7B83F00103DBB2002B03D07F
:101860000E480AF015F904E0BB6819460C480AF066
:1018700089F8FB79022B09D8FA79BB689A4202D120
:101880000123FB7301E00023FB7300BFFB7B1846C1
:101890001037BD4680BD00BF2003002020F50008A2
:1018A00048F500080000000090B585B000AF87ED56
:1018B000030AC7ED020A87ED011AD7ED037AF5EEA8
:1018C000C07AF1EE10FACCBF01230023DBB283F023
:1018D0000103DBB2002B14D1F868FEF735FE0123BB
:1018E0001C463DA3D3E90023FFF7F8F80346002B7D
:1018F00001D100231C46E3B283F00103DBB2002BCD
:1019000005D0374B374AD821374808F0F7FFD7EDD5
:10191000027AF5EEC07AF1EE10FACCBF0123002373
:10192000DBB283F00103DBB2002B14D1B868FEF701
:101930000BFE01231C4628A3D3E90023FFF7CEF8B2
:101940000346002B01D100231C46E3B283F00103C0
:10195000DBB2002B05D0254B224AD921224808F0C2
:10196000CDFFD7ED017AF5EEC07AF1EE10FACCBFDB
:1019700001230023DBB283F00103DBB2002B14D17F
:101980007868FEF7E1FD01231C4613A3D3E9002389
:10199000FFF7A4F80346002B01D100231C46E3B255
:1019A00083F00103DBB2002B05D0114B0D4ADA2185
:1019B0000D4808F0A3FF0F4B0133FA681A600D4B76
:1019C0000533BA681A600B4B09337A681A6000BF96
:1019D0001437BD4690BD00BF85EB51B81E052440AD
:1019E00088F50008D8F800089CF50008BCF5000848
:1019F000D0F500081402002080B483B000AF7860F6
:101A00007B6802221A7000BF0C37BD465DF8047B6C
:101A1000704780B483B000AF78607B6800221A7092
:101A200000BF0C37BD465DF8047B704780B582B0BF
:101A300002AF6D4B00225A7700229A770022DA77A4
:101A4000002283F82020684B002283F82120002206
:101A500083F82220002283F82320002283F8242008
:101A6000614B002283F82520002283F826200022E3
:101A700083F82720002283F828205B4BD3F801301D
:101A80009FED5A7A07EE903AC7EE277AFCEEE77A96
:101A900017EE903A9AB2544BA3F81120524BD3F858
:101AA0000530B2EE047A07EE903AC7EE277AFCEEE4
:101AB000E77A17EE903A9AB24B4BA3F813204A4BB1
:101AC000D3F809309FED4A7A07EE903AC7EE277AAD
:101AD000FCEEE77A17EE903A9AB2434BA3F8152042
:101AE000414BD3F80130DFED437A07EE103A67EE51
:101AF000277AFCEEE77A17EE903A9AB23A4BA3F8BF
:101B00001720394BD3F80530DFED3A7A07EE103A5B
:101B100067EE277AFCEEE77A17EE903A9AB2324BEC
:101B2000A3F81920304BD3F80930DFED327A07EEF5
:101B3000103A67EE277AFCEEE77A17EE903A9AB2FF
:101B4000294BA3F81B20284BB3F811309BB21A463F
:101B5000254BB3F817309BB2019300924FF000026F
:101B6000254B264809F00EFF1F4BB3F813309BB2EC
:101B70001A461D4BB3F819309BB2019300924FF0F7
:101B800000021D4B1E4809F0FDFE174BB3F815303F
:101B90009BB21A46144BB3F81B309BB201930092D0
:101BA0004FF00002144B174809F0ECFE0E4BB3F84F
:101BB00011309BB21A460C4BB3F813309BB202FBA8
:101BC00003F3094AB2F8152092B202FB03F30E4A5E
:101BD00082FB03125211DB17D31A19460B4809F086
:101BE000D1FE00BFBD4680BD140200200000C842E7
:101BF00000008C420000204200004440E4F5000850
:101C00001CF6000854F600081F85EB518CF60008FE
:101C100080B584B000AF7860FFF708FF0023FB6059
:101C200007F09CFC00230322F96807F07BFD0EE01F
:101C30000021012007F02EFDF860FB68052B03D181
:101C40000A4809F025FF0DE0642007F00BF800F0CA
:101C50001FF9034683F00103DBB2002BE8D10448EF
:101C600009F016FF1037BD4680BD00BFB8F600086A
:101C7000D8F6000880B582B000AF03463960FB712A
:101C8000FB79022B2DD0022B2CDC002B01D0012B59
:101C900028E0184B01221A75174B93F82930002BB6
:101CA0000FD0164B1B6893ED007A3B6807EE903A15
:101CB000F8EEE77A114B1B6877EE277AC3ED007ACE
:101CC00010E00E4B1B6893ED007A3B6807EE903AEC
:101CD000F8EEE77A094B1B6877EE677AC3ED007A76
:101CE00000E000BFFB791846FFF7A0FD00BF0837F2
:101CF000BD4680BD1805002014020020040000200D
:101D000080B584B000AF78607B68FB607B6801338E
:101D1000BB60BB681B78022B00F08480022B00F3B1
:101D2000AE80002B02D0012B3ED0A8E0564BD3F85A
:101D30001D30554AB2F8112092B2934212DA524B3A
:101D4000D3F81D300133504AC2F81D304E4BB3F862
:101D500017309BB219460020FFF78CFFFB68012269
:101D60001A708DE0484B93F82930002B14BF0123E3
:101D70000023DBB283F00103DBB203F00103DAB22C
:101D8000414B83F82920414809F082FE3E4B002256
:101D90005A7700229A770022DA77002283F82020EF
:101DA000BB6801221A706BE0374BD3F82130364AFA
:101DB000B2F8132092B2934212DA334BD3F82130A7
:101DC0000133314AC2F821302F4BB3F819309BB29E
:101DD00019460120FFF74EFFBB6800221A704FE042
:101DE000294B93F82A30002B14BF01230023DBB2C8
:101DF00083F00103DBB203F00103DAB2224B83F874
:101E00002A20214B002283F82120002283F822205F
:101E1000002283F82320002283F82420BB680222BA
:101E20001A702DE0184BD3F82530174AB2F8152058
:101E300092B2934212DA144BD3F825300133124A8E
:101E4000C2F82530104BB3F81B309BB21946022064
:101E5000FFF710FFBB6800221A7011E00A4B002246
:101E600083F82520002283F82620002283F82720EB
:101E7000002283F82820BB6803221A7000E000BF0C
:101E800000BF1037BD4680BD14020020F8F60008E0
:101E900080B500AF124B1B78022B0ED0022B10DC4A
:101EA000002B02D0012B04D00BE00D48FFF728FFD8
:101EB00007E00B48FFF7A0FD03E00948FFF7A9FD85
:101EC00000BF074B5B78032B07D1054B00225A70EC
:101ED000034B00221A70012300E00023184680BD46
:101EE0002803002080B586B000AF00233B600F4B75
:101EF0001B6B0E4A43F0400313630C4B1B6B03F048
:101F000040033B603B684FF400437B600023BB60B1
:101F100002233B610123FB603B1D1946044802F08C
:101F200081F800BF1837BD4680BD00BF00380240B1
:101F30000000024080B582B000AF78600B46FB70B5
:101F40007B6807EE903AF8EE677A9FED277A67EEA6
:101F5000877AFCEEE77A17EE903A9AB2234B1A8012
:101F6000FB781A467968224809F00CFD1F4B1B8844
:101F70009BB219461F4809F005FDFB78002B13D0D2
:101F80001D4B1B6893ED007A7B6807EE903AF8EEE4
:101F9000677ADFED156A67EEA67A174B1B6877EE56
:101FA000277AC3ED007A12E0134B1B6893ED007A99
:101FB0007B6807EE903AF8EE677ADFED0B6A67EE22
:101FC000A67A0D4B1B6877EE677AC3ED007A0B4B50
:101FD00001221A75FB781946094809F0D3FC00BFA5
:101FE0000837BD4680BD00BF000020420800002029
:101FF00014F700083CF70008040000201805002032
:1020000058F7000880B590B000AF786007F11C0366
:1020100000221A605A609A60DA600023BB61534B59
:102020005B6C524A43F480735364504B5B6C03F413
:102030008073BB61BB6900237B614C4B1B6B4B4ABC
:1020400043F001031363494B1B6B03F001037B61F6
:102050007B6900233B61454B1B6B444A43F480037F
:102060001363424B1B6B03F480033B613B69082302
:10207000FB6203233B6301237B6307F12C031946B7
:102080003B4801F0CFFF3B4B3B4A1A60394B0022E3
:102090005A60384B00229A60364B0022DA60354B8A
:1020A0004FF480621A61334B4FF400625A61314B36
:1020B0004FF400529A612F4B0022DA612D4B4FF4FE
:1020C00080321A622B4801F035FD2C4B2C4A1A60E5
:1020D0002A4B4FF480325A60284B00229A60274BDB
:1020E0000022DA60254B00221A61244B01221A7665
:1020F000224B0122DA61214B002283F820201F4B62
:1021000000225A621D4B1F4A9A621C4B012283F81F
:1021100030201A4800F0C4FF184B164A9A63154B3A
:10212000164A9A630323FB6101233B6207237B6208
:1021300007F11C031946114801F02EF9032203216F
:102140003C2001F0A4FC3C2001F0BDFC7A68002397
:102150000D49084801F09CFD3B1D00221946074827
:1021600000F0ECFF00BF4037BD4680BD00380240A4
:10217000000002402C030020706402408C03002009
:10218000002001400100000F4C20014080B483B0CA
:1021900000AF0346FB80184B1B689A68164B1B6800
:1021A00022F001029A60154B1B681A68134B1B68DA
:1021B00022F001021A60114B1B68FA885A600F4B1B
:1021C0001B681A680D4B1B6842F001021A600A4B2B
:1021D0001B689A68084B1B6842F001029A60084B22
:1021E0009B68074A43F08043936000BF0C37BD46AD
:1021F0005DF8047B704700BF8C0300202C03002097
:102200000020014080B400AF314B1B681A46314BAF
:102210009A4209D9304B5B6803F02003002B14BFAE
:1022200001230023DBB228E0294B1B681A462B4B05
:102230009A4209D9284B1B6803F02003002B14BFD6
:1022400001230023DBB218E0214B1B681A46244B04
:102250009A4209D9234B5B6803F02003002B14BF7B
:1022600001230023DBB208E01E4B1B6803F02003B0
:10227000002B14BF01230023DBB2002B23D01A4B09
:1022800001221A70124B1B681A46124B9A4203D94C
:10229000114B2022DA6016E00D4B1B681A460F4BDB
:1022A0009A4203D90C4A202393600CE0084B1B6828
:1022B0001A460B4B9A4203D90A4A2023D36002E004
:1022C000084A2023936000BFBD465DF8047B704739
:1022D0002C0300205864024000640240B8600240B1
:1022E0005860024000600240D403002080B588B0EE
:1022F00000AF0023BB602B4B1B6B2A4A43F010033B
:102300001363284B1B6B03F01003BB60BB680023F7
:102310007B60244B1B6B234A43F010031363214B58
:102320001B6B03F010037B607B6800233B601D4B3D
:102330001B6B1C4A43F0100313631A4B1B6B03F017
:1023400010033B603B680423FB6000233B610123D7
:102350007B610223BB6107F10C031946124801F0AF
:1023600061FE0823FB6000233B6101237B610223A4
:10237000BB6107F10C0319460B4801F053FE102313
:10238000FB6000233B6101237B610223BB6107F1FA
:102390000C031946044801F045FE00BF2037BD4636
:1023A00080BD00BF003802400010024080B588B0F8
:1023B00000AF0023BB601F4B1B6B1E4A43F0100392
:1023C00013631C4B1B6B03F01003BB60BB68002343
:1023D0007B60184B1B6B174A43F010031363154BBC
:1023E0001B6B03F010037B607B680123FB60012300
:1023F0003B6101237B610223BB6107F10C0319469A
:102400000D4801F00FFE0223FB6007F10C03194693
:10241000094801F007FE01220121074801F09EFF53
:1024200001220221044801F099FF00BF2037BD4678
:1024300080BD00BF003802400010024080B400AFF1
:10244000194B4FF000021A60174B4FF000025A6010
:10245000154B4FF000029A60134B4FF000029A6147
:10246000114B4FF00002DA610F4B4FF000021A627D
:102470000D4B4FF07C52DA600B4B0C4A1A610A4B41
:102480004FF000025A61084B094A9A62064B094A0A
:102490005A62054B084A1A63034B084ADA6200BFC6
:1024A000BD465DF8047B7047D8030020CDCC4C3D81
:1024B0000000A0410000A0C100004842000048C246
:1024C00080B483B000AF786087ED000A7B6893ED3D
:1024D000007AD7ED007A77EE677A7B68C3ED067AEB
:1024E0007B6893ED037A7B68D3ED066A7B68D3ED56
:1024F000077A76EEE77A27EE277A7B68D3ED046ACF
:102500007B68D3ED067A66EEA77A37EE277A7B688A
:10251000D3ED056A7B6893ED066A7B68D3ED077A95
:1025200077EEA77A36EE676A7B68D3ED087A76EEA7
:10253000277A66EEA77A37EE277A7B68D3ED017AA1
:1025400077EE277A7B68C3ED017A7B68DA697B686E
:102550001A627B689A697B68DA617B6893ED017A1D
:102560007B68D3ED0C7AB4EEE77AF1EE10FA04DD75
:102570007B681A6B7B685A600EE07B6893ED017A8A
:102580007B68D3ED0B7AB4EEE77AF1EE10FA03D55F
:102590007B68DA6A7B685A607B68D3ED017AFDEE6E
:1025A000E77A17EE903A18460C37BD465DF8047B83
:1025B0007047000080B582B000AF00233B60144B31
:1025C0001B681B6803F02003202B1CD1F91D4FF45E
:1025D0007A7301220E4803F067FD02210D4801F0D5
:1025E000D6FE0D4B18683A46F91D002305F03CFE57
:1025F0003B68012B07D1094B4FF080521A60BFF3A3
:102600004F8FBFF36F8F00BF0837BD4680BD00BF3F
:102610000C040020001002401803002004ED00E02C
:1026200080B590B000AF03460A46FB801346BB80DE
:102630000023BB62614B1B6B604A43F020031363B2
:102640005E4B1B6B03F02003BB62BB6A00237B6203
:102650005A4B1B6B594A43F020031363574B1B6BB8
:1026600003F020037B627B6A00233B62534B1B6BAE
:10267000524A43F002031363504B1B6B03F00203F7
:102680003B623B6A0023FB614C4B1B6B4B4A43F0A4
:1026900080031363494B1B6B03F08003FB61FB69F1
:1026A0000023BB61454B1B6B444A43F0200313637B
:1026B000424B1B6B03F02003BB61BB6900237B61B2
:1026C0003E4B1B6B3D4A43F0200313633B4B1B6B9C
:1026D00003F020037B617B6900233B61374B1B6B5D
:1026E000364A43F020031363344B1B6B03F0200383
:1026F0003B613B690023FB60304B1B6B2F4A43F06F
:10270000800313632D4B1B6B03F08003FB60FB689E
:102710004FF48043FB6201233B6302237B6300236E
:10272000BB6307F12C031946254801F07BFC4FF4ED
:102730008053FB6207F12C031946214801F072FC1B
:102740000423FB6207F12C0319461E4801F06AFCC2
:102750000423FB6207F12C0319461B4801F062FCBD
:102760004FF40043FB6207F12C031946144801F0B3
:1027700059FC4FF40053FB6207F12C031946104833
:1027800001F050FC4FF40063FB6207F12C03194683
:102790000B4801F047FC0823FB6207F12C031946A4
:1027A000094801F03FFCBA88FB881146184600F042
:1027B000D3FA00BF4037BD4680BD00BF003802409D
:1027C0000014024000040240001C024080B582B0A8
:1027D00000AF0346FB71FB79013B032B5ED801A2DE
:1027E00052F823F0F52700081F28000849280008A0
:1027F00073280008304B1B68602B03D02E4B1B68DE
:10280000702B03D100212D4802F0C0FD2A4B1B681C
:10281000302B45D10021294802F0FAFC40E0264B3C
:102820001B68602B03D0244B1B68702B03D1042141
:10283000224802F0ABFD204B1B68302B32D1042123
:102840001E4802F0E5FC2DE01B4B1B68602B03D0FB
:10285000194B1B68702B03D10821184802F096FD14
:10286000154B1B68302B1FD10821144802F0D0FCF7
:102870001AE0114B1B68602B03D00F4B1B68702BA9
:1028800003D10C210D4802F081FD0B4B1B68302B4E
:102890000CD10C21094802F0BBFC07E000BF06E0A8
:1028A00000BF04E000BF02E000BF00E000BF00BFC7
:1028B0000837BD4680BD00BF7C05002034050020E0
:1028C00080B584B000AF03460A46FB711346BB8057
:1028D0004FF00003FB60BB88002B18D10021274874
:1028E00002F096FC264B00221A80264B1B68002B18
:1028F00040D1244B01221A601123BB60224B18687F
:1029000007F108010023002205F0AEFC32E01D4B68
:1029100000221A60FB79012B06D101224FF480417D
:102920001A4801F01BFD05E000224FF480411748D2
:1029300001F014FDBB8807EE903AF8EEE77A9FEDC0
:10294000147A27EE877AF3EE046AC6EE877AC7ED2B
:10295000037AD7ED037A9FED0F7A67EE877AFCEE64
:10296000E77A17EE903A9AB2054B1A800021034895
:1029700002F038FB00BF1037BD4680BD3405002093
:102980000800002060040020200300200014024002
:10299000CDCC4C3F0000FA4380B500AF024802F0B6
:1029A00099FE00BF80BD00BF6404002080B582B0E6
:1029B00000AF03460A46FB801346BB800E4B0F4A0E
:1029C0001A60BB880C4A53600B4B00229A60FB884C
:1029D000094AD360084B00221A61074802F08AF9BD
:1029E000054802F03FFA044B1B686FF001021A61C0
:1029F00000BF0837BD4680BD6404002000100040C1
:102A000080B584B000AF78607B681B680E4A934243
:102A100015D10023FB600D4B1B6C0C4A43F01003D7
:102A200013640A4B1B6C03F01003FB60FB6800226D
:102A30000521362001F02BF8362001F044F800BFC4
:102A40001037BD4680BD00BF001000400038024076
:102A500080B500AF024802F03DFE00BF80BD00BF60
:102A6000AC04002080B582B000AF03460A46FB806C
:102A70001346BB80234B244A1A60BB88214A53600B
:102A8000204B00229A60FB881E4AD3601D4B002217
:102A90001A611E4B03221A601C4B00225A601B4B0A
:102AA00001229A60194B0022DA60184B0A221A613F
:102AB000164B00225A61154B01229A61134B0022DA
:102AC000DA61124B0A221A6210490E4802F0CEFC5B
:102AD00000210C4802F070FD04210A4802F06CFD50
:102AE000084B1B686FF001021A61064B1B68DA681D
:102AF000044B1B6842F00102DA6000BF0837BD4694
:102B000080BD00BFAC04002000040040F40400209D
:102B100080B58CB000AF78607B681B68334A934205
:102B20005FD10023BB61324B1B6B314A43F004037E
:102B300013632F4B1B6B03F00403BB61BB690023C2
:102B40007B612B4B1B6B2A4A43F004031363284B16
:102B50001B6B03F004037B617B6900233B61244B07
:102B60001B6C234A43F002031364214B1B6C03F0DC
:102B700002033B613B690023FB601D4B1B6C1C4A3D
:102B800043F0020313641A4B1B6C03F00203FB6057
:102B9000FB684023FB6102233B6200237B6200232E
:102BA000BB620223FB6207F11C031946114801F0C6
:102BB00039FA8023FB6102233B6200237B620023FE
:102BC000BB620223FB6207F11C031946094801F0AE
:102BD00029FA00220F211D2000F059FF1D2000F0CE
:102BE00072FF00BF3037BD4680BD00BF000400400B
:102BF000003802400008024080B400AF054B1B685B
:102C00005B6A054A1269120413441846BD465DF812
:102C1000047B7047AC0400201805002080B582B00A
:102C200000AF78607B681B68424A934210D1424BE8
:102C30001B681B6803F01003102B02D14FF0FF320A
:102C400000E001223D4B1B6913443C4A13616CE0D8
:102C50007B681B683A4A934267D1FFF7CDFF034672
:102C6000364A5360374B1B88142B58D1334B5A6864
:102C7000324B1B68D31A314A9360304B5B682F4A42
:102C800013602E4B1B7D002B46D0FFF7B5FF03468C
:102C90002D4AD3602C4BDB6807EE903AF8EEE77ACA
:102CA000B0EE670A2948FFF70BFC0346234AD360BE
:102CB000224BDB68002B03D0254B00221A700FE05B
:102CC000234B1B7883F00103DBB2002B08D0204B91
:102CD00001221A701F4808F0DBFE0120FFF776FD85
:102CE000164BDB68002B03DD174B01225A7002E004
:102CF000154B00225A70114BDB68002BB8BF5B42AA
:102D00000E4AD360104B5B78DBB20C4AD26892B2A9
:102D100011461846FFF7D4FD0A4B00221A80094BD2
:102D20001B8801339AB2074B1A8000BF0837BD4693
:102D300080BD00BF00040040AC0400201805002046
:102D4000001000403005002050040020D80300206F
:102D5000320500206CF7000880B584B000AF034650
:102D60000A46FB801346BB800023FB60294B5B6C4B
:102D7000284A43F002035364264B5B6C03F00203C2
:102D8000FB60FB68244B254A1A60BB88224A5360CB
:102D9000214B00229A60FB881F4AD3601E4B002201
:102DA0001A611D4B00229A611B4B00225A611A487E
:102DB00002F0C8F81A4B30221A60194B00225A60F0
:102DC000174B00229A60164B0822DA60144B00223F
:102DD0001A61134B00225A61114B00229A6104229E
:102DE0000F490D4802F07EFD00220D490A4802F00D
:102DF00079FD08220A49084802F074FD0C220849AE
:102E0000054802F06FFD044801F0C4FF00BF103711
:102E1000BD4680BD0038024034050020000401405A
:102E20007C05002080B58CB000AF78607B681B68A3
:102E30003E4A934276D10023BB613D4B5B6C3C4ADA
:102E400043F0020353643A4B5B6C03F00203BB6133
:102E5000BB6900237B61364B1B6B354A43F480739F
:102E60001363334B1B6B03F480737B617B6900231B
:102E70003B612F4B1B6B2E4A43F4807313632C4B27
:102E80001B6B03F480733B613B690023FB60284BA1
:102E90001B6B274A43F480731363254B1B6B03F4AE
:102EA0008073FB60FB680023BB60214B1B6B204AD7
:102EB00043F0040313631E4B1B6B03F00403BB605E
:102EC000BB682023FB6102233B6201237B62022358
:102ED000BB620323FB6207F11C031946154801F08E
:102EE000A1F84023FB6107F11C031946114801F0CA
:102EF00099F88023FB6107F11C0319460D4801F086
:102F000091F84FF40073FB6107F11C0319460A485E
:102F100001F088F8002207212E2000F0B8FD2E20B5
:102F200000F0D1FD00BF3037BD4680BD0004014038
:102F300000380240002002400008024080B500AF87
:102F4000024802F0C7FB00BF80BD00BF340500206F
:102F500080B485B000AF78600023FB600023BB60C5
:102F60007B681B680C4A93420FD10C4B1B685B6A51
:102F7000FB600B4B1B889BB21A46FB6813449BB249
:102F8000BB60064B1B68BA685A6300BF1437BD4666
:102F90005DF8047B704700BF000401403405002049
:102FA0000800002080B500AF0E4B1B680D4A43F4AB
:102FB000007313600B4B1B680A4A43F48063136071
:102FC000084B1B68074A43F480731360032000F02A
:102FD00053FD0F2000F008F8FEF750F800231846C4
:102FE00080BD00BF003C024080B582B000AF786079
:102FF000124B1A68124B1B7819464FF47A73B3FBC5
:10300000F1F3B2FBF3F3184600F06BFD0346002B1F
:1030100001D001230EE07B680F2B0AD800227968CB
:103020004FF0FF3000F033FD064A7B681360002349
:1030300000E0012318460837BD4680BD000000208F
:10304000100000200C00002080B400AF064B1B785D
:103050001A46064B1B681344044A136000BFBD4662
:103060005DF8047B704700BF100000209805002029
:1030700080B400AF034B1B681846BD465DF8047B67
:10308000704700BF9805002080B400AF034B1B6859
:103090001B0C1846BD465DF8047B7047002004E019
:1030A00080B584B000AF78600023FB737B68002B91
:1030B00001D1012333E07B681B6C002B09D17868B8
:1030C00000F031F87B6800225A647B68002283F8A4
:1030D0003C207B681B6C03F01003002B18D17B682D
:1030E0001B6C23F4885323F0020343F002027B6835
:1030F0001A64786800F072FA7B6800225A647B6870
:103100001B6C23F0030343F001027B681A6401E0A7
:103110000123FB737B68002283F83C20FB7B18466D
:103120001037BD4680BD80B483B000AF786000BF6B
:103130000C37BD465DF8047B7047000080B586B053
:1031400000AFF860B9607A6000233B61FB6893F8D8
:103150003C30012B01D10223E9E0FB68012283F816
:103160003C20FB681B689B6803F00103012B18D00F
:10317000FB681B689A68FB681B6842F001029A6052
:103180006D4B1B686D4AA2FB03239A0C13465B0030
:1031900013443B6102E03B69013B3B613B69002B0F
:1031A000F9D1FB681B689B6803F48073B3F5807FDB
:1031B00007D1FB681B689A68FB681B6822F4807261
:1031C0009A60FB681B689B6803F00103012B40F0C9
:1031D000A180FB681B6C23F4E06323F0010343F43C
:1031E0008072FB681A64FB681B685B6803F4806389
:1031F000002B07D0FB681B6C23F4405343F4805230
:10320000FB681A64FB681B6C03F48053B3F5805FA2
:1032100006D1FB685B6C23F00602FB685A6402E08F
:10322000FB6800225A64FB68002283F83C20444B70
:103230007B61FB689B6B434ADA63FB689B6B424A8A
:103240001A64FB689B6B414ADA64FB681B686FF089
:1032500022021A60FB681B685A68FB681B6842F010
:1032600080625A60FB681B689A68FB681B6842F4BE
:1032700080729A60FB68986BFB681B684C33194638
:10328000BA687B6800F004FD7B695B6803F01F038C
:10329000002B2AD1FB681B682D4A934215D0FB688E
:1032A0001B682C4A934205D1254B5B6803F01F0332
:1032B000002B0AD0FB681B68274A934236D1204B6B
:1032C0005B6803F01003002B30D1FB681B689B6820
:1032D00003F04053002B29D1FB681B689A68FB68F8
:1032E0001B6842F080429A6020E0FB681B68184A25
:1032F00093421BD1FB681B689B6803F04053002B73
:1033000014D1FB681B689A68FB681B6842F0804216
:103310009A600BE0FB681B6C43F01002FB681A64B8
:10332000FB685B6C43F00102FB685A64002318469B
:103330001837BD4680BD00BF0000002083DE1B4360
:1033400000230140D53700088F380008AB3800084B
:1033500000200140002101400022014080B483B0E0
:1033600000AF786000BF0C37BD465DF8047B704746
:1033700080B483B000AF786000BF0C37BD465DF805
:10338000047B704780B483B000AF786000BF0C3717
:10339000BD465DF8047B704780B485B000AF7860AF
:1033A00039600023BB607B6893F83C30012B01D16E
:1033B000022305E17B68012283F83C203B681B68FF
:1033C000092B25D97B681B68D9683B681B689BB2B1
:1033D0001A4613465B0013441E3B072202FA03F30E
:1033E000DA437B681B680A40DA607B681B68D9682F
:1033F0003B689A683B681B689BB2184603465B00B3
:1034000003441E3B9A407B681B680A43DA6022E053
:103410007B681B6819693B681B689BB21A46134698
:103420005B001344072202FA03F3DA437B681B684C
:103430000A401A617B681B6819693B689A683B6897
:103440001B689BB2184603465B0003449A407B68A6
:103450001B680A431A613B685B68062B24D87B68AB
:103460001B68596B3B685A6813469B001344053B25
:103470001F2202FA03F3DA437B681B680A405A638F
:103480007B681B68596B3B681B689BB218463B689E
:103490005A6813469B001344053B00FA03F27B680D
:1034A0001B680A435A634CE03B685B680C2B24D8CA
:1034B0007B681B68196B3B685A6813469B00134472
:1034C000233B1F2202FA03F3DA437B681B680A409E
:1034D0001A637B681B68196B3B681B689BB21846B4
:1034E0003B685A6813469B001344233B00FA03F2DF
:1034F0007B681B680A431A6323E07B681B68D96AF0
:103500003B685A6813469B001344413B1F2202FA52
:1035100003F3DA437B681B680A40DA627B681B6846
:10352000D96A3B681B689BB218463B685A681346C9
:103530009B001344413B00FA03F27B681B680A437B
:10354000DA62224BFB607B681B68214A934209D1F7
:103550003B681B68122B05D1FB685B6843F4800253
:10356000FB685A607B681B68194A934223D13B6809
:103570001B68102B03D03B681B68112B1BD1FB6809
:103580005B6843F40002FB685A603B681B68102BC1
:1035900011D1104B1B68104AA2FB03239A0C13464F
:1035A0009B0013445B00BB6002E0BB68013BBB6057
:1035B000BB68002BF9D17B68002283F83C200023F4
:1035C00018461437BD465DF8047B70470023014060
:1035D000002001400000002083DE1B4380B485B042
:1035E00000AF7860794BFB60FB685B6823F4403286
:1035F000FB685A60FB685A687B685B681A43FB6823
:103600005A607B681B685A687B681B6822F480726A
:103610005A607B681B6859687B681B691A027B6863
:103620001B680A435A607B681B685A687B681B6882
:1036300022F040725A607B681B6859687B689A6800
:103640007B681B680A435A607B681B689A687B68C2
:103650001B6822F400629A607B681B6899687B682B
:10366000DA687B681B680A439A607B689B6A584AE1
:10367000934222D07B681B689A687B681B6822F0A3
:1036800070629A607B681B6899687B689A6A7B683D
:103690001B680A439A607B681B689A687B681B6892
:1036A00022F040529A607B681B6899687B68DA6AEE
:1036B0007B681B680A439A600FE07B681B689A6806
:1036C0007B681B6822F070629A607B681B689A684E
:1036D0007B681B6822F040529A607B681B689A687E
:1036E0007B681B6822F002029A607B681B689968FD
:1036F0007B681B7E5A007B681B680A439A607B6864
:1037000093F82030002B1BD07B681B685A687B68BD
:103710001B6842F400625A607B681B685A687B68C9
:103720001B6822F460425A607B681B6859687B689A
:103730005B6A013B5A037B681B680A435A6007E0D7
:103740007B681B685A687B681B6822F400625A60B9
:103750007B681B68DA6A7B681B6822F47002DA6295
:103760007B681B68D96A7B68DB69013B1A057B684B
:103770001B680A43DA627B681B689A687B681B686F
:1037800022F400729A607B681B6899687B6893F8E2
:1037900030305A027B681B680A439A607B681B685A
:1037A0009A687B681B6822F480629A607B681B6859
:1037B00099687B685B699A027B681B680A439A6018
:1037C00000BF1437BD465DF8047B704700230140FD
:1037D0000100000F80B584B000AF78607B689B6B00
:1037E000FB60FB681B6C03F05003002B3CD1FB68B3
:1037F0001B6C43F40072FB681A64FB681B689B68CF
:1038000003F04053002B2BD1FB681B7E002B27D1EC
:10381000FB681B68DB6A03F47003002B06D0FB68AF
:103820001B689B6803F48063002B19D1FB681B683D
:103830005A68FB681B6822F020025A60FB681B6C08
:1038400023F48072FB681A64FB681B6C03F48053DA
:10385000002B05D1FB681B6C43F00102FB681A6466
:10386000F868FFF77BFD0EE0FB681B6C03F01003AC
:10387000002B03D0F868FFF785FD04E0FB689B6B25
:10388000DB6C7868984700BF1037BD4680BD80B5B7
:1038900084B000AF78607B689B6BFB60F868FFF7D3
:1038A00067FD00BF1037BD4680BD80B584B000AF56
:1038B00078607B689B6BFB60FB6840221A64FB6846
:1038C0005B6C43F00402FB685A64F868FFF75AFD2A
:1038D00000BF1037BD4680BD80B485B000AF7860B2
:1038E0007B6803F00703FB600C4BDB68BB60BA68C6
:1038F0004FF6FF031340BB60FB681A02BB6813431B
:1039000043F0BF6343F40033BB60044ABB68D36039
:1039100000BF1437BD465DF8047B704700ED00E042
:1039200080B400AF044BDB681B0A03F007031846A2
:10393000BD465DF8047B704700ED00E080B483B0C5
:1039400000AF0346FB7197F90730002B0BDBFB79C7
:1039500003F01F02074997F907305B09012000FABD
:1039600002F241F8232000BF0C37BD465DF8047B0E
:10397000704700BF00E100E080B483B000AF0346B1
:103980003960FB7197F90730002B0ADB3B68DAB22C
:103990000C4997F907301201D2B20B4483F8002387
:1039A0000AE03B68DAB20849FB7903F00F03043BF5
:1039B0001201D2B20B441A7600BF0C37BD465DF837
:1039C000047B704700E100E000ED00E080B489B0C6
:1039D00000AFF860B9607A60FB6803F00703FB6131
:1039E000FB69C3F10703042B28BF0423BB61FB69F8
:1039F0000433062B02D9FB69033B00E000237B6103
:103A00004FF0FF32BB6902FA03F3DA43BB681A4096
:103A10007B699A404FF0FF317B6901FA03F3D94388
:103A20007B680B40134318462437BD465DF8047B82
:103A30007047000080B582B000AF78607B68013BC2
:103A4000B3F1807F01D301230FE00A4A7B68013B79
:103A500053600F214FF0FF30FFF78EFF054B002220
:103A60009A60044B07221A60002318460837BD46A7
:103A700080BD00BF10E000E080B582B000AF78608C
:103A80007868FFF729FF00BF0837BD4680BD80B5C5
:103A900086B000AF0346B9607A60FB7300237B6198
:103AA000FFF73EFF78617A68B9687869FFF78EFFA3
:103AB000024697F90F3011461846FFF75DFF00BF29
:103AC0001837BD4680BD80B582B000AF0346FB719C
:103AD00097F907301846FFF731FF00BF0837BD469A
:103AE00080BD80B582B000AF78607868FFF7A2FF34
:103AF000034618460837BD4680BD000080B483B039
:103B000000AF78607B68042B06D1094B1B68084A1C
:103B100043F00403136005E0054B1B68044A23F0DF
:103B20000403136000BF0C37BD465DF8047B70478B
:103B300010E000E080B586B000AF786000237B61C4
:103B4000FFF796FA38617B68002B01D1012399E0D9
:103B50007B68022283F835207B68002283F83420BA
:103B60007B681B681A687B681B6822F001021A6078
:103B70000FE0FFF77DFA02463B69D31A052B08D9FF
:103B80007B6820225A657B68032283F83520032353
:103B900078E07B681B681B6803F00103002BE8D109
:103BA0007B681B681B687B617A69384B13407B61BB
:103BB0007B685A687B689B681A437B68DB681A439A
:103BC0007B681B691A437B685B691A437B689B6946
:103BD0001A437B68DB691A437B681B6A13437A6963
:103BE00013437B617B685B6A042B07D17B68DA6ACD
:103BF0007B681B6B13437A6913437B617B681B688B
:103C00007A691A607B681B685B697B617B6923F05A
:103C100007037B617B685B6A7A6913437B617B681E
:103C20005B6A042B17D17B689B6A7A6913437B61BB
:103C30007B68DB6A002B0ED0786800F077F90346CA
:103C4000002B08D07B6840225A657B68012283F8EC
:103C50003520012316E07B681B687A695A61786811
:103C600000F02EF90346FB607B68DB6D3F229A4033
:103C7000FB689A607B6800225A657B68012283F8A2
:103C80003520002318461837BD4680BD3F8010F010
:103C900080B586B000AFF860B9607A603B60002301
:103CA000FB75FB689B6D3B61FB6893F83430012B1F
:103CB00001D1022340E0FB68012283F83420FB6835
:103CC00093F83530DBB2012B2FD1FB68022283F849
:103CD0003520FB6800225A653B687A68B968F86845
:103CE00000F0C0F8FB68DB6D3F229A403B699A60A8
:103CF000FB681B681A68FB681B6842F016021A60B2
:103D0000FB681B6C002B07D0FB681B681A68FB68FC
:103D10001B6842F008021A60FB681B681A68FB689F
:103D20001B6842F001021A6005E0FB68002283F87C
:103D300034200223FB75FB7D18461837BD4680BD35
:103D400080B584B000AF78607B689B6DFB60FFF747
:103D50008FF9B8607B6893F83530DBB2022B08D05E
:103D60007B6880225A657B68002283F83420012317
:103D700052E07B681B681A687B681B6822F0160299
:103D80001A607B681B685A697B681B6822F0800296
:103D90005A617B681B6C002B03D17B689B6C002BEA
:103DA00007D07B681B681A687B681B6822F00802D2
:103DB0001A607B681B681A687B681B6822F0010226
:103DC0001A6013E0FFF754F90246BB68D31A052BBB
:103DD0000CD97B6820225A657B68032283F8352042
:103DE0007B68002283F83420032315E07B681B687E
:103DF0001B6803F00103002BE4D17B68DB6D3F22DD
:103E00009A40FB689A607B68012283F835207B68C2
:103E1000002283F83420002318461037BD4680BDA9
:103E200080B483B000AF78607B6893F83530DBB244
:103E3000022B04D07B6880225A6501230CE07B684A
:103E4000052283F835207B681B681A687B681B682D
:103E500022F001021A60002318460C37BD465DF8B7
:103E6000047B704780B485B000AFF860B9607A60B9
:103E70003B60FB681B681A68FB681B6822F48022A1
:103E80001A60FB681B683A685A60FB689B68402BA5
:103E900008D1FB681B687A689A60FB681B68BA687F
:103EA000DA6007E0FB681B68BA689A60FB681B6809
:103EB0007A68DA6000BF1437BD465DF8047B70474E
:103EC00080B485B000AF78607B681B68DBB2103BC4
:103ED000144AA2FB03231B09FB60134AFB6813442B
:103EE0001B781A467B68DA65FB68032B09D97B6867
:103EF0001B6823F47F7323F003031A1D7B689A6504
:103F000007E07B681B6823F47F7323F003037A6860
:103F100093657B689B6D18461437BD465DF8047B3E
:103F2000704700BFABAAAAAAE8F8000880B485B021
:103F300000AF78600023FB737B689B6ABB607B6883
:103F40009B69002B1FD1BB68032B56D801A252F8E6
:103F500023F000BF653F0008773F0008653F000879
:103F6000FB3F00087B68DB6A03F08073002B46D0C0
:103F70000123FB7343E07B68DB6AB3F1C07F40D170
:103F80000123FB733DE07B689B69B3F5005F21D1A2
:103F9000BB68032B37D801A252F823F0AD3F0008CD
:103FA000B33F0008AD3F0008C53F00080123FB7385
:103FB00030E07B68DB6A03F08073002B25D001239F
:103FC000FB7322E07B68DB6AB3F1C07F1FD1012362
:103FD000FB731CE0BB68022B03D9BB68032B03D027
:103FE00018E00123FB7315E07B68DB6A03F0807344
:103FF000002B0ED00123FB730BE000BF0AE000BFD3
:1040000008E000BF06E000BF04E000BF02E000BF20
:1040100000E000BFFB7B18461437BD465DF8047B0B
:10402000704700BF80B489B000AF7860396000236A
:104030007B6100233B610023BB610023FB616BE1DB
:104040000122FB6902FA03F37B613B681B687A6912
:1040500013403B613A697B699A4240F05A813B6860
:104060005B6803F00303012B05D03B685B6803F03A
:104070000303022B30D17B689B68BB61FB695B004B
:10408000032202FA03F3DB43BA691340BB613B68C6
:10409000DA68FB695B0002FA03F3BA691343BB6198
:1040A0007B68BA699A607B685B68BB610122FB69C7
:1040B00002FA03F3DB43BA691340BB613B685B68F8
:1040C0001B0903F00102FB6902FA03F3BA69134307
:1040D000BB617B68BA695A603B685B6803F00303A5
:1040E000032B17D07B68DB68BB61FB695B00032295
:1040F00002FA03F3DB43BA691340BB613B689A6879
:10410000FB695B0002FA03F3BA691343BB617B6886
:10411000BA69DA603B685B6803F00303022B23D1C2
:10412000FB69DA087B68083253F82230BB61FB690F
:1041300003F007039B000F2202FA03F3DB43BA6983
:104140001340BB613B681A69FB6903F007039B00DE
:1041500002FA03F3BA691343BB61FB69DA087B68AF
:104160000832B96943F822107B681B68BB61FB69A0
:104170005B00032202FA03F3DB43BA691340BB611D
:104180003B685B6803F00302FB695B0002FA03F320
:10419000BA691343BB617B68BA691A603B685B68A4
:1041A00003F44033002B00F0B4800023FB60604B2D
:1041B0005B6C5F4A43F4804353645D4B5B6C03F478
:1041C0008043FB60FB685B4AFB699B08023352F843
:1041D0002330BB61FB6903F003039B000F2202FA4B
:1041E00003F3DB43BA691340BB617B68524A9342D5
:1041F0002BD07B68514A934225D07B68504A93422A
:104200001FD07B684F4A934219D07B684E4A934235
:1042100013D07B684D4A93420DD07B684C4A934241
:1042200007D07B684B4A934201D107230EE0082355
:104230000CE006230AE0052308E0042306E003233C
:1042400004E0022302E0012300E00023FA6902F007
:10425000030292009340BA691343BB613549FB697D
:104260009B080233BA6941F823203B4B9B68BB6132
:104270003B69DB43BA691340BB613B685B6803F48D
:104280008013002B03D0BA693B691343BB61324AE8
:10429000BB699360304BDB68BB613B69DB43BA6948
:1042A0001340BB613B685B6803F40013002B03D031
:1042B000BA693B691343BB61274ABB69D360264B8C
:1042C0005B68BB613B69DB43BA691340BB613B6818
:1042D0005B6803F40033002B03D0BA693B691343D6
:1042E000BB611D4ABB6953601B4B1B68BB613B69CB
:1042F000DB43BA691340BB613B685B6803F48033FE
:10430000002B03D0BA693B691343BB61124ABB69F6
:104310001360FB690133FB61FB690F2B7FF690AEE5
:1043200000BF00BF2437BD465DF8047B704700BF67
:104330000038024000380140000002400004024002
:1043400000080240000C024000100240001402402D
:1043500000180240001C0240003C014080B483B0C1
:1043600000AF78600B467B8013467B707B78002B18
:1043700003D07A887B689A6103E07B881A047B68A3
:104380009A6100BF0C37BD465DF8047B704780B46E
:1043900085B000AF78600B467B807B685B69FB6013
:1043A0007A88FB6813401A04FB68D9437B880B406A
:1043B0001A437B689A6100BF1437BD465DF8047BE1
:1043C0007047000080B586B000AF78607B68002B36
:1043D00001D1012367E27B681B6803F00103002B16
:1043E00075D0884B9B6803F00C03042B0CD0854BD5
:1043F0009B6803F00C03082B12D1824B5B6803F41B
:104400008003B3F5800F0BD17E4B1B6803F40033A0
:10441000002B5BD07B685B68002B57D1012342E205
:104420007B685B68B3F5803F06D1764B1B68754AA5
:1044300043F4803313601DE07B685B68B3F5A02F05
:104440000CD1704B1B686F4A43F4802313606D4B93
:104450001B686C4A43F4803313600BE0694B1B68A4
:10446000684A23F480331360664B1B68654A23F463
:10447000802313607B685B68002B13D0FEF7F8FD88
:10448000386108E0FEF7F4FD02463B69D31A642B5D
:1044900001D9032307E25B4B1B6803F40033002BB5
:1044A000F0D014E0FEF7E4FD386108E0FEF7E0FD2F
:1044B00002463B69D31A642B01D90323F3E1514B24
:1044C0001B6803F40033002BF0D100E000BF7B68D1
:1044D0001B6803F00203002B63D04A4B9B6803F078
:1044E0000C03002B0BD0474B9B6803F00C03082BED
:1044F0001CD1444B5B6803F48003002B16D1414B65
:104500001B6803F00203002B05D07B68DB68012BDE
:1045100001D00123C7E13B4B1B6823F0F8027B6805
:104520001B69DB00374913430B603AE07B68DB68AB
:10453000002B20D0344B01221A60FEF799FD386120
:1045400008E0FEF795FD02463B69D31A022B01D91C
:104550000323A8E12B4B1B6803F00203002BF0D0D0
:10456000284B1B6823F0F8027B681B69DB00254998
:1045700013430B6015E0244B00221A60FEF778FD10
:10458000386108E0FEF774FD02463B69D31A022B3E
:1045900001D9032387E11B4B1B6803F00203002BA7
:1045A000F0D17B681B6803F00803002B36D07B68D2
:1045B0005B69002B16D0154B01221A60FEF758FDDF
:1045C000386108E0FEF754FD02463B69D31A022B1E
:1045D00001D9032367E10B4B5B6F03F00203002B50
:1045E000F0D01BE0094B00221A60FEF741FD386154
:1045F0000EE0FEF73DFD02463B69D31A022B07D9B8
:10460000032350E10038024000004742800E474239
:10461000884B5B6F03F00203002BEAD17B681B68B9
:1046200003F00403002B00F097800023FB75814BFF
:104630001B6C03F08053002B0FD10023BB607D4B1C
:104640001B6C7C4A43F0805313647A4B1B6C03F061
:104650008053BB60BB680123FB75774B1B6803F479
:104660008073002B18D1744B1B68734A43F480731A
:104670001360FEF7FDFC386108E0FEF7F9FC024626
:104680003B69D31A022B01D903230CE16A4B1B6847
:1046900003F48073002BF0D07B689B68012B06D15C
:1046A000644B1B6F634A43F0010313671CE07B6894
:1046B0009B68052B0CD15F4B1B6F5E4A43F00403D4
:1046C00013675C4B1B6F5B4A43F0010313670BE0FE
:1046D000584B1B6F574A23F001031367554B1B6F51
:1046E000544A23F0040313677B689B68002B15D0A2
:1046F000FEF7BEFC38610AE0FEF7BAFC02463B69F1
:10470000D31A41F28832934201D90323CBE0494BBB
:104710001B6F03F00203002BEED014E0FEF7A8FCA1
:1047200038610AE0FEF7A4FC02463B69D31A41F265
:104730008832934201D90323B5E03E4B1B6F03F04F
:104740000203002BEED1FB7D012B05D1394B1B6CF5
:10475000384A23F0805313647B689B69002B00F078
:10476000A180344B9B6803F00C03082B5CD07B6862
:104770009B69022B41D1314B00221A60FEF778FC75
:10478000386108E0FEF774FC02463B69D31A022B3D
:1047900001D9032387E0274B1B6803F00073002B2C
:1047A000F0D17B68DA697B681B6A1A437B685B6AB5
:1047B0009B011A437B689B6A5B08013B1B041A43FD
:1047C0007B68DB6A1B061B4913434B601B4B0122B2
:1047D0001A60FEF74DFC386108E0FEF749FC02461E
:1047E0003B69D31A022B01D903235CE0114B1B68F0
:1047F00003F00073002BF0D054E0104B00221A603D
:10480000FEF736FC386108E0FEF732FC02463B69F1
:10481000D31A022B01D9032345E0064B1B6803F092
:104820000073002BF0D13DE07B689B69012B07D121
:10483000012338E000380240007000406000474229
:104840001B4B5B68FB607B689B69012B28D0FB6876
:1048500003F480027B68DB699A4221D1FB6803F094
:104860003F027B681B6A9A421AD1FA6847F6C07306
:1048700013407A68526A9201934211D1FB6803F4A3
:1048800040327B689B6A5B08013B1B049A4207D15C
:10489000FB6803F070627B68DB6A1B069A4201D0FA
:1048A000012300E0002318461837BD4680BD00BF35
:1048B0000038024080B584B000AF786039607B6812
:1048C000002B01D10123CCE0684B1B6803F00703E8
:1048D0003A689A420CD9654B3A68D2B21A70634B67
:1048E0001B6803F007033A689A4201D00123B8E03D
:1048F0007B681B6803F00203002B20D07B681B68D9
:1049000003F00403002B05D0594B9B68584A43F42D
:10491000E05393607B681B6803F00803002B05D00D
:10492000534B9B68524A43F460439360504B9B68DF
:1049300023F0F0027B689B684D4913438B607B68D2
:104940001B6803F00103002B44D07B685B68012BDC
:1049500007D1474B1B6803F40033002B19D1012307
:104960007FE07B685B68022B03D07B685B68032B6E
:1049700007D13F4B1B6803F00073002B09D10123C3
:104980006FE03B4B1B6803F00203002B01D10123B6
:1049900067E0374B9B6823F003027B685B68344910
:1049A00013438B60FEF764FBF8600AE0FEF760FBE0
:1049B0000246FB68D31A41F28832934201D903239D
:1049C0004FE02B4B9B6803F00C027B685B689B00FD
:1049D0009A42EBD1254B1B6803F007033A689A42D1
:1049E0000CD2224B3A68D2B21A70204B1B6803F0EB
:1049F00007033A689A4201D0012332E07B681B68C2
:104A000003F00403002B08D0194B9B6823F4E052F9
:104A10007B68DB68164913438B607B681B6803F077
:104A20000803002B09D0124B9B6823F460427B687B
:104A30001B69DB000E4913438B6000F021F802462E
:104A40000B4B9B681B0903F00F030A49CB5C22FA4E
:104A500003F3094A1360094B1B681846FEF7C4FAB2
:104A6000002318461037BD4680BD00BF003C024001
:104A700000380240C0F80008000000200C000020B0
:104A80002DE9B04F94B000AF00237B640023FB649A
:104A900000233B640023BB64794B9B6803F00C0349
:104AA000082B0DD0082B00F2E180002B02D0042B44
:104AB00003D0DBE0734BBB64DBE0734BBB64D8E03B
:104AC0006F4B5B6803F03F037B646D4B5B6803F4E3
:104AD0008003002B63D06A4B5B689B090022BB6399
:104AE000FA63BB6BC3F308033B6300237B63D7E923
:104AF0000C4522462B464FF000004FF000015901B3
:104B000041EAD261500102460B462146511A3961F1
:104B1000294663EB01037B614FF000024FF0000375
:104B2000D7E904AB59468B01514643EA916351469C
:104B30008A015146B2EB0108594663EB01094FF077
:104B400000024FF000034FEAC90343EA58734FEAEB
:104B5000C80290469946234618EB0303BB602B46D8
:104B600049EB0303FB604FF000024FF00003D7E96D
:104B7000024529464B02214643EAD15321464A02C7
:104B8000104619467B6C0022BB62FA62D7E90A2301
:104B9000FCF77AF802460B461346FB6458E0384BA4
:104BA0005B689B09002218461146C0F308033B626C
:104BB00000237B62D7E9088942464B464FF000004C
:104BC0004FF00001590141EAD261500102460B4603
:104BD0004146B2EB010A494663EB010B4FF000027C
:104BE0004FF000034FEA8B1343EA9A634FEA8A12AD
:104BF000B2EB0A0463EB0B054FF000024FF0000329
:104C0000EB0043EA5473E20014461D464346E318A2
:104C10003B604B4645EB03037B604FF000024FF0D7
:104C20000003D7E9004529468B02214643EA915308
:104C300021468A02104619467B6C0022BB61FA614C
:104C4000D7E90623FCF720F802460B461346FB641F
:104C50000B4B5B681B0C03F0030301335B003B64ED
:104C6000FA6C3B6CB2FBF3F3BB6402E0054BBB6434
:104C700000BFBB6C18465037BD46BDE8B08F00BFC3
:104C8000003802400024F40000127A0080B400AF23
:104C9000034B1B681846BD465DF8047B704700BF98
:104CA0000000002080B500AFFFF7F0FF0246054B83
:104CB0009B689B0A03F007030349CB5C22FA03F3CA
:104CC000184680BD00380240D0F8000880B500AF1B
:104CD000FFF7DCFF0246054B9B685B0B03F0070305
:104CE0000349CB5C22FA03F3184680BD003802402A
:104CF000D0F8000880B582B000AF78607B68002BE8
:104D000001D1012341E07B6893F83D30DBB2002BF9
:104D100006D17B68002283F83C207868FDF770FE9E
:104D20007B68022283F83D207B681A687B68043325
:104D30001946104600F050FE7B68012283F8462099
:104D40007B68012283F83E207B68012283F83F20A4
:104D50007B68012283F840207B68012283F8412090
:104D60007B68012283F842207B68012283F843207C
:104D70007B68012283F844207B68012283F8452068
:104D80007B68012283F83D20002318460837BD4682
:104D900080BD000080B485B000AF78607B6893F878
:104DA0003D30DBB2012B01D0012346E07B680222BB
:104DB00083F83D207B681B68234A934222D07B689E
:104DC0001B68B3F1804F1DD07B681B681F4A93425C
:104DD00018D07B681B681E4A934213D07B681B68FF
:104DE0001C4A93420ED07B681B681B4A934209D031
:104DF0007B681B68194A934204D07B681B68184A79
:104E0000934211D17B681B689B6803F00703FB602A
:104E1000FB68062B10D07B681B681A687B681B68D0
:104E200042F001021A6007E07B681B681A687B6821
:104E30001B6842F001021A60002318461437BD4671
:104E40005DF8047B704700BF000001400004004093
:104E500000080040000C00400004014000400140F8
:104E60000018004080B485B000AF78607B6893F88C
:104E70003D30DBB2012B01D001234EE07B680222E2
:104E800083F83D207B681B68DA687B681B6842F00A
:104E90000102DA607B681B68234A934222D07B6858
:104EA0001B68B3F1804F1DD07B681B681F4A93427B
:104EB00018D07B681B681E4A934213D07B681B681E
:104EC0001C4A93420ED07B681B681B4A934209D050
:104ED0007B681B68194A934204D07B681B68184A98
:104EE000934211D17B681B689B6803F00703FB604A
:104EF000FB68062B10D07B681B681A687B681B68F0
:104F000042F001021A6007E07B681B681A687B6840
:104F10001B6842F001021A60002318461437BD4690
:104F20005DF8047B704700BF0000014000040040B2
:104F300000080040000C0040000401400040014017
:104F40000018004080B582B000AF78607B68002B0D
:104F500001D1012341E07B6893F83D30DBB2002BA7
:104F600006D17B68002283F83C207868FDF75AFF61
:104F70007B68022283F83D207B681A687B680433D3
:104F80001946104600F028FD7B68012283F8462070
:104F90007B68012283F83E207B68012283F83F2052
:104FA0007B68012283F840207B68012283F841203E
:104FB0007B68012283F842207B68012283F843202A
:104FC0007B68012283F844207B68012283F8452016
:104FD0007B68012283F83D20002318460837BD4630
:104FE00080BD000080B584B000AF786039600023D8
:104FF000FB733B68002B09D17B6893F83E30DBB232
:10500000012B14BF01230023DBB222E03B68042BF9
:1050100009D17B6893F83F30DBB2012B14BF012329
:105020000023DBB215E03B68082B09D17B6893F8BD
:105030004030DBB2012B14BF01230023DBB208E0B8
:105040007B6893F84130DBB2012B14BF01230023AE
:10505000DBB2002B01D00123C7E03B68002B04D159
:105060007B68022283F83E2013E03B68042B04D1C6
:105070007B68022283F83F200BE03B68082B04D1B9
:105080007B68022283F8402003E07B68022283F8D9
:1050900041203B680C2B41D801A252F823F000BFFD
:1050A000D55000081D5100081D5100081D51000871
:1050B000E75000081D5100081D5100081D5100084F
:1050C000F95000081D5100081D5100081D5100082D
:1050D0000B5100087B681B68DA687B681B6842F02C
:1050E0000202DA601DE07B681B68DA687B681B6877
:1050F00042F00402DA6014E07B681B68DA687B68BF
:105100001B6842F00802DA600BE07B681B68DA6813
:105110007B681B6842F01002DA6002E00123FB7337
:1051200000BFFB7B002B5FD17B681B6801223968C5
:10513000184600F0A1FE7B681B682E4A934204D0FB
:105140007B681B682C4A934201D1012300E00023B5
:10515000002B07D07B681B685A6C7B681B6842F485
:1051600000425A647B681B68224A934222D07B68C3
:105170001B68B3F1804F1DD07B681B681F4A9342A8
:1051800018D07B681B681E4A934213D07B681B684B
:105190001C4A93420ED07B681B68174A934209D081
:1051A0007B681B68184A934204D07B681B68174AC7
:1051B000934211D17B681B689B6803F00703BB60B7
:1051C000BB68062B10D07B681B681A687B681B685D
:1051D00042F001021A6007E07B681B681A687B686E
:1051E0001B6842F001021A60FB7B18461037BD466F
:1051F00080BD00BF000001400004014000040040E9
:1052000000080040000C0040004001400018004031
:1052100080B584B000AF786039600023FB733B68D1
:105220000C2B41D801A252F823F000BF61520008B4
:10523000A9520008A9520008A95200087352000898
:10524000A9520008A9520008A95200088552000876
:10525000A9520008A9520008A95200089752000854
:105260007B681B68DA687B681B6822F00202DA60E0
:105270001DE07B681B68DA687B681B6822F004020B
:10528000DA6014E07B681B68DA687B681B6822F0D0
:105290000802DA600BE07B681B68DA687B681B68D1
:1052A00022F01002DA6002E00123FB7300BFFB7BF7
:1052B000002B61D17B681B6800223968184600F01A
:1052C000DBFD7B681B682F4A934204D07B681B6818
:1052D0002D4A934201D1012300E00023002B17D077
:1052E0007B681B681A6A41F211131340002B0FD11F
:1052F0007B681B681A6A40F244431340002B07D1B5
:105300007B681B685A6C7B681B6822F400425A64F5
:105310007B681B681A6A41F211131340002B0FD1EE
:105320007B681B681A6A40F244431340002B07D184
:105330007B681B681A687B681B6822F001021A6090
:105340003B68002B04D17B68012283F83E2013E0E8
:105350003B68042B04D17B68012283F83F200BE0DB
:105360003B68082B04D17B68012283F8402003E0CE
:105370007B68012283F84120FB7B18461037BD462D
:1053800080BD00BF000001400004014080B582B034
:1053900000AF786039607B681B6800223968184666
:1053A00000F06AFD7B681B682E4A934204D07B683C
:1053B0001B682D4A934201D1012300E00023002BFA
:1053C00017D07B681B681A6A41F211131340002B37
:1053D0000FD17B681B681A6A40F244431340002BCC
:1053E00007D17B681B685A6C7B681B6822F40042FB
:1053F0005A647B681B681A6A41F211131340002B30
:105400000FD17B681B681A6A40F244431340002B9B
:1054100007D17B681B681A687B681B6822F0010251
:105420001A603B68002B04D17B68012283F83E2080
:1054300013E03B68042B04D17B68012283F83F20F2
:105440000BE03B68082B04D17B68012283F84020E5
:1054500003E07B68012283F84120002318460837C7
:10546000BD4680BD000001400004014080B586B00B
:1054700000AF786039607B68002B01D1012397E091
:105480007B6893F83D30DBB2002B06D17B680022AD
:1054900083F83C207868FDF73BFB7B68022283F8A9
:1054A0003D207B681B689B687A68126823F4804300
:1054B00023F0070393607B681A687B6804331946FE
:1054C000104600F089FA7B681B689B687B617B68EB
:1054D0001B689B693B617B681B681B6AFB603B68C0
:1054E0001B687A6913437B613B6923F4407323F0A3
:1054F00003033B613B689A683B689B691B0213434B
:105500003A6913433B613B6923F4406323F00C0386
:105510003B613B6923F4704323F0F0033B613B683C
:10552000DA683B68DB691B0213433A6913433B614A
:105530003B681B691A013B681B6A1B0313433A69EA
:1055400013433B61FB6823F02203FB60FB6823F0FD
:105550008803FB603B685A683B685B691B01134327
:10556000FA681343FB607B681B687A699A607B6802
:105570001B683A699A617B681B68FA681A627B68E3
:10558000012283F846207B68012283F83E207B6855
:10559000012283F83F207B68012283F842207B6848
:1055A000012283F843207B68012283F83D200023F9
:1055B00018461837BD4680BD80B584B000AF78600E
:1055C00039607B6893F83E30FB737B6893F83F301B
:1055D000BB737B6893F842307B737B6893F84330EE
:1055E0003B733B68002B10D1FB7B012B02D17B7BF3
:1055F000012B01D0012369E07B68022283F83E2061
:105600007B68022283F8422031E03B68042B10D1F2
:10561000BB7B012B02D13B7B012B01D0012355E049
:105620007B68022283F83F207B68022283F84320B4
:105630001DE0FB7B012B08D1BB7B012B05D17B7BC4
:10564000012B02D13B7B012B01D001233EE07B6883
:10565000022283F83E207B68022283F83F207B6889
:10566000022283F842207B68022283F843203B68B1
:10567000002B03D03B68042B08D00FE07B681B682D
:1056800001220021184600F0F7FB16E07B681B683A
:1056900001220421184600F0EFFB0EE07B681B6836
:1056A00001220021184600F0E7FB7B681B680122FD
:1056B0000421184600F0E0FB00BF7B681B681A68F5
:1056C0007B681B6842F001021A60002318461037FD
:1056D000BD4680BD80B582B000AF78607B681B6836
:1056E0001B6903F00203022B22D17B681B68DB6875
:1056F00003F00203022B1BD17B681B686FF00202D0
:105700001A617B6801221A777B681B689B6903F02A
:105710000303002B03D0786800F040F905E07868B7
:10572000FDF716FC786800F043F97B6800221A77D1
:105730007B681B681B6903F00403042B22D17B6880
:105740001B68DB6803F00403042B1BD17B681B6818
:105750006FF004021A617B6802221A777B681B686B
:105760009B6903F44073002B03D0786800F016F9AE
:1057700005E07868FDF7ECFB786800F019F97B68C4
:1057800000221A777B681B681B6903F00803082B4B
:1057900022D17B681B68DB6803F00803082B1BD150
:1057A0007B681B686FF008021A617B6804221A7715
:1057B0007B681B68DB6903F00303002B03D0786868
:1057C00000F0ECF805E07868FDF7C2FB786800F0BF
:1057D000EFF87B6800221A777B681B681B6903F06F
:1057E0001003102B22D17B681B68DB6803F01003C9
:1057F000102B1BD17B681B686FF010021A617B684D
:1058000008221A777B681B68DB6903F44073002B5E
:1058100003D0786800F0C2F805E07868FDF798FBDF
:10582000786800F0C5F87B6800221A777B681B68EF
:105830001B6903F00103012B0ED17B681B68DB6839
:1058400003F00103012B07D17B681B686FF0010295
:105850001A617868FDF7E2F97B681B681B6903F041
:105860008003802B0ED17B681B68DB6803F080030C
:10587000802B07D17B681B686FF080021A61786803
:1058800000F029FB7B681B681B6903F04003402B79
:105890000ED17B681B68DB6803F04003402B07D107
:1058A0007B681B686FF040021A61786800F08AF824
:1058B0007B681B681B6903F02003202B0ED17B68DB
:1058C0001B68DB6803F02003202B07D17B681B6873
:1058D0006FF020021A61786800F0F3FA00BF083711
:1058E000BD4680BD80B586B000AFF860B9607A6013
:1058F0000023FB75FB6893F83C30012B01D1022398
:1059000048E0FB68012283F83C207B680C2B39D8E7
:1059100001A252F823F000BF4D5900088559000834
:1059200085590008855900085B5900088559000809
:1059300085590008855900086959000885590008EB
:10594000855900088559000877590008FB681B68CD
:10595000B968184600F0E0F817E0FB681B68B96802
:10596000184600F049F910E0FB681B68B968184652
:1059700000F0B8F909E0FB681B68B968184600F048
:1059800025FA02E00123FB7500BFFB68002283F8C3
:105990003C20FB7D18461837BD4680BD80B483B0DF
:1059A00000AF786000BF0C37BD465DF8047B7047E0
:1059B00080B483B000AF786000BF0C37BD465DF89F
:1059C000047B704780B483B000AF786000BF0C37B1
:1059D000BD465DF8047B704780B485B000AF786049
:1059E00039607B681B68FB607B68404A934213D038
:1059F0007B68B3F1804F0FD07B683D4A93420BD058
:105A00007B683C4A934207D07B683B4A934203D071
:105A10007B683A4A934208D1FB6823F07003FB602D
:105A20003B685B68FA681343FB607B682F4A9342CC
:105A30002BD07B68B3F1804F27D07B682C4A9342F0
:105A400023D07B682B4A93421FD07B682A4A93421B
:105A50001BD07B68294A934217D07B68284A93421F
:105A600013D07B68274A93420FD07B68264A934223
:105A70000BD07B68254A934207D07B68244A934227
:105A800003D07B68234A934208D1FB6823F4407318
:105A9000FB603B68DB68FA681343FB60FB6823F03C
:105AA00080023B685B691343FB607B68FA681A609D
:105AB0003B689A687B68DA623B681A687B689A621E
:105AC0007B680A4A934203D07B680C4A934203D115
:105AD0003B681A697B681A637B6801225A6100BFC0
