:020000040800F2
:100000000000022035130008091100081111000832
:100010004D1100085311000859110008000000009C
:10002000000000000000000000000000A1380108EE
:100030005F11000800000000F13A01086D1100088E
:100040008513000885130008851300088D39000802
:100050008513000885130008013200086532000886
:10006000851300088513000819320008851300085D
:100070008513000885130008851300088513000800
:1000800085130008851300088513000885130008F0
:100090008513000885130008851300084D320008F9
:1000A00085130008851300088513000885130008D0
:1000B00085130008213E00088513000885130008F9
:1000C00085130008851300088513000885130008B0
:1000D0008513000801BC000885130008851300087B
:1000E000313200085D3900088513000885130008C7
:1000F00085130008851300080143000885130008D4
:10010000851300088513000885130008851300086F
:100110008513000851360008693D00088513000862
:10012000A92C000885130008851300088513000812
:10013000C12B0008851300088513000885130008EB
:10014000851300088513000885130008794001080D
:10015000851300088513000885130008851300081F
:10016000851300088513000885130008851300080F
:10017000851300088513000885130008000000009F
:08018000851300088513000837
:1001900010B5054C237833B9044B13B10448AFF3C1
:1001A00000800123237010BD3002002000000000F9
:1001B00098C1010808B5034B1BB103490348AFF3CD
:1001C000008008BD000000003402002098C1010832
:1001D000034613F8012B002AFBD1181A0138704787
:1001E00001F0FF01102A2BDB10F0070F08D010F8E8
:1001F000013B013A8B422DD010F0070F42B3F6D1EC
:10020000F0B441EA012141EA014122F007047FF004
:1002100000070023F0E80256083C85EA010586EA5B
:10022000010685FA47F5A3FA87F586FA47F6A5FA97
:1002300087F68EB9EED1F0BC01F0FF0102F00702A3
:1002400032B110F8013B013A83EA010313B1F8D14E
:100250000020704701387047002D06BF354603382F
:10026000073815F0010F07D1013015F4807F02BF68
:10027000013015F4C03F0130F0BC0138704700BFB9
:1002800081F0004102E000BF83F0004330B54FEA47
:1002900041044FEA430594EA050F08BF90EA020FB4
:1002A0001FBF54EA000C55EA020C7FEA645C7FEA47
:1002B000655C00F0E2804FEA5454D4EB5555B8BF6A
:1002C0006D420CDD2C4480EA020281EA030382EADB
:1002D000000083EA010180EA020281EA0303362D6D
:1002E00088BF30BD11F0004F4FEA01314FF4801C40
:1002F0004CEA113102D0404261EB410113F0004F52
:100300004FEA03334CEA133302D0524263EB430308
:1003100094EA050F00F0A780A4F10104D5F1200EA6
:100320000DDB02FA0EFC22FA05F2801841F1000101
:1003300003FA0EF2801843FA05F359410EE0A5F1D5
:1003400020050EF1200E012A03FA0EFC28BF4CF006
:10035000020C43FA05F3C01851EBE37101F00045BC
:1003600007D54FF0000EDCF1000C7EEB00006EEBC9
:100370000101B1F5801F1BD3B1F5001F0CD3490853
:100380005FEA30004FEA3C0C04F101044FEA4452AA
:1003900012F5800F80F09A80BCF1004F08BF5FEA31
:1003A000500C50F1000041EB045141EA050130BD11
:1003B0005FEA4C0C404141EB0101013C28BFB1F523
:1003C000801FE9D291F0000F04BF01460020B1FA6E
:1003D00081F308BF2033A3F10B03B3F120020CDA41
:1003E0000C3208DD02F1140CC2F10C0201FA0CF01F
:1003F00021FA02F10CE002F11402D8BFC2F1200C84
:1004000001FA02F120FA0CFCDCBF41EA0C01904039
:10041000E41AA2BF01EB0451294330BD6FEA040482
:100420001F3C1CDA0C340EDC04F11404C4F120026D
:1004300020FA04F001FA02F340EA030021FA04F37F
:1004400045EA030130BDC4F10C04C4F1200220FAD6
:1004500002F001FA04F340EA0300294630BD21FA14
:1004600004F0294630BD94F0000F83F4801306BFDA
:1004700081F480110134013D4EE77FEA645C18BFCE
:100480007FEA655C29D094EA050F08BF90EA020F65
:1004900005D054EA000C04BF1946104630BD91EA5D
:1004A000030F1EBF0021002030BD5FEA545C05D160
:1004B0004000494128BF41F0004130BD14F580049F
:1004C0003CBF01F5801130BD01F0004545F0FE4113
:1004D00041F470014FF0000030BD7FEA645C1ABF48
:1004E000194610467FEA655C1CBF0B46024650EA7F
:1004F000013406BF52EA033591EA030F41F40021AB
:1005000030BD00BF90F0000F04BF0021704730B530
:100510004FF4806404F132044FF000054FF0000105
:1005200050E700BF90F0000F04BF0021704730B5C6
:100530004FF4806404F1320410F0004548BF40429B
:100540004FF000013EE700BF42004FEAE2014FEAF0
:1005500031014FEA02701FBF12F07F4393F07F4FCB
:1005600081F06051704732F07F4208BF704793F0CE
:100570007F4F04BF41F40021704730B54FF46074E1
:1005800001F0004521F000411CE700BF50EA0102E4
:1005900008BF704730B54FF000050AE050EA01028D
:1005A00008BF704730B511F0004502D5404261EBFD
:1005B00041014FF4806404F132045FEA915C3FF43E
:1005C000D8AE4FF003025FEADC0C18BF03325FEADB
:1005D000DC0C18BF033202EBDC02C2F1200300FA8C
:1005E00003FC20FA02F001FA03FE40EA0E0021FAB1
:1005F00002F11444BDE600BF70B54FF0FF0C4CF49F
:10060000E06C1CEA11541DBF1CEA135594EA0C0F50
:1006100095EA0C0F00F0DEF82C4481EA030621EA8B
:100620004C5123EA4C5350EA013518BF52EA0335C6
:1006300041F4801143F4801338D0A0FB02CE4FF078
:100640000005E1FB02E506F00042E0FB03E54FF0A8
:100650000006E1FB03569CF0000F18BF4EF0010EA0
:10066000A4F1FF04B6F5007F64F5407404D25FEA9C
:100670004E0E6D4146EB060642EAC62141EA55514F
:100680004FEAC52040EA5E504FEACE2EB4F1FD0C91
:1006900088BFBCF5E06F1ED8BEF1004F08BF5FEA0F
:1006A000500E50F1000041EB045170BD06F00046C1
:1006B00046EA010140EA020081EA0301B4EB5C046E
:1006C000C2BFD4EB0C0541EA045170BD41F4801166
:1006D0004FF0000E013C00F3AB8014F1360FDEBF8B
:1006E000002001F0004170BDC4F10004203C35DA67
:1006F0000C341BDC04F11404C4F1200500FA05F3EA
:1007000020FA04F001FA05F240EA020001F000428A
:1007100021F0004110EBD37021FA04F642EB060100
:100720005EEA430E08BF20EAD37070BDC4F10C042A
:10073000C4F1200500FA04F320FA05F001FA04F2EE
:1007400040EA020001F0004110EBD37041F10001DA
:100750005EEA430E08BF20EAD37070BDC4F12005E5
:1007600000FA05F24EEA020E20FA04F301FA05F24D
:1007700043EA020321FA04F001F0004121FA04F2F5
:1007800020EA020000EBD3705EEA430E08BF20EAC5
:10079000D37070BD94F0000F0FD101F000464000FF
:1007A00041EB010111F4801F08BF013CF7D041EA81
:1007B000060195F0000F18BF704703F00046520085
:1007C00043EB030313F4801F08BF013DF7D043EA56
:1007D0000603704794EA0C0F0CEA135518BF95EA0C
:1007E0000C0F0CD050EA410618BF52EA4306D1D193
:1007F00081EA030101F000414FF0000070BD50EAB2
:10080000410606BF1046194652EA430619D094EA3B
:100810000C0F02D150EA013613D195EA0C0F05D125
:1008200052EA03361CBF104619460AD181EA030179
:1008300001F0004141F0FE4141F470014FF0000031
:1008400070BD41F0FE4141F4780170BD70B54FF0CC
:10085000FF0C4CF4E06C1CEA11541DBF1CEA13554C
:1008600094EA0C0F95EA0C0F00F0A7F8A4EB05042E
:1008700081EA030E52EA03354FEA013100F0888025
:100880004FEA03334FF0805545EA131343EA1263EE
:100890004FEA022245EA111545EA10654FEA0026A3
:1008A0000EF000419D4208BF964244F1FD0404F55C
:1008B000407402D25B084FEA3202B61A65EB0305B8
:1008C0005B084FEA32024FF480104FF4002CB6EB75
:1008D000020E75EB030E22BFB61A754640EA0C00F5
:1008E0005B084FEA3202B6EB020E75EB030E22BF35
:1008F000B61A754640EA5C005B084FEA3202B6EB76
:10090000020E75EB030E22BFB61A754640EA9C0034
:100910005B084FEA3202B6EB020E75EB030E22BF04
:10092000B61A754640EADC0055EA060E18D04FEAC2
:10093000051545EA16754FEA06164FEAC30343EA62
:1009400052734FEAC2025FEA1C1CC0D111F4801F2F
:100950000BD141EA00014FF000004FF0004CB6E728
:1009600011F4801F04BF01430020B4F1FD0C88BFC7
:10097000BCF5E06F3FF6AFAEB5EB030C04BFB6EBD2
:10098000020C5FEA500C50F1000041EB045170BDC5
:100990000EF0004E4EEA113114EB5C04C2BFD4EBF2
:1009A0000C0541EA045170BD41F480114FF0000E76
:1009B000013C90E645EA060E8DE60CEA135594EAF2
:1009C0000C0F08BF95EA0C0F3FF43BAF94EA0C0FF5
:1009D0000AD150EA01347FF434AF95EA0C0F7FF46A
:1009E00025AF104619462CE795EA0C0F06D152EABE
:1009F00003353FF4FDAE1046194622E750EA4106A2
:100A000018BF52EA43067FF4C5AE50EA41047FF4B2
:100A10000DAF52EA43057FF4EBAE12E74FF0FF3C17
:100A200006E000BF4FF0010C02E000BF4FF0010CE8
:100A30004DF804CD4FEA410C7FEA6C5C4FEA430C61
:100A400018BF7FEA6C5C1BD001B050EA410C0CBFB0
:100A500052EA430C91EA030F02BF90EA020F002012
:100A6000704710F1000F91EA030F58BF994208BF79
:100A700090422CBFD8176FEAE37040F00100704736
:100A80004FEA410C7FEA6C5C02D150EA013C07D18D
:100A90004FEA430C7FEA6C5CD6D152EA033CD3D0D8
:100AA0005DF8040B704700BF8446104662468C46D2
:100AB0001946634600E000BF01B5FFF7B7FF002805
:100AC00048BF10F1000F01BD4DF808EDFFF7F4FF2E
:100AD0000CBF012000205DF808FB00BF4DF808EDB9
:100AE000FFF7EAFF34BF012000205DF808FB00BFDC
:100AF0004DF808EDFFF7E0FF94BF012000205DF8FE
:100B000008FB00BF4DF808EDFFF7CEFF94BF0120B2
:100B100000205DF808FB00BF4DF808EDFFF7C4FFAB
:100B200034BF012000205DF808FB00BF4FEA410CF4
:100B30007FEA6C5C02D150EA013C0AD14FEA430CD7
:100B40007FEA6C5C02D152EA033C02D14FF0000014
:100B500070474FF0010070474FEA410212F5001252
:100B600015D211D56FF47873B3EB625212D94FEAF4
:100B7000C12343F0004343EA505311F0004F23FADE
:100B800002F018BF404270474FF00000704750EA33
:100B9000013005D111F0004008BF6FF000407047F0
:100BA0004FF00000704700BF4A0011D212F500124A
:100BB00011D20DD56FF47873B3EB62520ED44FEAB5
:100BC000C12343F0004343EA505323FA02F0704735
:100BD0004FF00000704750EA013002D14FF0FF3073
:100BE00070474FF0000070474FEA4102B2F1E04316
:100BF00024BFB3F5001CDCF1FE5C0DD901F0004C04
:100C00004FEAC0024CEA5070B2F1004F40EB830053
:100C100008BF20F00100704711F0804F21D113F17F
:100C20003872BCBF01F00040704741F480114FEAB8
:100C30005252C2F11802C2F1200C10FA0CF320FA41
:100C400002F018BF40F001004FEAC1234FEAD3235E
:100C500003FA0CFC40EA0C0023FA02F34FEA4303C8
:100C6000CCE77FEA625307D150EA01331EBF4FF051
:100C7000FE4040F44000704701F0004040F0FE406C
:100C800040F40000704700BF53B94AB9002908BFBB
:100C900000281CBF4FF0FF314FF0FF3000F0AAB921
:100CA000ADF1080C6DE904CE00F03CF8DDF804E08D
:100CB000DDE9022304B0704738B500220023044662
:100CC0000D46FFF70BFF28B920462946BDE83840FE
:100CD00000F00AB8204605F1004100F005F8404256
:100CE00061EB410138BD00BFD0B50C4B0022064678
:100CF0000F46FFF781FCFFF757FF0446FFF702FCA2
:100D0000074B0022FFF778FC02460B463046394677
:100D1000FFF7BAFAFFF748FF2146D0BD0000F03DCB
:100D20000000F0412DE9F047089D04468E46002B57
:100D30004DD18A42944669D9B2FA82F252B101FA8F
:100D400002F3C2F1200120FA01F10CFA02FC41EA9F
:100D5000030E94404FEA1C48210CBEFBF8F61FFA24
:100D60008CF708FB16E341EA034306FB07F19942BF
:100D70000AD91CEB030306F1FF3080F01F81994272
:100D800040F21C81023E63445B1AA4B2B3FBF8F04C
:100D900008FB103344EA034400FB07F7A7420AD9D3
:100DA0001CEB040400F1FF3380F00A81A74240F2FB
:100DB00007816444023840EA0640E41B00261DB166
:100DC000D4400023C5E900433146BDE8F0878B429B
:100DD00009D9002D00F0EF800026C5E9000130465A
:100DE0003146BDE8F087B3FA83F6002E4AD18B4234
:100DF00002D3824200F2F980841A61EB03030120DE
:100E00009E46002DE0D0C5E9004EDDE702B9FFDEC9
:100E1000B2FA82F2002A40F09280A1EB0C014FEA74
:100E20001C471FFA8CFE0126200CB1FBF7F307FBD1
:100E3000131140EA01410EFB03F0884208D91CEB74
:100E4000010103F1FF3802D2884200F2CB80434611
:100E5000091AA4B2B1FBF7F007FB101144EA0144F0
:100E60000EFB00FEA64508D91CEB040400F1FF317F
:100E700002D2A64500F2BB800846A4EB0E0440EA6D
:100E800003409CE7C6F12007B34022FA07FC4CEA76
:100E9000030C20FA07F401FA06F31C43F9404FEA69
:100EA0001C4900FA06F3B1FBF9F8200C1FFA8CFE7E
:100EB00009FB181140EA014108FB0EF0884202FAD2
:100EC00006F20BD91CEB010108F1FF3A80F0888093
:100ED000884240F28580A8F102086144091AA4B250
:100EE000B1FBF9F009FB101144EA014100FB0EFED1
:100EF0008E4508D91CEB010100F1FF346CD28E4500
:100F00006AD90238614440EA0840A0FB0294A1EB90
:100F10000E01A142C846A64656D353D05DB1B3EBED
:100F2000080261EB0E0101FA07F722FA06F3F1401D
:100F30001F43C5E9007100263146BDE8F087C2F1C4
:100F40002003D8400CFA02FC21FA03F3914001433C
:100F50004FEA1C471FFA8CFEB3FBF7F007FB103675
:100F60000B0C43EA064300FB0EF69E4204FA02F421
:100F700008D91CEB030300F1FF382FD29E422DD974
:100F8000023863449B1B89B2B3FBF7F607FB1633A9
:100F900041EA034106FB0EF38B4208D91CEB010129
:100FA00006F1FF3816D28B4214D9023E6144C91AA9
:100FB00046EA004638E72E46284605E70646E3E6B9
:100FC0001846F8E64B45A9D2B9EB020864EB0C0EC3
:100FD0000138A3E74646EAE7204694E74046D1E7D2
:100FE000D0467BE7023B614432E7304609E7644480
:100FF000023842E7704700BF80B584B002AF03F00B
:10100000B3F90723022208214FF4A8700AF0B6FCB6
:10101000A8200AF021FC01F01BFF01F0B9FE4FF4FB
:10102000E1300AF037FD0BF061F953214FF6FE7005
:1010300002F0C4FC00214FF6FF7002F0FBFE5321CA
:1010400040F2E73002F09AFE0AF032FE02F044FA73
:1010500002F03CFA02F08AF902F0C2FB3B1D7A1D55
:10106000B91DF81D02F07CFBFB791946BB791A46C5
:101070007B790B4817F03AFC10F03AF812F0E6FFD3
:10108000084B01930123009300238022064907485F
:1010900010F0D9FF11F0C2F90A200AF02DFCFBE78D
:1010A000B0C101084C020020C8C10108C5160008E3
:1010B00080B582B000AF00237B60124B5B6C114A9D
:1010C00043F4804353640F4B5B6C03F480437B60B9
:1010D0007B6800233B600B4B1B6C0A4A43F0805338
:1010E0001364084B1B6C03F080533B603B68002289
:1010F0000F216FF0010003F0ACFE00BF0837BD46C2
:1011000080BD00BF0038024080B400AFFEE70000A1
:1011100080B586B000AF18237B61EFF308837B6056
:101120007A687B6913441B683B61EFF30983BB60FA
:10113000BA687B6913441B68FB60FA683969024826
:1011400017F0D4FBFEE700BFD0C1010880B400AFA8
:10115000FEE780B400AFFEE780B400AFFEE780B4E6
:1011600000AF00BFBD465DF8047B704780B500AF9F
:1011700003F04CF911F0AAFD0346012B01D012F047
:10118000EBFC00BF80BD80B400AF01231846BD4614
:101190005DF8047B704780B582B000AF786039603D
:1011A00016F07EFA034616221A604FF0FF331846F7
:1011B0000837BD4680BD80B582B000AF78604FF083
:1011C000FF317868FFF7E7FFFEE780B586B000AF34
:1011D000F860B9607A6000237B610AE0AFF30080B9
:1011E0000146BB685A1CBA60CAB21A707B690133E7
:1011F0007B617A697B689A42F0DB7B681846183716
:10120000BD4680BD80B586B000AFF860B9607A6039
:1012100000237B6109E0BB685A1CBA601B78184642
:101220000AF026FC7B6901337B617A697B689A420C
:10123000F1DB7B6818461837BD4680BD80B483B0AB
:1012400000AF78604FF0FF3318460C37BD465DF8AD
:10125000047B704780B483B000AF786039603B682E
:101260004FF400525A60002318460C37BD465DF813
:10127000047B704780B483B000AF786001231846C8
:101280000C37BD465DF8047B704780B485B000AF75
:10129000F860B9607A60002318461437BD465DF8DF
:1012A000047B704780B586B000AF7860144A154B58
:1012B000D31A7B617B693B61134B1B68002B02D106
:1012C000114B124A1A60104B1A687B6813443A6932
:1012D0009A4207D216F0E4F903460C221A604FF046
:1012E000FF3309E0084B1B68FB60074B1A687B68FB
:1012F0001344054A1360FB6818461837BD4680BD85
:10130000000002200004000050020020B85C002011
:1013100080B400AF064BD3F88830054A43F470031D
:10132000C2F8883000BFBD465DF8047B704700BF3F
:1013300000ED00E0DFF834D00D480E490E4A0023DE
:1013400002E0D458C4500433C4188C42F9D30B4A79
:101350000B4C002301E013600432A242FBD3FFF7E1
:10136000D7FF16F0B5F9FFF747FE704700000220DF
:10137000000000202C020020DC8304083002002042
:10138000B85C0020FEE7000080B584B000AF786054
:101390000023FB73FA7B531CFB730A4BA3FB021362
:1013A000D9080B469B000B445B00D31ADBB2002B21
:1013B00003D10121044804F0CCF91E2010F0FAFFFB
:1013C000E8E700BFCDCCCCCC001002402DE9B04FF7
:1013D0008EB008AF7860794B1B6807F10B0164226F
:1013E000184610F085FB78617B69012B40F0E180A5
:1013F00007F10B03724918460AF036FE0346002B2C
:1014000000F0D9806F4B1C6811F01AF902460023D6
:10141000009300230121204611F0DCFE684B1B786D
:10142000FB74FB7CA03B042BD5D801A252F823F01F
:10143000E1140008D914000845140008B11400088C
:10144000471500080123BB725D4BD3F801301846E5
:10145000FFF77AF882468B46594BD3F80530184689
:10146000FFF772F804460D46554BD3F8093018467D
:10147000FFF76AF880468946514BD3F80D3018467D
:10148000FFF762F802460B46CDE90423CDE9028955
:10149000CDE9004552465B464B4817F027FA4B4BC7
:1014A000186807F10A010023012210F087F983E090
:1014B0000223BB72454B186807F10A010023012281
:1014C00010F07CF90523FB60414B186800230322D0
:1014D000F96811F0CFFC6FE03E4817F08DFA6BE031
:1014E0003D4817F089FA364BD3F801301846FFF71C
:1014F0002BF882468B46324BD3F805301846FFF75F
:1015000023F804460D462E4BD3F809301846FFF752
:101510001BF8804689462A4BD3F80D301846FFF752
:1015200013F802460B462D490691CDE90423CDE977
:101530000289CDE9004552465B46294817F0D6F9A5
:1015400000F082FA38E00323BB721D4BD3F8013060
:101550001846FEF7F9FF82468B46194BD3F8053043
:101560001846FEF7F1FF04460D46154BD3F8093037
:101570001846FEF7E9FF80468946114BD3F80D3037
:101580001846FEF7E1FF02460B46CDE90423CDE9FC
:101590000289CDE9004552465B460B4817F0A6F993
:1015A0000A4B186807F10A010023012210F006F91E
:1015B00002E000BF0FE700BF0DE700BF30040020CE
:1015C000540200202C0400200CC201083404002026
:1015D000AC0200202CC2010840C201088302002096
:1015E00054C2010880B584B000AF7860264817F077
:1015F00003FA264B184601F03FF9254B184601F037
:101600002FF8244B1B6807F10F010A22184610F02F
:101610006FFA0346BB60BB68012B33D10123BB606B
:10162000FB7B032B1BD0032B27DC012B02D0022BCF
:101630000DD022E0184B40F20B121849052001F0A2
:101640001DFD07F10803184600F070FB15E0144B70
:101650004FF488721149052001F010FD0DE0114B87
:10166000D3F8013007EE903AFCEEE77A01231946F1
:1016700017EE900A00F0D6FE00BF4FF47A7010F01B
:1016800099FEBEE700BFBCE77CC20108B0020020A3
:10169000780300203404002094C20108B0C201087D
:1016A000CCC201085402002080B582B000AF78603F
:1016B000034814F0A3FD0A2010F07CFEF8E700BFF9
:1016C000D057002080B586B002AF786012F0B2F932
:1016D0000023FB6000F0A8F89FED2F1ADFED2E0A23
:1016E0009FED2D0A00F008F92C4B01930523009380
:1016F00000234FF400722A492A4810F0A4FCF86035
:10170000FB68012B03D02649274817F0EFF8274B39
:1017100001930423009300234FF480722449254849
:1017200010F091FCF860FB68012B03D020491E48A3
:1017300017F0DCF8204B01930623009300234FF4AD
:1017400000721E491E4810F07EFCF860FB68012BF9
:1017500003D01A49144817F0C9F8174B0193052311
:10176000009300234FF400721649174810F06BFCE9
:10177000F860FB68012B03D012490B4817F0B6F84C
:10178000124817F039F9002010F0A2FD12F082F98A
:1017900000BF1037BD4680BDCDCC4C3EAC02002012
:1017A000E8C20108E5150008F4C20108A4020020FF
:1017B0000CC3010889130008A802002018C30108FF
:1017C000CD13000820C30108A91600082CC3010886
:1017D00080B584B002AF7860104B1B6801330F4AAC
:1017E00013600E4B1B680A2B10D10C4B00221A60A1
:1017F0000B4B18680023009300230022032111F0F3
:10180000E9FC00220221074803F08AFF0221054873
:1018100003F09FFF00BF0837BD4680BD4004002095
:101820002C0400200010024080B582B002AF264B8D
:101830000093012301226421244811F06FFC034628
:10184000234A13600022012132200FF059FF034682
:10185000204A13601F4B1B68002B02D11E4817F053
:10186000CBF80022012105200FF04AFF03461B4A56
:1018700013601A4B1B68002B02D1194817F0BCF8F3
:101880000022012101200FF03BFF0346154A13609F
:10189000144B1B68002B02D1134817F0ADF800223F
:1018A0001C2105200FF02CFF0346104A13600F4B3C
:1018B0001B68002B02D10E4817F09EF80D4817F058
:1018C0009BF800BFBD4680BDD117000844C3010886
:1018D0002C0400203004002054C3010834040020EC
:1018E00070C301083804002090C301083C040020A4
:1018F000B0C30108D4C3010890B585B000AF87ED2F
:10190000030AC7ED020A87ED011AD7ED037AF5EE57
:10191000C07AF1EE10FACCBF01230023DBB283F0D2
:101920000103DBB2002B14D1F868FEF70DFE012392
:101930001C463DA3D3E90023FFF7D0F80346002B54
:1019400001D100231C46E3B283F00103DBB2002B7C
:1019500005D0374B374AE721374815F083FED7EDDE
:10196000027AF5EEC07AF1EE10FACCBF0123002323
:10197000DBB283F00103DBB2002B14D1B868FEF7B1
:10198000E3FD01231C4628A3D3E90023FFF7A6F8B3
:101990000346002B01D100231C46E3B283F0010370
:1019A000DBB2002B05D0254B224AE821224815F056
:1019B00059FED7ED017AF5EEC07AF1EE10FACCBF00
:1019C00001230023DBB283F00103DBB2002B14D12F
:1019D0007868FEF7B9FD01231C4613A3D3E9002361
:1019E000FFF77CF80346002B01D100231C46E3B22D
:1019F00083F00103DBB2002B05D0114B0D4AE92126
:101A00000D4815F02FFE0F4B0133FA681A600D4B8D
:101A10000533BA681A600B4B09337A681A6000BF45
:101A20001437BD4690BD00BF85EB51B81E0524405C
:101A300058C401082CD301086CC401088CC40108E7
:101A4000A0C401085402002080B586B004AFAC4B9E
:101A5000002283F82320002283F82420002283F828
:101A60002520002283F82620A54B002283F827207A
:101A7000002283F82820002283F82920002283F8FE
:101A80002A209F4B002283F82B20002283F82C2051
:101A9000002283F82D20002283F82E20984B01226B
:101AA00083F82F20964B012283F83020944BD3F8F3
:101AB00001309FED947A07EE903AC7EE277AFCEE5C
:101AC000E77A17EE903A9AB28D4BA3F817208C4B19
:101AD000D3F80530B2EE047A07EE903AC7EE277AD3
:101AE000FCEEE77A17EE903A9AB2854BA3F81920EC
:101AF000834BD3F809309FED847A07EE903AC7EE16
:101B0000277AFCEEE77A17EE903A9AB27C4BA3F86C
:101B10001B207B4BD3F80130DFED7C7A07EE103AC7
:101B200067EE277AFCEEE77A17EE903A9AB2744B9A
:101B3000A3F81D20724BD3F80530DFED747A07EE61
:101B4000103A67EE277AFCEEE77A17EE903A9AB2EF
:101B50006B4BA3F81F206A4BD3F80930DFED6B7A8B
:101B600007EE103A67EE277AFCEEE77A17EE903A26
:101B70009AB2634BA3F82120614BB3F817309BB2A4
:101B80001A465F4BB3F81D309BB2019300924FF0A1
:101B900000025F4B5F4816F0A9FE594BB3F81930AD
:101BA0009BB21A46564BB3F81F309BB2019300927A
:101BB0004FF00002564B584816F098FE504BB3F8C1
:101BC0001B309BB21A464E4BB3F821309BB20193A7
:101BD00000924FF000024E4B504816F087FE484BE3
:101BE000B3F817309BB21A46454BB3F819309BB285
:101BF00002FB03F3424AB2F81B2092B202FB03F34A
:101C00001846FEF78FFC3CA3D3E90023FEF7F4FC53
:101C100002460B46424816F069FE5023FB71FB79E1
:101C2000184615F079FD03463B603B68002B56D003
:101C3000F979334BB3F817309BB21A46304BB3F8EF
:101C40001D309BB2039302924FF00002304BCDE95E
:101C50000023304A386816F0EDFE3B6840F223124C
:101C60003049052001F00AFAF979254BB3F819300B
:101C70009BB21A46224BB3F81F309BB203930292D9
:101C80004FF00002224BCDE90023234A386816F0BA
:101C9000D1FE3B6840F227122249052001F0EEF9FF
:101CA000F979174BB3F81B309BB21A46144BB3F8B3
:101CB0001F309BB2039302924FF00002144BCDE908
:101CC0000023164A386816F0B5FE3B6840F22B1226
:101CD0001449052001F0D2F9386815F025FD124BA2
:101CE00040F233120F49052001F0C8F900BF083750
:101CF000BD4680BDAFF300809A9999999999B93FF3
:101D0000540200200000C84200008C420000204223
:101D100000004440B4C40108ECC4010824C5010813
:101D20005CC501086CC4010888C5010880B584B091
:101D300000AF7860FFF788FE0023FB6010F0B6FF6D
:101D400000230322F96811F095F800F0F9FB03462F
:101D5000FB72FB7A002B07D1184B4FF4B272184973
:101D6000052001F08BF917E0164B4FF4B4721449BB
:101D7000012001F083F90FE00021012011F032F879
:101D8000F860FB68052B07D10F4B40F271120C492C
:101D9000042001F073F90EE000F08CFA034683F0A2
:101DA0000103DBB2002BE7D1084B4FF4C5720449A5
:101DB000052001F063F91037BD4680BDA4C50108B8
:101DC0006CC40108C4C50108E4C5010804C60108C3
:101DD00080B58CB000AF78607B68FB627B680133B4
:101DE000BB62BB6A1B78022B7BD8BB6A1B78404A5C
:101DF00006339B001344D3F80B20BB6A1B783C4985
:101E000008335B000B44B3F807309BB29A4227DCDF
:101E1000BB6A1B781A463649931D9B000B44D3F8C6
:101E20000B30591C3248931D9B000344C3F80B1020
:101E3000BB6A1B78002B03D1FB6A01221A7052E0A7
:101E4000BB6A1B78012B03D1BB6A00221A704AE0DF
:101E5000BB6A1B78022B46D1BB6A00221A7042E093
:101E6000BB6A1B781A46224B134493F82F30002B81
:101E700014BF01230023DBB283F00103DBB21A4657
:101E8000BB6A1B781946134603F00103DAB2184BFC
:101E90000B4483F82F20BB6A1B7807F10800154A12
:101EA0001E2116F0C7FD07F1080340F2D1121249B6
:101EB000052001F0E3F8BB6A1B780D4A06339B004E
:101EC00013440022DA7200221A7300225A7300228D
:101ED0009A73BB6A1B781A46084B9A5CBB6A1A70E5
:101EE00001E000BF00E000BF00BF3037BD4680BD4D
:101EF0005402002020C601086CC40108080000201C
:101F000080B586B000AFF860B9607A60FB68684A57
:101F100093426FD1674B00221A70642000F0D8FD05
:101F200000BF644B1B78012BFBD110220021786885
:101F300015F020FC00233B6132E07B681B685E49A2
:101F40003A6931F812201A447B681A607B680433BE
:101F50001A683B690133584931F8133019467B68D8
:101F600004330A441A607B6808331A683B690233F9
:101F7000514931F8133019467B6808330A441A6016
:101F80007B680C331A683B6903334B4931F81330D3
:101F900019467B680C330A441A603B6904333B6181
:101FA0003B69632BC9DD7B681B68444AA2FB0323A2
:101FB000DA087B681A607B6804331A687B6804332C
:101FC0003E49A1FB0212D2081A607B6808331A68E6
:101FD0007B6808333949A1FB0212D2081A607B687A
:101FE0000C331A687B680C333449A1FB0212D20807
:101FF0001A6058E0FB68324A934254D14B2000F0FB
:10200000A3FD00BF2F4B1B78012BFBD10C2200211D
:10201000786815F0AFFB00237B6125E07B681B68C7
:1020200029497A6931F812201A447B681A607B6862
:1020300004331A687B690133234931F81330194698
:102040007B6804330A441A607B6808331A687B692A
:1020500002331D4931F8133019467B6808330A44AE
:102060001A607B6903337B617B694A2BD6D97B6815
:102070001B68124AA2FB0323DA087B681A607B689C
:1020800004331A687B6804330C49A1FB0212D2089E
:102090001A607B6808331A687B6808330749A1FB1C
:1020A0000212D2081A6000BF1837BD4680BD00BFBB
:1020B00000200140F0040020B00200201F85EB51F9
:1020C00000220140F10400207803002080B58AB08E
:1020D00000AF786007F10C031A4604210C48FFF7A3
:1020E0000FFF07F10C0310331A4603210948FFF7CD
:1020F00007FF094B186807F10C0100230A220FF0B3
:102100005DFB7B6802221A7000BF2837BD4680BD88
:1021100000200140002201403C040020000000009B
:102120002DE9B04F2DED048B98B00CAFF8605C4BEF
:102130001B6807F11001012218460FF0D9FCF86264
:10214000FB6A012B07D1574B40F27B2256490520F1
:1021500000F094FF06E0554B40F27D2252490320E7
:1021600000F08CFF3B6907EE903AF8EE677A17EEC5
:10217000900AFEF7E9F948A3D3E90023FEF73CFAF9
:1021800002460B46C7E900237B6907EE903AF8EE5A
:10219000677A17EE900AFEF7D7F93FA3D3E9002339
:1021A000FEF72AFA02460B4692469B46BB6907EEAB
:1021B000903AF8EE677A17EE900AFEF7C5F936A363
:1021C000D3E90023FEF718FA02460B4643EC182B1E
:1021D000FB6907EE903AF8EE677A17EE900AFEF781
:1021E000B3F92DA3D3E90023FEF706FA02460B4606
:1021F00043EC192B3B6A07EE903AF8EE677A17EE3C
:10220000900AFEF7A1F924A3D3E90023FEF7F4F91D
:1022100002460B46904699467B6A07EE903AF8EEE6
:10222000677A17EE900AFEF78FF91BA3D3E9002314
:10223000FEF7E2F902460B4614461D46BB6A07EE5E
:10224000903AF8EE677A17EE900AFEF77DF912A33E
:10225000D3E90023FEF7D0F902460B46CDE90A2365
:10226000CDE90845CDE906898DED049B8DED028B06
:10227000CDE900ABD7E900230D4816F037FBFB682A
:1022800000221A7000BF3037BD46BDEC048BBDE89C
:10229000B08F00BFAFF300806666666666664A3F31
:1022A0003C0400203CC601086CC401085CC601085F
:1022B00084C6010880B500AF164B1B78022B06D9E7
:1022C000154B164A40F2A121154815F0CBF9114BD8
:1022D0001B78144A9B001344D3F80230002B01D121
:1022E00000F008F90B4B1B780E4A9B001344D3F8FF
:1022F000023008489847074B5B78032B07D1054B02
:1023000000225A70034B00221A70012300E00023C0
:10231000184680BD44040020B0C601083CD3010823
:102320006CC401081004002080B586B000AF78604E
:102330000B46FB700023FB75FB78013B042B55D843
:1023400001A252F823F000BFED2300086F2300081C
:10235000ED230008ED2300085D2300080122264933
:1023600000200DF00DFD254816F046FB3FE0244807
:1023700016F042FB234B1B6801221F4918460DF043
:10238000FFFC0346FB75FB7D19461F4816F0AEFAAD
:1023900007F10C0207F11003194617480EF0DCFE96
:1023A0000346FB75FB7D002B1CD1184816F024FB5F
:1023B0003B699B0A1946164816F098FAFB689B0A77
:1023C0001946144816F092FA00F0BAF84FF4FA7071
:1023D0000FF0F0FF104B40F2E5221049052000F00D
:1023E0004DFE04E00E4816F007FB00E000BF00BF02
:1023F0001837BD4680BD00BFECC60108F0C6010815
:1024000008C70108F809002024C701083CC70108D3
:1024100048C7010864C7010880C701086CC40108E7
:102420009CC7010880B582B000AF78600B46FB7096
:102430007B6807EE903AF8EE677A9FED277A67EEB1
:10244000877AFCEEE77A17EE903A9AB2234B1A801D
:10245000FB781A467968224816F048FA1F4B1B8809
:102460009BB219461F4816F041FAFB78002B13D097
:102470001D4B1B6893ED007A7B6807EE903AF8EEEF
:10248000677ADFED156A67EEA67A174B1B6877EE61
:10249000277AC3ED007A12E0134B1B6893ED007AA4
:1024A0007B6807EE903AF8EE677ADFED0B6A67EE2D
:1024B000A67A0D4B1B6877EE677AC3ED007A0B4B5B
:1024C00001221A75FB781946094816F00FFA00BF69
:1024D0000837BD4680BD00BF000020422800002014
:1024E000ACC70108D4C70108040000202C08002054
:1024F000F0C7010880B400AF0D4B00221A700C4BDE
:1025000000225A700A4B0B4AC3F80220084B0A4AB1
:10251000C3F80620064B094AC3F80A20044B0022E0
:10252000DA8100221A8200BFBD465DF8047B704745
:1025300010040020D11D0008CD2000082121000832
:102540002DE9B043C4B004AF3C480EF0D1FE0346C1
:1025500087F8FF3097F8FF301946394816F0C6F96A
:1025600007F1CC03322118460EF0CEFE07F1CC0263
:1025700007F1CC00334B344916F090FA07F1CC0345
:10258000072118460EF056FE034687F8FF302F4904
:102590003B1D2F4A184616F04DFA3B1D1846FDF715
:1025A00017FE02463B1D114618460EF065FE07F168
:1025B000CC03381D274AC82116F03CFA3B1D1846AB
:1025C000FDF706FE02463B1D114618460EF054FE6E
:1025D000214BD3F801301846FDF7B6FF80468946F7
:1025E0001D4BD3F805301846FDF7AEFF04460D46E7
:1025F000194BD3F809301846FDF7A6FF02460B46E3
:10260000381DCDE90223CDE9004542464B4613492A
:1026100016F044FA3B1D1846FDF7DAFD02463B1D55
:10262000114618460EF028FE0EF01AFE97F8FF30FD
:10263000184607F58077BD46BDE8B08304C8010899
:1026400018C801082CC8010834C801083CC8010892
:1026500040C80108BCC8010854020020D0C80108C5
:1026600080B590B000AF786007F11C0300221A60BB
:102670005A609A60DA600023BB61774B5B6C764AE4
:1026800043F480635364744B5B6C03F48063BB61FD
:10269000BB6900237B61704B1B6B6F4A43F02003C7
:1026A00013636D4B1B6B03F020037B617B6900237D
:1026B0003B61694B1B6B684A43F020031363664B15
:1026C0001B6B03F020033B613B690023FB60624B03
:1026D0001B6B614A43F0200313635F4B1B6B03F0DA
:1026E0002003FB60FB680023BB605B4B1B6B5A4AFB
:1026F00043F480031363584B1B6B03F48003BB60EC
:10270000BB688023FB6203233B6301237B6307F1E8
:102710002C031946514802F067FE4FF48073FB62A8
:1027200007F12C0319464D4802F05EFE4FF400738A
:10273000FB6207F12C031946484802F055FE484B4E
:10274000484A1A60464B4FF080625A60444B002260
:102750009A60434B0022DA60414B4FF480621A6169
:102760003F4B4FF400625A613D4B4FF400529A6167
:102770003B4B0022DA613A4B4FF480321A62384800
:1027800002F0BAFB384B394A1A60374B4FF48032AB
:102790005A60354B00229A60334B0022DA60324B8C
:1027A00001221A61304B01221A762F4B0322DA6183
:1027B0002D4B002283F820202B4B00225A622A4BFB
:1027C0002B4A9A62284B012283F83020264801F0D8
:1027D00049FE254B224A9A63214B234A9A630523DB
:1027E000FB6101233B6207237B6207F11C0319464F
:1027F0001D4801F0B3FF0623FB6102233B62072360
:102800007B6207F11C031946174801F0A7FF072355
:10281000FB6103233B6207237B6207F11C0319461C
:10282000114801F09BFF04220321382002F011FB24
:10283000382002F02AFB7A6800230E49084802F08B
:1028400009FC3B1D00221946074801F059FE00BF54
:102850004037BD4680BD00BF003802400014024032
:10286000F4040020106402405405002000220140BE
:102870000100000F4C22014080B592B000AF78609B
:1028800007F1240300221A605A609A60DA6000237C
:102890003B62864B5B6C854A43F480735364834B85
:1028A0005B6C03F480733B623B6A0023FB617F4BEC
:1028B0001B6B7E4A43F0010313637C4B1B6B03F0DD
:1028C0000103FB61FB690023BB61784B1B6B774AFB
:1028D00043F001031363754B1B6B03F00103BB61F2
:1028E000BB6900237B61714B1B6B704A43F0010392
:1028F00013636E4B1B6B03F001037B617B69002349
:102900003B616A4B1B6B694A43F002031363674BDD
:102910001B6B03F002033B613B690023FB60634BCD
:102920001B6B624A43F480031363604B1B6B03F41D
:102930008003FB60FB6801237B630323BB630123EC
:10294000FB6307F134031946594802F04DFD082393
:102950007B6307F134031946554802F045FD4023D7
:102960007B6307F134031946514802F03DFD012312
:102970007B6307F1340319464E4802F035FD4E4B98
:102980004E4A1A604C4B00225A604B4B00229A6010
:10299000494B0022DA60484B4FF480621A61464B83
:1029A0004FF400625A61444B4FF400529A61424B1B
:1029B0000022DA61404B4FF480321A623E4802F046
:1029C0009BFA3F4B3F4A1A603D4B4FF480325A60AE
:1029D0003B4B00229A603A4B0022DA60384B0122CE
:1029E0001A61374B01221A76354B0422DA61344BD7
:1029F000002283F82020324B00225A62304B324AA8
:102A00009A622F4B012283F830202D4801F02AFDD5
:102A10002B4B294A9A63284B294A9A6300237B62ED
:102A20000123BB620723FB6207F1240319462448F4
:102A300001F094FE03237B620223BB620723FB6247
:102A400007F1240319461E4801F088FE06237B6225
:102A50000323BB620723FB6207F1240319461848CE
:102A600001F07CFE08237B620423BB620723FB6228
:102A700007F124031946124801F070FE03220321D6
:102A80003C2002F0E6F93C2002F0FFF97A680023CE
:102A90000E49094802F0DEFA3B1D0022194608489B
:102AA00001F02EFD00BF4837BD4680BD0038024012
:102AB000000002400004024048040020706402400C
:102AC000A8040020002001400100000F4C2001401C
:102AD00080B483B000AF0346FB80184B1B689A6834
:102AE000164B1B6822F001029A60154B1B681A688E
:102AF000134B1B6822F001021A60114B1B68FA8805
:102B00005A600F4B1B681A680D4B1B6842F001029C
:102B10001A600A4B1B689A68084B1B6842F0010256
:102B20009A60084B9B68074A43F08043936000BF5C
:102B30000C37BD465DF8047B704700BFA804002039
:102B4000480400200020014080B483B000AF034659
:102B5000FB80184B1B689A68164B1B6822F0010219
:102B60009A60154B1B681A68134B1B6822F0010210
:102B70001A60114B1B68FA885A600F4B1B681A6861
:102B80000D4B1B6842F001021A600A4B1B689A68E1
:102B9000084B1B6842F001029A60084B9B68074A89
:102BA00043F08043936000BF0C37BD465DF8047B63
:102BB000704700BF54050020F404002000220140AB
:102BC00080B400AF314B1B681A46314B9A4209D989
:102BD000304B5B6803F02003002B14BF012300235C
:102BE000DBB228E0294B1B681A462B4B9A4209D9C5
:102BF000284B1B6803F02003002B14BF0123002384
:102C0000DBB218E0214B1B681A46244B9A4209D9C3
:102C1000234B5B6803F02003002B14BF0123002328
:102C2000DBB208E01E4B1B6803F02003002B14BF2F
:102C300001230023DBB2002B23D01A4B01221A7090
:102C4000124B1B681A46124B9A4203D9114B202291
:102C5000DA6016E00D4B1B681A460F4B9A4203D9F7
:102C60000C4A202393600CE0084B1B681A460B4B60
:102C70009A4203D90A4A2023D36002E0084A20235B
:102C8000936000BFBD465DF8047B70474804002098
:102C90005864024000640240B8600240586002403C
:102CA00000600240F004002080B400AF314B1B688C
:102CB0001A46314B9A4209D9304B5B6803F0200326
:102CC000002B14BF01230023DBB228E0294B1B6833
:102CD0001A462B4B9A4209D9284B1B6803F0200354
:102CE000002B14BF01230023DBB218E0214B1B682B
:102CF0001A46244B9A4209D9234B5B6803F0200300
:102D0000002B14BF01230023DBB208E01E4B1B681D
:102D100003F02003002B14BF01230023DBB2002BA0
:102D200023D01A4B01221A70124B1B681A46124B01
:102D30009A4203D9114B2022DA6016E00D4B1B6832
:102D40001A460F4B9A4203D90C4A202393600CE099
:102D5000084B1B681A460B4B9A4203D90A4A202398
:102D6000D36002E0084A2023936000BFBD465DF8AF
:102D7000047B7047F4040020586402400064024061
:102D8000B86002405860024000600240F104002038
:102D900080B588B000AF0023BB602B4B1B6B2A4A69
:102DA00043F010031363284B1B6B03F01003BB604D
:102DB000BB6800237B60244B1B6B234A43F010034A
:102DC0001363214B1B6B03F010037B607B680023B4
:102DD0003B601D4B1B6B1C4A43F0100313631A4BE3
:102DE0001B6B03F010033B603B680423FB60002374
:102DF0003B6101237B610223BB6107F10C03194690
:102E0000124802F0F1FA0823FB6000233B61012322
:102E10007B610223BB6107F10C0319460B4802F0EA
:102E2000E3FA1023FB6000233B6101237B61022353
:102E3000BB6107F10C031946044802F0D5FA00BF44
:102E40002037BD4680BD00BF003802400010024060
:102E500080B588B000AF0023BB601F4B1B6B1E4AC0
:102E600043F0100313631C4B1B6B03F01003BB6098
:102E7000BB6800237B60184B1B6B174A43F01003A1
:102E80001363154B1B6B03F010037B607B680123FE
:102E9000FB6001233B6101237B610223BB6107F1DE
:102EA0000C0319460D4802F09FFA0223FB6007F15C
:102EB0000C031946094802F097FA0122012107483C
:102EC00002F02EFC01220221044802F029FC00BF7E
:102ED0002037BD4680BD00BF0038024000100240D0
:102EE00080B500AF4FF4167014F016FC03461A4676
:102EF0000E4B1A600D4B1B68002B03D10C4815F0CC
:102F00007BFD12E00B4B1B78002B0BD0074B1B6893
:102F1000184614F009FC074B1B781946064815F0B3
:102F2000E5FC02E0054B01221A7080BD9C050020E3
:102F300028C90108A005002038C90108A105002002
:102F400080B500AF174918480DF0C0FC03461A467B
:102F5000164B1A70154B1B78042B0ED1144B1B68A3
:102F60000722114918460CF04BFF03461A460F4B37
:102F70001A70104815F040FD11E00C4B1B78002B27
:102F80000DD10B4B1B683322074918460CF038FF54
:102F900003461A46054B1A70074815F02DFD00BF71
:102FA00080BD00BFA805002094C90108A00500202D
:102FB0009C050020B0C90108D4C9010880B500AF44
:102FC000034B1B6818460DF05FFC00BF80BD00BFBF
:102FD0009C05002090B585B000AF78603960002373
:102FE000FB602F21786815F086FDF860FB68002BE8
:102FF0000DD0FB685C1CFB6801331846FDF7E8F850
:1030000003461A462146386814F0A6FB00E000BFCC
:103010001437BD4690BD0000B0B588B004AF7860ED
:1030200000233B7207F1080307F1090207F10A01C7
:1030300007F10B0000F094FB07F10C0307F10D0200
:1030400007F10E0107F10F0000F0AAFBFB7B03F56F
:10305000FA62BB7B1D467B7BF97AB87A7C7A039453
:103060000290019100932B460349786815F016FDF4
:1030700000BF1037BD46B0BDF8C9010890B5CFB04C
:1030800002AF044607F59870A0F5947001601146F0
:1030900007F59872A2F59672136007F59873A3F27C
:1030A000211322461A7007F59873A3F592730A4606
:1030B0001A80494B1B7883F00103DBB2002B08D048
:1030C000FFF70EFF444B1B7883F00103DBB2002BAC
:1030D0007DD107F148031846FFF79EFF07F148032B
:1030E0001846FFF799FF07F1140207F59873A3F547
:1030F000947311461868FFF76DFF07F59873A3F2F4
:1031000021131B78354A52F8232007F1680007F194
:10311000480300931346324AC82115F08BFC07F58B
:103120009873A3F592731B8807F1680207F1680092
:10313000019307F11403009313462A4AC82115F09E
:1031400079FC07F1680207F1680007F59873A3F5A9
:1031500096731B6800931346234AC82115F06AFC36
:10316000FFF7EEFE07F59873A3F5907300221A603F
:103170001E4B1B78002B12D11D4B1C6807F16803F6
:103180001846FDF725F8024607F1100307F168011C
:1031900020460DF093F803461A46144B1A7007F5B3
:1031A0009873A3F590731B681946124815F09EFB9F
:1031B0000E4B1B781946104815F098FBFFF7FEFEE2
:1031C00007F1680319460D4815F090FB00E000BFB9
:1031D00007F59A77BD4690BDA10500200C000020A0
:1031E00018CA010824CA010830CA0108A005002035
:1031F0009C0500203CCA010854CA010870CA010895
:1032000080B500AF012002F0BFFA024B01225A61E3
:1032100000BF80BD003C014080B500AF102002F02F
:10322000B3FA024B10225A6100BF80BD003C01403E
:1032300080B500AF4FF4005002F0A6FA024B4FF4F5
:1032400000525A6100BF80BD003C014080B500AF14
:10325000202002F099FA024B20225A6100BF80BD63
:10326000003C014080B500AF022002F08DFA024B15
:1032700002225A6100BF80BD003C014080B582B08F
:1032800000AF0346FB80FB88202B47DC002B5DDD75
:10329000013B1F2B5AD801A252F823F02533000816
:1032A000453300084D3300084D3300084D33000806
:1032B0004D3300084D3300084D3300084D330008EE
:1032C0004D3300084D3300084D3300084D330008DE
:1032D0004D3300084D3300082D3300084D330008EE
:1032E0004D3300084D3300084D3300084D330008BE
:1032F0004D3300084D3300084D3300084D330008AE
:103300004D3300084D3300084D3300084D3300089D
:103310004D3300084D3300083D330008B3F5005F1E
:1033200008D013E00C4815F067FB10E00B4815F0CF
:1033300063FB0CE00A4815F05FFB08E0094815F054
:103340005BFB04E0084815F057FB00E000BF00BF3E
:103350000837BD4680BD00BF78CA010890CA010881
:10336000A8CA0108C0CA0108E0CA010880B58AB02D
:1033700000AF00233B61504B1B6B4F4A43F00403EB
:1033800013634D4B1B6B03F004033B613B6900234C
:10339000FB60494B1B6B484A43F020031363464BC9
:1033A0001B6B03F02003FB60FB680023BB60424BF8
:1033B0001B6B414A43F0800313633F4B1B6B03F0CD
:1033C0008003BB60BB6800237B603B4B1B6B3A4AAE
:1033D00043F002031363384B1B6B03F002037B6063
:1033E0007B6800233B60344B1B6B334A43F0200364
:1033F0001363314B1B6B03F020033B603B680123DD
:103400007B614FF40413BB6100233B620123FB612A
:1034100007F114031946294801F0E6FF10237B61E8
:1034200007F114031946264801F0DEFF4FF400535C
:103430007B6107F114031946224801F0D5FF2023D0
:103440007B6107F1140319461D4801F0CDFF0223EB
:103450007B6107F1140319461B4801F0C5FF0022E8
:103460000021062001F0F5FC062001F00EFD0022EF
:1034700000210A2001F0EDFC0A2001F006FD0022E7
:103480000021282001F0E5FC282001F0FEFC0022AC
:103490000021072001F0DDFC072001F0F6FC0022EE
:1034A0000021172001F0D5FC172001F0EEFC00BF31
:1034B0002837BD4680BD00BF0038024000080240EA
:1034C00000140240001C02400004024080B500AF1E
:1034D000FFF74CFF00BF80BD80B400AF194B4FF029
:1034E00000021A60174B4FF000025A60154B4FF064
:1034F00000029A60134B4FF000029A61114B4FF09B
:103500000002DA610F4B4FF000021A620D4B4FF0D0
:103510007C52DA600B4B0C4A1A610A4B4FF00002E6
:103520005A61084B094A9A62064B094A5A62054B8E
:10353000084A1A63034B084ADA6200BFBD465DF8C9
:10354000047B7047C8060020CDCC4C3D0000A04154
:103550000000A0C100004842000048C280B483B00F
:1035600000AF786087ED000A7B6893ED007AD7EDB5
:10357000007A77EE677A7B68C3ED067A7B6893ED15
:10358000037A7B68D3ED066A7B68D3ED077A76EE23
:10359000E77A27EE277A7B68D3ED046A7B68D3ED60
:1035A000067A66EEA77A37EE277A7B68D3ED056A4E
:1035B0007B6893ED066A7B68D3ED077A77EEA77A8E
:1035C00036EE676A7B68D3ED087A76EE277A66EE88
:1035D000A77A37EE277A7B68D3ED017A77EE277AE0
:1035E0007B68C3ED017A7B68DA697B681A627B6865
:1035F0009A697B68DA617B6893ED017A7B68D3ED29
:103600000C7AB4EEE77AF1EE10FA04DD7B681A6BFF
:103610007B685A600EE07B6893ED017A7B68D3ED9E
:103620000B7AB4EEE77AF1EE10FA03D57B68DA6A2A
:103630007B685A607B68D3ED017AFDEEE77A17EE7E
:10364000903A18460C37BD465DF8047B7047000081
:1036500080B483B000AF00237B60044B1B681B6801
:1036600000BF0C37BD465DF8047B7047FC060020A8
:1036700080B582B000AF7860396003F001FE3A682F
:103680007968034804F026FF00BF0837BD4680BDB7
:103690004007002080B485B000AF78600023FB6055
:1036A0007B6803F1805303F614239B00FB60FB68E7
:1036B0001B6818461437BD465DF8047B7047000050
:1036C00090B589B000AF0446084611461A46234615
:1036D000FB710346BB710B467B7113463B71FB7953
:1036E0003B73BB797B737B79BB733B79FB730023A3
:1036F000BB610023FB6107F10C030022194604485B
:1037000004F0DDFB034618462437BD4690BD00BFDC
:103710004007002090B585B000AF0446084611462A
:103720001A462346FB710346BB710B467B71134659
:103730003B717B79BB73BB797B733B793B73FB79C3
:10374000FB7307F10C0300221946044804F0D2FC75
:10375000034618461437BD4690BD00BF4007002001
:1037600080B58AB000AFF860B9607A603B6007F15D
:10377000140300221946094804F05EFC3A7DFB68F8
:103780001A707A7DBB681A70BA7D7B681A70FA7DF0
:103790003B681A7000BF2837BD4680BD4007002037
:1037A00080B586B000AFF860B9607A603B6007F121
:1037B000140300221946094804F043FDFA7DFB6812
:1037C0001A707A7DBB681A70BA7D7B681A703A7D70
:1037D0003B681A7000BF1837BD4680BD4007002007
:1037E00080B582B000AF0023FB801E4B1E4A1A60DA
:1037F0001C4B00225A601B4B7F229A60194BFF2200
:10380000DA60184B00221A61164B00225A61154BE0
:1038100000229A610020FFF73DFF0346FB8011481C
:1038200004F0BCFA0346002B01D0012316E0FB880C
:1038300045F25002934210D0FB8845F25102934268
:103840000BD0002338223B211720FFF739FF072335
:103850000D2201211420FFF75DFF002318460837D1
:10386000BD4680BD400700200028004080B594B0D0
:1038700000AF7860C823A7F84E30364B01221A609B
:1038800003F0FEFC0023BB60334B1B6C324A43F059
:1038900080531364304B1B6C03F08053BB60BB68D8
:1038A0002D4B1B6F2C4A43F00103136707E0B7F859
:1038B0004E30013BA7F84E30052008F01DF8B7F850
:1038C0004E30002B05D0244B1B6F03F00203002B5E
:1038D000EDD0B7F84E30002B1AD10823FB6100233E
:1038E0007B6301233B6307F11C03184603F0DCFCF8
:1038F0000223FB604FF40073BB6107F10C03184611
:1039000004F06AF945F251010020FFF7B1FE19E019
:103910000423FB6100237B6301237B6207F11C030B
:10392000184603F0C1FC0223FB604FF48073BB61B7
:1039300007F10C03184604F04FF945F2500100203E
:10394000FFF796FE034B01221A6000BF5037BD46B9
:1039500080BD00BF3C0E47420038024080B500AF3A
:10396000024804F0BDFC00BF80BD00BF400700203E
:1039700080B582B000AF7860034815F03DF800BF15
:103980000837BD4680BD00BFFCCA010880B500AF46
:10399000024804F07BFD00BF80BD00BF400700204F
:1039A00080B582B000AF78600221034801F0D1FEFB
:1039B00000BF0837BD4680BD0010024080B590B002
:1039C00000AF03460A46FB801346BB800023BB6260
:1039D000614B1B6B604A43F0200313635E4B1B6B10
:1039E00003F02003BB62BB6A00237B625A4B1B6B54
:1039F000594A43F020031363574B1B6B03F020031A
:103A00007B627B6A00233B62534B1B6B524A43F041
:103A100002031363504B1B6B03F002033B623B6AD0
:103A20000023FB614C4B1B6B4B4A43F08003136339
:103A3000494B1B6B03F08003FB61FB690023BB61F7
:103A4000454B1B6B444A43F020031363424B1B6BF3
:103A500003F02003BB61BB6900237B613E4B1B6B02
:103A60003D4A43F0200313633B4B1B6B03F02003E1
:103A70007B617B6900233B61374B1B6B364A43F00C
:103A800020031363344B1B6B03F020033B613B6942
:103A90000023FB60304B1B6B2F4A43F08003136302
:103AA0002D4B1B6B03F08003FB60FB684FF48043DE
:103AB000FB6201233B6302237B630023BB6307F1AB
:103AC0002C031946254801F08FFC4FF48053FB620C
:103AD00007F12C031946214801F086FC0423FB6200
:103AE00007F12C0319461E4801F07EFC0423FB62FB
:103AF00007F12C0319461B4801F076FC4FF40043F4
:103B0000FB6207F12C031946144801F06DFC4FF4D9
:103B10000053FB6207F12C031946104801F064FCC6
:103B20004FF40063FB6207F12C0319460B4801F0C8
:103B30005BFC0823FB6207F12C031946094801F0DE
:103B400053FCBA88FB881146184600F0E7FA00BF1C
:103B50004037BD4680BD00BF00380240001402401F
:103B600000040240001C024080B582B000AF034652
:103B7000FB71FB79013B032B5ED801A252F823F0C5
:103B8000913B0008BB3B0008E53B00080F3C0008E8
:103B9000304B1B68602B03D02E4B1B68702B03D15E
:103BA00000212D4805F006F82A4B1B68302B45D123
:103BB0000021294804F040FF40E0264B1B68602BA1
:103BC00003D0244B1B68702B03D10421224804F03E
:103BD000F1FF204B1B68302B32D104211E4804F02A
:103BE0002BFF2DE01B4B1B68602B03D0194B1B6870
:103BF000702B03D10821184804F0DCFF154B1B681B
:103C0000302B1FD10821144804F016FF1AE0114B85
:103C10001B68602B03D00F4B1B68702B03D10C214A
:103C20000D4804F0C7FF0B4B1B68302B0CD10C2147
:103C3000094804F001FF07E000BF06E000BF04E010
:103C400000BF02E000BF00E000BF00BF0837BD4674
:103C500080BD00BF900800204808002080B586B0D5
:103C600000AF03460A46FB711346BB804FF00003CA
:103C70007B610023FB60BB88002B2CD100213148E5
:103C800004F0DAFE304B00221A80304B1B68002B08
:103C900054D12F4B1B7CDBB2002B4FD02B4B01227E
:103CA0001A6011233B612A4B00221A74294B1868B1
:103CB00007F10C0207F1100100230DF07DFEFB68F7
:103CC000002B3BD0244B4FF080521A60BFF34F8F34
:103CD000BFF36F8F32E01D4B00221A60FB79012B7E
:103CE00006D101224FF480411C4801F019FD05E086
:103CF00000224FF48041194801F012FDBB8807EE05
:103D0000903AF8EEE77A9FED167A27EE877AF3EE8F
:103D1000046AC6EE877AC7ED057AD7ED057A9FED7E
:103D2000117A67EE877AFCEEE77A17EE903A9AB24C
:103D3000054B1A800021034804F068FD00BF1837C6
:103D4000BD4680BD480800202800002074070020E0
:103D5000600700203804002004ED00E00014024059
:103D6000CDCC4C3F0000FA4380B500AF024805F0CF
:103D7000C5F800BF80BD00BF7807002080B582B0C5
:103D800000AF03460A46FB801346BB800E4B0F4A2A
:103D90001A60BB880C4A53600B4B00229A60FB8868
:103DA000094AD360084B00221A61074804F0B6FBA9
:103DB000054804F06BFC044B1B686FF001021A61AC
:103DC00000BF0837BD4680BD7807002000100040C6
:103DD00080B584B000AF78607B681B680E4A934260
:103DE00015D10023FB600D4B1B6C0C4A43F01003F4
:103DF00013640A4B1B6C03F01003FB60FB6800228A
:103E00000521362001F025F8362001F03EF800BFEC
:103E10001037BD4680BD00BF001000400038024092
:103E200080B500AF024805F069F800BF80BD00BF53
:103E3000C007002080B582B000AF03460A46FB8071
:103E40001346BB80234B244A1A60BB88214A536027
:103E5000204B00229A60FB881E4AD3601D4B002233
:103E60001A611E4B03221A601C4B00225A601B4B26
:103E700001229A60194B0022DA60184B0A221A615B
:103E8000164B00225A61154B01229A61134B0022F6
:103E9000DA61124B0A221A6210490E4804F0FAFE47
:103EA00000210C4804F09CFF04210A4804F098FF0C
:103EB000084B1B686FF001021A61064B1B68DA6839
:103EC000044B1B6842F00102DA6000BF0837BD46B0
:103ED00080BD00BFC007002000040040080800208B
:103EE00080B58CB000AF78607B681B68334A934222
:103EF0005FD10023BB61324B1B6B314A43F004039B
:103F000013632F4B1B6B03F00403BB61BB690023DE
:103F10007B612B4B1B6B2A4A43F004031363284B32
:103F20001B6B03F004037B617B6900233B61244B23
:103F30001B6C234A43F002031364214B1B6C03F0F8
:103F400002033B613B690023FB601D4B1B6C1C4A59
:103F500043F0020313641A4B1B6C03F00203FB6073
:103F6000FB684023FB6102233B6200237B6200234A
:103F7000BB620223FB6207F11C031946114801F0E2
:103F800033FA8023FB6102233B6200237B62002320
:103F9000BB620223FB6207F11C031946094801F0CA
:103FA00023FA00220F211D2000F053FF1D2000F0F6
:103FB0006CFF00BF3037BD4680BD00BF000400402D
:103FC000003802400008024080B400AF054B1B6877
:103FD0005B6A054A1269120413441846BD465DF82F
:103FE000047B7047C00700202C08002080B582B0F9
:103FF00000AF78607B681B68404A934210D1404B09
:104000001B681B6803F01003102B02D14FF0FF3226
:1040100000E001223B4B1B6913443A4A136169E0FB
:104020007B681B68384A934264D1FFF7CDFF034693
:10403000344A5360354B1B88142B55D1314B5A6889
:10404000304B1B68D31A2F4A93602E4B5B682D4A66
:1040500013602C4B1B7D002B43D0FFF7B5FF0346AD
:104060002B4AD3602A4BDB6807EE903AF8EEE77AEA
:10407000B0EE670A2748FFF771FA0346214AD3607A
:10408000204BDB68002B03D0234B00221A700CE07E
:10409000214B1B7883F00103DBB2002B05D01E4BB4
:1040A00001221A700120FFF75FFD164BDB68002B21
:1040B00003DD174B01225A7002E0154B00225A70A3
:1040C000104BDB68002BB8BF5B420E4AD360104B2D
:1040D0005B78DBB20B4AD26892B211461846FFF702
:1040E000BDFD0A4B00221A80084B1B8801339AB28F
:1040F000064B1A8000BF0837BD4680BD0004004053
:10410000C00700202C0800200010004044080020B8
:1041100060070020C80600204608002080B584B053
:1041200000AF03460A46FB801346BB800023FB60BA
:10413000294B5B6C284A43F002035364264B5B6CAB
:1041400003F00203FB60FB68244B254A1A60BB881E
:10415000224A5360214B00229A60FB881F4AD36099
:104160001E4B00221A611D4B00229A611B4B00223C
:104170005A611A4804F0FAFA1A4B30221A60194BA5
:1041800000225A60174B00229A60164B0822DA6010
:10419000144B00221A61134B00225A61114B00226A
:1041A0009A6104220F490D4804F0B0FF00220D4926
:1041B0000A4804F0ABFF08220A49084804F0A6FFA9
:1041C0000C220849054804F0A1FF044804F0F6F960
:1041D00000BF1037BD4680BD0038024048080020AF
:1041E000000401409008002080B58CB000AF7860DA
:1041F0007B681B683E4A934276D10023BB613D4BEE
:104200005B6C3C4A43F0020353643A4B5B6C03F033
:104210000203BB61BB6900237B61364B1B6B354AD4
:1042200043F480731363334B1B6B03F480737B6124
:104230007B6900233B612F4B1B6B2E4A43F4807339
:1042400013632C4B1B6B03F480733B613B690023AE
:10425000FB60284B1B6B274A43F480731363254B89
:104260001B6B03F48073FB60FB680023BB60214B76
:104270001B6B204A43F0040313631E4B1B6B03F0BC
:104280000403BB60BB682023FB6102233B62012364
:104290007B620223BB620323FB6207F11C03194606
:1042A000154801F0A1F84023FB6107F11C031946F2
:1042B000114801F099F88023FB6107F11C031946AE
:1042C0000D4801F091F84FF40073FB6107F11C03F6
:1042D00019460A4801F088F8002207212E2000F034
:1042E000B8FD2E2000F0D1FD00BF3037BD4680BDA7
:1042F0000004014000380240002002400008024053
:1043000080B500AF024804F0F9FD00BF80BD00BFDA
:104310004808002080B485B000AF78600023FB60BF
:104320000023BB607B681B680C4A93420FD10C4B87
:104330001B685B6AFB600B4B1B889BB21A46FB68D1
:1043400013449BB2BB60064B1B68BA685A6300BF3C
:104350001437BD465DF8047B704700BF0004014080
:10436000480800202800002080B500AF0E4B1B68D5
:104370000D4A43F4007313600B4B1B680A4A43F465
:1043800080631360084B1B68074A43F48073136013
:10439000032000F053FD0F2000F008F8FCF788FE22
:1043A0000023184680BD00BF003C024080B582B0AB
:1043B00000AF7860124B1A68124B1B7819464FF405
:1043C0007A73B3FBF1F3B2FBF3F3184600F06BFD25
:1043D0000346002B01D001230EE07B680F2B0AD887
:1043E000002279684FF0FF3000F033FD064A7B6809
:1043F0001360002300E0012318460837BD4680BD46
:1044000000000020300000202C00002080B400AF0D
:10441000064B1B781A46064B1B681344044A13606C
:1044200000BFBD465DF8047B704700BF3000002030
:10443000AC08002080B400AF034B1B681846BD4693
:104440005DF8047B704700BFAC08002080B400AF6B
:10445000034B1B681B0C1846BD465DF8047B704778
:10446000002004E080B584B000AF78600023FB73C7
:104470007B68002B01D1012333E07B681B6C002B90
:1044800009D1786800F031F87B6800225A647B68B3
:10449000002283F83C207B681B6C03F01003002B88
:1044A00018D17B681B6C23F4885323F0020343F07C
:1044B00002027B681A64786800F072FA7B68002256
:1044C0005A647B681B6C23F0030343F001027B6892
:1044D0001A6401E00123FB737B68002283F83C200F
:1044E000FB7B18461037BD4680BD80B483B000AF5B
:1044F000786000BF0C37BD465DF8047B7047000054
:1045000080B586B000AFF860B9607A6000233B6187
:10451000FB6893F83C30012B01D10223E9E0FB68F2
:10452000012283F83C20FB681B689B6803F00103B1
:10453000012B18D0FB681B689A68FB681B6842F067
:1045400001029A606D4B1B686D4AA2FB03239A0C13
:1045500013465B0013443B6102E03B69013B3B6156
:104560003B69002BF9D1FB681B689B6803F48073DF
:10457000B3F5807F07D1FB681B689A68FB681B68EE
:1045800022F480729A60FB681B689B6803F0010349
:10459000012B40F0A180FB681B6C23F4E06323F047
:1045A000010343F48072FB681A64FB681B685B6854
:1045B00003F48063002B07D0FB681B6C23F440538B
:1045C00043F48052FB681A64FB681B6C03F480534D
:1045D000B3F5805F06D1FB685B6C23F00602FB68D5
:1045E0005A6402E0FB6800225A64FB68002283F8E8
:1045F0003C20444B7B61FB689B6B434ADA63FB685E
:104600009B6B424A1A64FB689B6B414ADA64FB6805
:104610001B686FF022021A60FB681B685A68FB680F
:104620001B6842F080625A60FB681B689A68FB68EE
:104630001B6842F480729A60FB68986BFB681B6889
:104640004C331946BA687B6800F004FD7B695B68EF
:1046500003F01F03002B2AD1FB681B682D4A9342ED
:1046600015D0FB681B682C4A934205D1254B5B682B
:1046700003F01F03002B0AD0FB681B68274A9342F4
:1046800036D1204B5B6803F01003002B30D1FB6860
:104690001B689B6803F04053002B29D1FB681B6803
:1046A0009A68FB681B6842F080429A6020E0FB68D1
:1046B0001B68184A93421BD1FB681B689B6803F078
:1046C0004053002B14D1FB681B689A68FB681B6879
:1046D00042F080429A600BE0FB681B6C43F01002D2
:1046E000FB681A64FB685B6C43F00102FB685A6468
:1046F000002318461837BD4680BD00BF00000020CB
:1047000083DE1B4300230140994B0008534C0008F3
:104710006F4C0008002001400021014000220140B0
:1047200080B483B000AF786000BF0C37BD465DF841
:10473000047B704780B483B000AF786000BF0C3753
:10474000BD465DF8047B704780B483B000AF7860ED
:1047500000BF0C37BD465DF8047B704780B485B060
:1047600000AF786039600023BB607B6893F83C3011
:10477000012B01D1022305E17B68012283F83C2053
:104780003B681B68092B25D97B681B68D9683B6887
:104790001B689BB21A4613465B0013441E3B07225C
:1047A00002FA03F3DA437B681B680A40DA607B682D
:1047B0001B68D9683B689A683B681B689BB21846BF
:1047C00003465B0003441E3B9A407B681B680A4318
:1047D000DA6022E07B681B6819693B681B689BB242
:1047E0001A4613465B001344072202FA03F3DA4326
:1047F0007B681B680A401A617B681B6819693B6803
:104800009A683B681B689BB2184603465B000344EA
:104810009A407B681B680A431A613B685B68062BF9
:1048200024D87B681B68596B3B685A6813469B0009
:104830001344053B1F2202FA03F3DA437B681B682B
:104840000A405A637B681B68596B3B681B689BB2C4
:1048500018463B685A6813469B001344053B00FA10
:1048600003F27B681B680A435A634CE03B685B6851
:104870000C2B24D87B681B68196B3B685A6813465D
:104880009B001344233B1F2202FA03F3DA437B68A5
:104890001B680A401A637B681B68196B3B681B68BE
:1048A0009BB218463B685A6813469B001344233B4F
:1048B00000FA03F27B681B680A431A6323E07B68F3
:1048C0001B68D96A3B685A6813469B001344413BF6
:1048D0001F2202FA03F3DA437B681B680A40DA629C
:1048E0007B681B68D96A3B681B689BB218463B68AB
:1048F0005A6813469B001344413B00FA03F27B685D
:104900001B680A43DA62224BFB607B681B68214A02
:10491000934209D13B681B68122B05D1FB685B6889
:1049200043F48002FB685A607B681B68194A934213
:1049300023D13B681B68102B03D03B681B68112BED
:104940001BD1FB685B6843F40002FB685A603B685C
:104950001B68102B11D1104B1B68104AA2FB0323BC
:104960009A0C13469B0013445B00BB6002E0BB68DB
:10497000013BBB60BB68002BF9D17B68002283F848
:104980003C20002318461437BD465DF8047B704771
:1049900000230140002001400000002083DE1B4373
:1049A00080B485B000AF7860794BFB60FB685B68D2
:1049B00023F44032FB685A60FB685A687B685B6886
:1049C0001A43FB685A607B681B685A687B681B68DF
:1049D00022F480725A607B681B6859687B681B6987
:1049E0001A027B681B680A435A607B681B685A6816
:1049F0007B681B6822F040725A607B681B685968AC
:104A00007B689A687B681B680A435A607B681B68EE
:104A10009A687B681B6822F400629A607B681B6856
:104A200099687B68DA687B681B680A439A607B68D0
:104A30009B6A584A934222D07B681B689A687B68BD
:104A40001B6822F070629A607B681B6899687B68BB
:104A50009A6A7B681B680A439A607B681B689A683D
:104A60007B681B6822F040529A607B681B689968DB
:104A70007B68DA6A7B681B680A439A600FE07B6890
:104A80001B689A687B681B6822F070629A607B687A
:104A90001B689A687B681B6822F040529A607B68AA
:104AA0001B689A687B681B6822F002029A607B6828
:104AB0001B6899687B681B7E5A007B681B680A43E9
:104AC0009A607B6893F82030002B1BD07B681B68B2
:104AD0005A687B681B6842F400625A607B681B68F6
:104AE0005A687B681B6822F460425A607B681B68C6
:104AF00059687B685B6A013B5A037B681B680A4301
:104B00005A6007E07B681B685A687B681B6822F460
:104B100000625A607B681B68DA6A7B681B6822F453
:104B20007002DA627B681B68D96A7B68DB69013BCB
:104B30001A057B681B680A43DA627B681B689A68FF
:104B40007B681B6822F400729A607B681B68996816
:104B50007B6893F830305A027B681B680A439A607E
:104B60007B681B689A687B681B6822F480629A6085
:104B70007B681B6899687B685B699A027B681B6825
:104B80000A439A6000BF1437BD465DF8047B704746
:104B9000002301400100000F80B584B000AF7860B1
:104BA0007B689B6BFB60FB681B6C03F05003002B66
:104BB0003CD1FB681B6C43F40072FB681A64FB6811
:104BC0001B689B6803F04053002B2BD1FB681B7EB6
:104BD000002B27D1FB681B68DB6A03F47003002BF2
:104BE00006D0FB681B689B6803F48063002B19D117
:104BF000FB681B685A68FB681B6822F020025A6039
:104C0000FB681B6C23F48072FB681A64FB681B6CE6
:104C100003F48053002B05D1FB681B6C43F00102A9
:104C2000FB681A64F868FFF77BFD0EE0FB681B6CFD
:104C300003F01003002B03D0F868FFF785FD04E0B4
:104C4000FB689B6BDB6C7868984700BF1037BD46EC
:104C500080BD80B584B000AF78607B689B6BFB60E3
:104C6000F868FFF767FD00BF1037BD4680BD80B50F
:104C700084B000AF78607B689B6BFB60FB68402270
:104C80001A64FB685B6C43F00402FB685A64F868C2
:104C9000FFF75AFD00BF1037BD4680BD80B485B018
:104CA00000AF78607B6803F00703FB600C4BDB68A8
:104CB000BB60BA684FF6FF031340BB60FB681A0283
:104CC000BB68134343F0BF6343F40033BB60044A43
:104CD000BB68D36000BF1437BD465DF8047B7047E6
:104CE00000ED00E080B400AF044BDB681B0A03F06A
:104CF00007031846BD465DF8047B704700ED00E0F1
:104D000080B483B000AF0346FB7197F90730002BE6
:104D10000BDBFB7903F01F02074997F907305B09AA
:104D2000012000FA02F241F8232000BF0C37BD46F3
:104D30005DF8047B704700BF00E100E080B483B001
:104D400000AF03463960FB7197F90730002B0ADB8F
:104D50003B68DAB20C4997F907301201D2B20B4422
:104D600083F800230AE03B68DAB20849FB7903F0D4
:104D70000F03043B1201D2B20B441A7600BF0C376A
:104D8000BD465DF8047B704700E100E000ED00E007
:104D900080B489B000AFF860B9607A60FB6803F056
:104DA0000703FB61FB69C3F10703042B28BF04233E
:104DB000BB61FB690433062B02D9FB69033B00E0AE
:104DC00000237B614FF0FF32BB6902FA03F3DA4341
:104DD000BB681A407B699A404FF0FF317B6901FA4A
:104DE00003F3D9437B680B40134318462437BD4671
:104DF0005DF8047B7047000080B582B000AF78603A
:104E00007B68013BB3F1807F01D301230FE00A4AA5
:104E10007B68013B53600F214FF0FF30FFF78EFF9F
:104E2000054B00229A60044B07221A6000231846A3
:104E30000837BD4680BD00BF10E000E080B582B0FD
:104E400000AF78607868FFF729FF00BF0837BD46DC
:104E500080BD80B586B000AF0346B9607A60FB7351
:104E600000237B61FFF73EFF78617A68B968786953
:104E7000FFF78EFF024697F90F3011461846FFF7ED
:104E80005DFF00BF1837BD4680BD80B582B000AF62
:104E90000346FB7197F907301846FFF731FF00BF53
:104EA0000837BD4680BD80B582B000AF78607868B5
:104EB000FFF7A2FF034618460837BD4680BD000035
:104EC00080B483B000AF78607B68042B06D1094BB7
:104ED0001B68084A43F00403136005E0054B1B6898
:104EE000044A23F00403136000BF0C37BD465DF88D
:104EF000047B704710E000E080B586B000AF7860BA
:104F000000237B61FFF796FA38617B68002B01D1A3
:104F1000012399E07B68022283F835207B68002218
:104F200083F834207B681B681A687B681B6822F052
:104F300001021A600FE0FFF77DFA02463B69D31ABF
:104F4000052B08D97B6820225A657B68032283F8E9
:104F50003520032378E07B681B681B6803F001039E
:104F6000002BE8D17B681B681B687B617A69384B32
:104F700013407B617B685A687B689B681A437B6837
:104F8000DB681A437B681B691A437B685B691A43B9
:104F90007B689B691A437B68DB691A437B681B6AE1
:104FA00013437A6913437B617B685B6A042B07D1E7
:104FB0007B68DA6A7B681B6B13437A6913437B61F6
:104FC0007B681B687A691A607B681B685B697B6118
:104FD0007B6923F007037B617B685B6A7A69134313
:104FE0007B617B685B6A042B17D17B689B6A7A695B
:104FF00013437B617B68DB6A002B0ED0786800F07E
:1050000077F90346002B08D07B6840225A657B68FD
:10501000012283F83520012316E07B681B687A693A
:105020005A61786800F02EF90346FB607B68DB6DFF
:105030003F229A40FB689A607B6800225A657B6831
:10504000012283F83520002318461837BD4680BD5D
:105050003F8010F080B586B000AFF860B9607A602C
:105060003B600023FB75FB689B6D3B61FB6893F81D
:105070003430012B01D1022340E0FB68012283F888
:105080003420FB6893F83530DBB2012B2FD1FB685D
:10509000022283F83520FB6800225A653B687A6853
:1050A000B968F86800F0C0F8FB68DB6D3F229A40F1
:1050B0003B699A60FB681B681A68FB681B6842F0D2
:1050C00016021A60FB681B6C002B07D0FB681B687C
:1050D0001A68FB681B6842F008021A60FB681B68CC
:1050E0001A68FB681B6842F001021A6005E0FB6861
:1050F000002283F834200223FB75FB7D1846183705
:10510000BD4680BD80B584B000AF78607B689B6D84
:10511000FB60FFF78FF9B8607B6893F83530DBB23E
:10512000022B08D07B6880225A657B68002283F8B6
:105130003420012352E07B681B681A687B681B6877
:1051400022F016021A607B681B685A697B681B682C
:1051500022F080025A617B681B6C002B03D17B68B4
:105160009B6C002B07D07B681B681A687B681B68E8
:1051700022F008021A607B681B681A687B681B684B
:1051800022F001021A6013E0FFF754F90246BB68EF
:10519000D31A052B0CD97B6820225A657B68032221
:1051A00083F835207B68002283F83420032315E040
:1051B0007B681B681B6803F00103002BE4D17B684C
:1051C000DB6D3F229A40FB689A607B68012283F87E
:1051D00035207B68002283F83420002318461037DE
:1051E000BD4680BD80B483B000AF78607B6893F823
:1051F0003530DBB2022B04D07B6880225A65012354
:105200000CE07B68052283F835207B681B681A68F0
:105210007B681B6822F001021A60002318460C37D5
:10522000BD465DF8047B704780B485B000AFF86080
:10523000B9607A603B60FB681B681A68FB681B6892
:1052400022F480221A60FB681B683A685A60FB6887
:105250009B68402B08D1FB681B687A689A60FB68E2
:105260001B68BA68DA6007E0FB681B68BA689A6076
:10527000FB681B687A68DA6000BF1437BD465DF8CA
:10528000047B704780B485B000AF78607B681B6892
:10529000DBB2103B144AA2FB03231B09FB60134A39
:1052A000FB6813441B781A467B68DA65FB68032B9E
:1052B00009D97B681B6823F47F7323F003031A1D4D
:1052C0007B689A6507E07B681B6823F47F7323F093
:1052D00003037A6893657B689B6D18461437BD4657
:1052E0005DF8047B704700BFABAAAAAA54D301089B
:1052F00080B485B000AF78600023FB737B689B6A45
:10530000BB607B689B69002B1FD1BB68032B56D801
:1053100001A252F823F000BF295300083B530008B4
:1053200029530008BF5300087B68DB6A03F08073D1
:10533000002B46D00123FB7343E07B68DB6AB3F1AB
:10534000C07F40D10123FB733DE07B689B69B3F5CF
:10535000005F21D1BB68032B37D801A252F823F09C
:1053600071530008775300087153000889530008EF
:105370000123FB7330E07B68DB6A03F08073002B52
:1053800025D00123FB7322E07B68DB6AB3F1C07F89
:105390001FD10123FB731CE0BB68022B03D9BB6840
:1053A000032B03D018E00123FB7315E07B68DB6A55
:1053B00003F08073002B0ED00123FB730BE000BFC2
:1053C0000AE000BF08E000BF06E000BF04E000BF45
:1053D00002E000BF00E000BFFB7B18461437BD466B
:1053E0005DF8047B704700BF80B489B000AF78607F
:1053F000396000237B6100233B610023BB610023F4
:10540000FB616BE10122FB6902FA03F37B613B68FC
:105410001B687A6913403B613A697B699A4240F0A4
:105420005A813B685B6803F00303012B05D03B689E
:105430005B6803F00303022B30D17B689B68BB6180
:10544000FB695B00032202FA03F3DB43BA691340F2
:10545000BB613B68DA68FB695B0002FA03F3BA6977
:105460001343BB617B68BA699A607B685B68BB6108
:105470000122FB6902FA03F3DB43BA691340BB6103
:105480003B685B681B0903F00102FB6902FA03F346
:10549000BA691343BB617B68BA695A603B685B6851
:1054A00003F00303032B17D07B68DB68BB61FB6948
:1054B0005B00032202FA03F3DB43BA691340BB61CA
:1054C0003B689A68FB695B0002FA03F3BA6913430D
:1054D000BB617B68BA69DA603B685B6803F0030311
:1054E000022B23D1FB69DA087B68083253F822309B
:1054F000BB61FB6903F007039B000F2202FA03F371
:10550000DB43BA691340BB613B681A69FB6903F06E
:1055100007039B0002FA03F3BA691343BB61FB69FB
:10552000DA087B680832B96943F822107B681B6887
:10553000BB61FB695B00032202FA03F3DB43BA6938
:105540001340BB613B685B6803F00302FB695B00CF
:1055500002FA03F3BA691343BB617B68BA691A6044
:105560003B685B6803F44033002B00F0B4800023F9
:10557000FB60604B5B6C5F4A43F4804353645D4B5C
:105580005B6C03F48043FB60FB685B4AFB699B0830
:10559000023352F82330BB61FB6903F003039B0025
:1055A0000F2202FA03F3DB43BA691340BB617B6845
:1055B000524A93422BD07B68514A934225D07B6854
:1055C000504A93421FD07B684F4A934219D07B6860
:1055D0004E4A934213D07B684D4A93420DD07B686C
:1055E0004C4A934207D07B684B4A934201D1072330
:1055F0000EE008230CE006230AE0052308E004235C
:1056000006E0032304E0022302E0012300E000237C
:10561000FA6902F0030292009340BA691343BB6136
:105620003549FB699B080233BA6941F823203B4B9B
:105630009B68BB613B69DB43BA691340BB613B6854
:105640005B6803F48013002B03D0BA693B691343F2
:10565000BB61324ABB699360304BDB68BB613B691D
:10566000DB43BA691340BB613B685B6803F400131A
:10567000002B03D0BA693B691343BB61274ABB695E
:10568000D360264B5B68BB613B69DB43BA6913405F
:10569000BB613B685B6803F40033002B03D0BA693D
:1056A0003B691343BB611D4ABB6953601B4B1B68BD
:1056B000BB613B69DB43BA691340BB613B685B6814
:1056C00003F48033002B03D0BA693B691343BB61F9
:1056D000124ABB691360FB690133FB61FB690F2B45
:1056E0007FF690AE00BF00BF2437BD465DF8047B57
:1056F000704700BF003802400038014000000240FF
:105700000004024000080240000C02400010024069
:105710000014024000180240001C0240003C0140FE
:1057200080B483B000AF78600B467B8013467B70FB
:105730007B78002B03D07A887B689A6103E07B88B2
:105740001A047B689A6100BF0C37BD465DF8047B84
:10575000704780B485B000AF78600B467B807B6873
:105760005B69FB607A88FB6813401A04FB68D943C5
:105770007B880B401A437B689A6100BF1437BD4693
:105780005DF8047B7047000080B582B000AF03462F
:10579000FB80084B5A69FB881340002B06D0054A52
:1057A000FB885361FB881846FDF768FD00BF08378A
:1057B000BD4680BD003C0140F0B58FB00AAF7860B7
:1057C0007B68002B01D1012354E07B681B68FB60E0
:1057D0007B6893F8F932DBB2002B06D17B6800229C
:1057E00083F8F82278680EF051FC7B68032283F876
:1057F000F922FB68DB6B03F48073002B02D17B681A
:1058000000221A617B681B68184605F02BF97B683B
:105810001B683B607E686D4606F110040FCC0FC517
:105820000FCC0FC594E8030085E80300331D0ECBB1
:10583000386805F0A5F87B681B680121184605F05B
:1058400022F97B681B683B607E686D4606F1100498
:105850000FCC0FC50FCC0FC594E8030085E80300FB
:10586000331D0ECB386805F035FA7B68012283F8CA
:10587000F922002318461437BD46F0BD90B589B013
:1058800004AF7860084611461A460346FB700B4683
:10589000BB7013467B707B6893F8F832012B01D103
:1058A000022376E07B68012283F8F822FB787A688D
:1058B0002C2101FB03F313443D3300221A70FB78C3
:1058C0007A682C2101FB03F3134438337A781A7079
:1058D000FB787A682C2101FB03F3134440333A8DA3
:1058E0001A80FB787A682C2101FB03F313443933C7
:1058F000FA781A70FB787A682C2101FB03F31344C1
:105900003F3397F824201A70FB78BA7802F07F02B0
:10591000D0B27A682C2101FB03F313443A330246D8
:105920001A7097F90230002B09DAFB787A682C217B
:1059300001FB03F313443B3301221A7008E0FB78A8
:105940007A682C2101FB03F313443B3300221A70C5
:10595000FB787A682C2101FB03F313443C3397F85E
:1059600020201A707B6818687C78BA78F9783B8DAB
:10597000029397F82430019397F820300093234640
:1059800005F02AFB0346FB737B68002283F8F822AC
:10599000FB7B18461437BD4690BD80B584B000AF80
:1059A00078600B46FB700023FB737B6893F8F8323A
:1059B000012B01D102230FE07B68012283F8F8223A
:1059C0007B681B68FA781146184605F066FD7B680F
:1059D000002283F8F822FB7B18461037BD4680BDB5
:1059E00080B582B000AF7860084611461A4603467B
:1059F000FB700B46BB7013467B70FB787A682C21DA
:105A000001FB03F313443B33BA781A70FB787A68CE
:105A10002C2101FB03F313443F337A781A703B7C4B
:105A2000002B12D1FB787A682C2101FB03F313447D
:105A3000423303221A70FB787A682C2101FB03F3AE
:105A400013443D333A7F1A7008E0FB787A682C21C2
:105A500001FB03F31344423302221A707B78032BB9
:105A600000F2C68001A252F823F000BF7D5A000860
:105A7000DD5B0008E15A00085F5B00083B7C012BFE
:105A800040F0B880BB78002B40F0B4803B8B002BFB
:105A900008D1FB787A682C2101FB03F313445533BA
:105AA00001221A70FB787A682C2101FB03F313445E
:105AB00055331B78002B09D1FB787A682C2101FB28
:105AC00003F31344423300221A7093E0FB787A68A0
:105AD0002C2101FB03F31344423302221A7089E0A4
